Archive member included because of file (symbol)

contiki-srf06-cc26xx.a(contiki-main.o)
                              obj_srf06-cc26xx/startup_gcc.o (main)
contiki-srf06-cc26xx.a(sensors.o)
                              contiki-srf06-cc26xx.a(contiki-main.o) (sensors_process)
contiki-srf06-cc26xx.a(leds.o)
                              contiki-srf06-cc26xx.a(contiki-main.o) (leds_init)
contiki-srf06-cc26xx.a(leds-arch.o)
                              contiki-srf06-cc26xx.a(leds.o) (leds_arch_init)
contiki-srf06-cc26xx.a(sensortag-senso)
                              contiki-srf06-cc26xx.a(sensors.o) (sensors_flags)
contiki-srf06-cc26xx.a(bmp-280-sensor.)
                              contiki-srf06-cc26xx.a(sensortag-senso) (bmp_280_sensor)
contiki-srf06-cc26xx.a(tmp-007-sensor.)
                              contiki-srf06-cc26xx.a(sensortag-senso) (tmp_007_sensor)
contiki-srf06-cc26xx.a(opt-3001-sensor)
                              contiki-srf06-cc26xx.a(sensortag-senso) (opt_3001_sensor)
contiki-srf06-cc26xx.a(hdc-1000-sensor)
                              contiki-srf06-cc26xx.a(sensortag-senso) (hdc_1000_sensor)
contiki-srf06-cc26xx.a(mpu-9250-sensor)
                              contiki-srf06-cc26xx.a(sensortag-senso) (mpu_9250_sensor)
contiki-srf06-cc26xx.a(button-sensor.o)
                              contiki-srf06-cc26xx.a(sensortag-senso) (button_right_sensor)
contiki-srf06-cc26xx.a(reed-relay.o)
                              contiki-srf06-cc26xx.a(sensortag-senso) (reed_relay_sensor)
contiki-srf06-cc26xx.a(board.o)
                              contiki-srf06-cc26xx.a(contiki-main.o) (board_init)
contiki-srf06-cc26xx.a(board-i2c.o)
                              contiki-srf06-cc26xx.a(board.o) (board_i2c_wakeup)
contiki-srf06-cc26xx.a(clock.o)
                              contiki-srf06-cc26xx.a(contiki-main.o) (clock_init)
contiki-srf06-cc26xx.a(rtimer-arch.o)
                              contiki-srf06-cc26xx.a(mpu-9250-sensor) (rtimer_arch_now)
contiki-srf06-cc26xx.a(soc-rtc.o)
                              contiki-srf06-cc26xx.a(contiki-main.o) (soc_rtc_init)
contiki-srf06-cc26xx.a(contiki-watchdo)
                              contiki-srf06-cc26xx.a(contiki-main.o) (watchdog_init)
contiki-srf06-cc26xx.a(putchar.o)
                              contiki-srf06-cc26xx.a(contiki-main.o) (putchar)
contiki-srf06-cc26xx.a(ieee-addr.o)
                              contiki-srf06-cc26xx.a(contiki-main.o) (ieee_addr_cpy_to)
contiki-srf06-cc26xx.a(cc26xx-uart.o)
                              contiki-srf06-cc26xx.a(contiki-main.o) (cc26xx_uart_init)
contiki-srf06-cc26xx.a(lpm.o)
                              contiki-srf06-cc26xx.a(button-sensor.o) (lpm_shutdown)
contiki-srf06-cc26xx.a(gpio-interrupt.)
                              contiki-srf06-cc26xx.a(button-sensor.o) (gpio_interrupt_register_handler)
contiki-srf06-cc26xx.a(oscillators.o)
                              contiki-srf06-cc26xx.a(contiki-main.o) (oscillators_select_lf_xosc)
contiki-srf06-cc26xx.a(ieee-mode.o)
                              contiki-srf06-cc26xx.a(contiki-main.o) (ieee_mode_driver)
contiki-srf06-cc26xx.a(dbg-printf.o)
                              contiki-srf06-cc26xx.a(contiki-main.o) (printf)
contiki-srf06-cc26xx.a(strformat.o)
                              contiki-srf06-cc26xx.a(dbg-printf.o) (format_str_v)
contiki-srf06-cc26xx.a(autostart.o)
                              contiki-srf06-cc26xx.a(contiki-main.o) (autostart_start)
contiki-srf06-cc26xx.a(ctimer.o)
                              contiki-srf06-cc26xx.a(contiki-main.o) (ctimer_init)
contiki-srf06-cc26xx.a(energest.o)
                              contiki-srf06-cc26xx.a(contiki-main.o) (energest_init)
contiki-srf06-cc26xx.a(etimer.o)
                              contiki-srf06-cc26xx.a(clock.o) (etimer_request_poll)
contiki-srf06-cc26xx.a(process.o)
                              contiki-srf06-cc26xx.a(sensors.o) (process_alloc_event)
contiki-srf06-cc26xx.a(rtimer.o)
                              contiki-srf06-cc26xx.a(contiki-main.o) (rtimer_init)
contiki-srf06-cc26xx.a(timer.o)
                              contiki-srf06-cc26xx.a(button-sensor.o) (timer_set)
contiki-srf06-cc26xx.a(serial-line.o)
                              contiki-srf06-cc26xx.a(contiki-main.o) (serial_line_init)
contiki-srf06-cc26xx.a(list.o)
                              contiki-srf06-cc26xx.a(lpm.o) (list_init)
contiki-srf06-cc26xx.a(random.o)
                              contiki-srf06-cc26xx.a(contiki-main.o) (random_init)
contiki-srf06-cc26xx.a(ringbuf.o)
                              contiki-srf06-cc26xx.a(serial-line.o) (ringbuf_init)
contiki-srf06-cc26xx.a(sicslowpan.o)
                              contiki-srf06-cc26xx.a(contiki-main.o) (sicslowpan_driver)
contiki-srf06-cc26xx.a(uip-ds6-nbr.o)
                              contiki-srf06-cc26xx.a(sicslowpan.o) (uip_ds6_link_neighbor_callback)
contiki-srf06-cc26xx.a(uip-ds6-route.o)
                              contiki-srf06-cc26xx.a(uip-ds6-nbr.o) (uip_ds6_defrt_lookup)
contiki-srf06-cc26xx.a(uip-ds6.o)
                              contiki-srf06-cc26xx.a(sicslowpan.o) (uip_ds6_set_addr_iid)
contiki-srf06-cc26xx.a(uip6.o)
                              contiki-srf06-cc26xx.a(sicslowpan.o) (uip_aligned_buf)
contiki-srf06-cc26xx.a(tcpip.o)
                              contiki-srf06-cc26xx.a(sicslowpan.o) (tcpip_set_outputfunc)
contiki-srf06-cc26xx.a(uip-debug.o)
                              contiki-srf06-cc26xx.a(uip-ds6-route.o) (uip_debug_ipaddr_print)
contiki-srf06-cc26xx.a(rpl-dag.o)
                              contiki-srf06-cc26xx.a(tcpip.o) (rpl_repair_root)
contiki-srf06-cc26xx.a(rpl-ext-header.)
                              contiki-srf06-cc26xx.a(uip6.o) (rpl_verify_header)
contiki-srf06-cc26xx.a(rpl-icmp6.o)
                              contiki-srf06-cc26xx.a(rpl-ext-header.) (dao_output_target)
contiki-srf06-cc26xx.a(rpl-mrhof.o)
                              contiki-srf06-cc26xx.a(rpl-dag.o) (rpl_mrhof)
contiki-srf06-cc26xx.a(rpl-timers.o)
                              contiki-srf06-cc26xx.a(rpl-dag.o) (rpl_reset_dio_timer)
contiki-srf06-cc26xx.a(rpl.o)
                              contiki-srf06-cc26xx.a(rpl-icmp6.o) (rpl_get_mode)
contiki-srf06-cc26xx.a(aon_rtc.o)
                              contiki-srf06-cc26xx.a(rtimer-arch.o) (NOROM_AONRTCCurrentCompareValueGet)
contiki-srf06-cc26xx.a(cpu.o)
                              contiki-srf06-cc26xx.a(contiki-main.o) (NOROM_CPUcpsid)
contiki-srf06-cc26xx.a(ddi.o)
                              contiki-srf06-cc26xx.a(oscillators.o) (NOROM_DDI16BitfieldWrite)
contiki-srf06-cc26xx.a(osc.o)
                              contiki-srf06-cc26xx.a(oscillators.o) (NOROM_OSCClockSourceSet)
contiki-srf06-cc26xx.a(pwr_ctrl.o)
                              contiki-srf06-cc26xx.a(lpm.o) (NOROM_PowerCtrlSourceSet)
contiki-srf06-cc26xx.a(setup.o)
                              obj_srf06-cc26xx/startup_gcc.o (trimDevice)
contiki-srf06-cc26xx.a(sys_ctrl.o)
                              contiki-srf06-cc26xx.a(lpm.o) (SysCtrlSetRechargeBeforePowerDown)
contiki-srf06-cc26xx.a(linkaddr.o)
                              contiki-srf06-cc26xx.a(sicslowpan.o) (linkaddr_copy)
contiki-srf06-cc26xx.a(nbr-table.o)
                              contiki-srf06-cc26xx.a(uip-ds6-nbr.o) (nbr_table_register)
contiki-srf06-cc26xx.a(netstack.o)
                              contiki-srf06-cc26xx.a(contiki-main.o) (netstack_init)
contiki-srf06-cc26xx.a(packetbuf.o)
                              contiki-srf06-cc26xx.a(sicslowpan.o) (packetbuf_set_datalen)
contiki-srf06-cc26xx.a(queuebuf.o)
                              contiki-srf06-cc26xx.a(contiki-main.o) (queuebuf_init)
contiki-srf06-cc26xx.a(csma.o)
                              contiki-srf06-cc26xx.a(contiki-main.o) (csma_driver)
contiki-srf06-cc26xx.a(framer-802154.o)
                              contiki-srf06-cc26xx.a(sicslowpan.o) (framer_802154)
contiki-srf06-cc26xx.a(mac.o)
                              contiki-srf06-cc26xx.a(csma.o) (mac_call_sent_callback)
contiki-srf06-cc26xx.a(contikimac.o)
                              contiki-srf06-cc26xx.a(contiki-main.o) (contikimac_driver)
contiki-srf06-cc26xx.a(nullsec.o)
                              contiki-srf06-cc26xx.a(sicslowpan.o) (nullsec_driver)
contiki-srf06-cc26xx.a(sensor-common.o)
                              contiki-srf06-cc26xx.a(bmp-280-sensor.) (sensor_common_read_reg)
contiki-srf06-cc26xx.a(ext-flash.o)
                              contiki-srf06-cc26xx.a(board.o) (ext_flash_init)
contiki-srf06-cc26xx.a(buzzer.o)
                              contiki-srf06-cc26xx.a(board.o) (buzzer_init)
contiki-srf06-cc26xx.a(board-spi.o)
                              contiki-srf06-cc26xx.a(ext-flash.o) (board_spi_write)
contiki-srf06-cc26xx.a(rf-core.o)
                              contiki-srf06-cc26xx.a(ieee-mode.o) (rf_core_is_accessible)
contiki-srf06-cc26xx.a(rf-ble.o)
                              contiki-srf06-cc26xx.a(ieee-mode.o) (rf_ble_is_active)
contiki-srf06-cc26xx.a(stimer.o)
                              contiki-srf06-cc26xx.a(uip-ds6-nbr.o) (stimer_set)
contiki-srf06-cc26xx.a(memb.o)
                              contiki-srf06-cc26xx.a(uip-ds6-route.o) (memb_init)
contiki-srf06-cc26xx.a(uip-icmp6.o)
                              contiki-srf06-cc26xx.a(uip6.o) (uip_icmp6_input)
contiki-srf06-cc26xx.a(uip-nd6.o)
                              contiki-srf06-cc26xx.a(uip6.o) (uip_nd6_init)
contiki-srf06-cc26xx.a(aon_batmon.o)
                              contiki-srf06-cc26xx.a(osc.o) (AONBatMonTemperatureGetDegC)
contiki-srf06-cc26xx.a(chipinfo.o)
                              contiki-srf06-cc26xx.a(rf-core.o) (ChipInfo_GetSupportedProtocol_BV)
contiki-srf06-cc26xx.a(frame802154.o)
                              contiki-srf06-cc26xx.a(framer-802154.o) (frame802154_get_pan_id)
contiki-srf06-cc26xx.a(mac-sequence.o)
                              contiki-srf06-cc26xx.a(contikimac.o) (mac_sequence_is_duplicate)
/usr/local/Cellar/gcc-arm-none-eabi/20140805/bin/../lib/gcc/arm-none-eabi/4.8.4/../../../../arm-none-eabi/lib/armv7-m/libm.a(lib_a-w_exp2.o)
                              contiki-srf06-cc26xx.a(opt-3001-sensor) (exp2)
/usr/local/Cellar/gcc-arm-none-eabi/20140805/bin/../lib/gcc/arm-none-eabi/4.8.4/../../../../arm-none-eabi/lib/armv7-m/libm.a(lib_a-w_pow.o)
                              /usr/local/Cellar/gcc-arm-none-eabi/20140805/bin/../lib/gcc/arm-none-eabi/4.8.4/../../../../arm-none-eabi/lib/armv7-m/libm.a(lib_a-w_exp2.o) (pow)
/usr/local/Cellar/gcc-arm-none-eabi/20140805/bin/../lib/gcc/arm-none-eabi/4.8.4/../../../../arm-none-eabi/lib/armv7-m/libm.a(lib_a-e_pow.o)
                              /usr/local/Cellar/gcc-arm-none-eabi/20140805/bin/../lib/gcc/arm-none-eabi/4.8.4/../../../../arm-none-eabi/lib/armv7-m/libm.a(lib_a-w_pow.o) (__ieee754_pow)
/usr/local/Cellar/gcc-arm-none-eabi/20140805/bin/../lib/gcc/arm-none-eabi/4.8.4/../../../../arm-none-eabi/lib/armv7-m/libm.a(lib_a-e_sqrt.o)
                              /usr/local/Cellar/gcc-arm-none-eabi/20140805/bin/../lib/gcc/arm-none-eabi/4.8.4/../../../../arm-none-eabi/lib/armv7-m/libm.a(lib_a-e_pow.o) (__ieee754_sqrt)
/usr/local/Cellar/gcc-arm-none-eabi/20140805/bin/../lib/gcc/arm-none-eabi/4.8.4/../../../../arm-none-eabi/lib/armv7-m/libm.a(lib_a-s_fabs.o)
                              /usr/local/Cellar/gcc-arm-none-eabi/20140805/bin/../lib/gcc/arm-none-eabi/4.8.4/../../../../arm-none-eabi/lib/armv7-m/libm.a(lib_a-e_pow.o) (fabs)
/usr/local/Cellar/gcc-arm-none-eabi/20140805/bin/../lib/gcc/arm-none-eabi/4.8.4/../../../../arm-none-eabi/lib/armv7-m/libm.a(lib_a-s_finite.o)
                              /usr/local/Cellar/gcc-arm-none-eabi/20140805/bin/../lib/gcc/arm-none-eabi/4.8.4/../../../../arm-none-eabi/lib/armv7-m/libm.a(lib_a-w_pow.o) (finite)
/usr/local/Cellar/gcc-arm-none-eabi/20140805/bin/../lib/gcc/arm-none-eabi/4.8.4/../../../../arm-none-eabi/lib/armv7-m/libm.a(lib_a-s_fpclassify.o)
                              /usr/local/Cellar/gcc-arm-none-eabi/20140805/bin/../lib/gcc/arm-none-eabi/4.8.4/../../../../arm-none-eabi/lib/armv7-m/libm.a(lib_a-w_pow.o) (__fpclassifyd)
/usr/local/Cellar/gcc-arm-none-eabi/20140805/bin/../lib/gcc/arm-none-eabi/4.8.4/../../../../arm-none-eabi/lib/armv7-m/libm.a(lib_a-s_lib_ver.o)
                              /usr/local/Cellar/gcc-arm-none-eabi/20140805/bin/../lib/gcc/arm-none-eabi/4.8.4/../../../../arm-none-eabi/lib/armv7-m/libm.a(lib_a-w_pow.o) (__fdlib_version)
/usr/local/Cellar/gcc-arm-none-eabi/20140805/bin/../lib/gcc/arm-none-eabi/4.8.4/../../../../arm-none-eabi/lib/armv7-m/libm.a(lib_a-s_matherr.o)
                              /usr/local/Cellar/gcc-arm-none-eabi/20140805/bin/../lib/gcc/arm-none-eabi/4.8.4/../../../../arm-none-eabi/lib/armv7-m/libm.a(lib_a-w_pow.o) (matherr)
/usr/local/Cellar/gcc-arm-none-eabi/20140805/bin/../lib/gcc/arm-none-eabi/4.8.4/../../../../arm-none-eabi/lib/armv7-m/libm.a(lib_a-s_nan.o)
                              /usr/local/Cellar/gcc-arm-none-eabi/20140805/bin/../lib/gcc/arm-none-eabi/4.8.4/../../../../arm-none-eabi/lib/armv7-m/libm.a(lib_a-e_pow.o) (nan)
/usr/local/Cellar/gcc-arm-none-eabi/20140805/bin/../lib/gcc/arm-none-eabi/4.8.4/../../../../arm-none-eabi/lib/armv7-m/libm.a(lib_a-s_rint.o)
                              /usr/local/Cellar/gcc-arm-none-eabi/20140805/bin/../lib/gcc/arm-none-eabi/4.8.4/../../../../arm-none-eabi/lib/armv7-m/libm.a(lib_a-w_pow.o) (rint)
/usr/local/Cellar/gcc-arm-none-eabi/20140805/bin/../lib/gcc/arm-none-eabi/4.8.4/../../../../arm-none-eabi/lib/armv7-m/libm.a(lib_a-s_scalbn.o)
                              /usr/local/Cellar/gcc-arm-none-eabi/20140805/bin/../lib/gcc/arm-none-eabi/4.8.4/../../../../arm-none-eabi/lib/armv7-m/libm.a(lib_a-e_pow.o) (scalbn)
/usr/local/Cellar/gcc-arm-none-eabi/20140805/bin/../lib/gcc/arm-none-eabi/4.8.4/../../../../arm-none-eabi/lib/armv7-m/libm.a(lib_a-s_copysign.o)
                              /usr/local/Cellar/gcc-arm-none-eabi/20140805/bin/../lib/gcc/arm-none-eabi/4.8.4/../../../../arm-none-eabi/lib/armv7-m/libm.a(lib_a-s_scalbn.o) (copysign)
/usr/local/Cellar/gcc-arm-none-eabi/20140805/bin/../lib/gcc/arm-none-eabi/4.8.4/armv7-m/libgcc.a(_arm_addsubdf3.o)
                              contiki-srf06-cc26xx.a(hdc-1000-sensor) (__aeabi_dsub)
/usr/local/Cellar/gcc-arm-none-eabi/20140805/bin/../lib/gcc/arm-none-eabi/4.8.4/armv7-m/libgcc.a(_arm_muldivdf3.o)
                              contiki-srf06-cc26xx.a(opt-3001-sensor) (__aeabi_dmul)
/usr/local/Cellar/gcc-arm-none-eabi/20140805/bin/../lib/gcc/arm-none-eabi/4.8.4/armv7-m/libgcc.a(_arm_cmpdf2.o)
                              /usr/local/Cellar/gcc-arm-none-eabi/20140805/bin/../lib/gcc/arm-none-eabi/4.8.4/../../../../arm-none-eabi/lib/armv7-m/libm.a(lib_a-w_pow.o) (__aeabi_dcmpeq)
/usr/local/Cellar/gcc-arm-none-eabi/20140805/bin/../lib/gcc/arm-none-eabi/4.8.4/armv7-m/libgcc.a(_arm_truncdfsf2.o)
                              contiki-srf06-cc26xx.a(opt-3001-sensor) (__aeabi_d2f)
/usr/local/Cellar/gcc-arm-none-eabi/20140805/bin/../lib/gcc/arm-none-eabi/4.8.4/armv7-m/libgcc.a(_arm_addsubsf3.o)
                              contiki-srf06-cc26xx.a(tmp-007-sensor.) (__aeabi_i2f)
/usr/local/Cellar/gcc-arm-none-eabi/20140805/bin/../lib/gcc/arm-none-eabi/4.8.4/armv7-m/libgcc.a(_arm_muldivsf3.o)
                              contiki-srf06-cc26xx.a(tmp-007-sensor.) (__aeabi_fmul)
/usr/local/Cellar/gcc-arm-none-eabi/20140805/bin/../lib/gcc/arm-none-eabi/4.8.4/armv7-m/libgcc.a(_arm_fixsfsi.o)
                              contiki-srf06-cc26xx.a(tmp-007-sensor.) (__aeabi_f2iz)
/usr/local/Cellar/gcc-arm-none-eabi/20140805/bin/../lib/gcc/arm-none-eabi/4.8.4/armv7-m/libgcc.a(_aeabi_uldivmod.o)
                              contiki-srf06-cc26xx.a(strformat.o) (__aeabi_uldivmod)
/usr/local/Cellar/gcc-arm-none-eabi/20140805/bin/../lib/gcc/arm-none-eabi/4.8.4/armv7-m/libgcc.a(bpabi.o)
                              /usr/local/Cellar/gcc-arm-none-eabi/20140805/bin/../lib/gcc/arm-none-eabi/4.8.4/armv7-m/libgcc.a(_aeabi_uldivmod.o) (__gnu_uldivmod_helper)
/usr/local/Cellar/gcc-arm-none-eabi/20140805/bin/../lib/gcc/arm-none-eabi/4.8.4/armv7-m/libgcc.a(_dvmd_tls.o)
                              /usr/local/Cellar/gcc-arm-none-eabi/20140805/bin/../lib/gcc/arm-none-eabi/4.8.4/armv7-m/libgcc.a(_aeabi_uldivmod.o) (__aeabi_ldiv0)
/usr/local/Cellar/gcc-arm-none-eabi/20140805/bin/../lib/gcc/arm-none-eabi/4.8.4/armv7-m/libgcc.a(_divdi3.o)
                              /usr/local/Cellar/gcc-arm-none-eabi/20140805/bin/../lib/gcc/arm-none-eabi/4.8.4/armv7-m/libgcc.a(bpabi.o) (__divdi3)
/usr/local/Cellar/gcc-arm-none-eabi/20140805/bin/../lib/gcc/arm-none-eabi/4.8.4/armv7-m/libgcc.a(_udivdi3.o)
                              /usr/local/Cellar/gcc-arm-none-eabi/20140805/bin/../lib/gcc/arm-none-eabi/4.8.4/armv7-m/libgcc.a(bpabi.o) (__udivdi3)
/usr/local/Cellar/gcc-arm-none-eabi/20140805/bin/../lib/gcc/arm-none-eabi/4.8.4/../../../../arm-none-eabi/lib/armv7-m/libc.a(lib_a-errno.o)
                              /usr/local/Cellar/gcc-arm-none-eabi/20140805/bin/../lib/gcc/arm-none-eabi/4.8.4/../../../../arm-none-eabi/lib/armv7-m/libm.a(lib_a-w_pow.o) (__errno)
/usr/local/Cellar/gcc-arm-none-eabi/20140805/bin/../lib/gcc/arm-none-eabi/4.8.4/../../../../arm-none-eabi/lib/armv7-m/libc.a(lib_a-impure.o)
                              /usr/local/Cellar/gcc-arm-none-eabi/20140805/bin/../lib/gcc/arm-none-eabi/4.8.4/../../../../arm-none-eabi/lib/armv7-m/libc.a(lib_a-errno.o) (_impure_ptr)
/usr/local/Cellar/gcc-arm-none-eabi/20140805/bin/../lib/gcc/arm-none-eabi/4.8.4/../../../../arm-none-eabi/lib/armv7-m/libc.a(lib_a-memcmp.o)
                              contiki-srf06-cc26xx.a(sicslowpan.o) (memcmp)
/usr/local/Cellar/gcc-arm-none-eabi/20140805/bin/../lib/gcc/arm-none-eabi/4.8.4/../../../../arm-none-eabi/lib/armv7-m/libc.a(lib_a-memcpy.o)
                              contiki-srf06-cc26xx.a(ieee-mode.o) (memcpy)
/usr/local/Cellar/gcc-arm-none-eabi/20140805/bin/../lib/gcc/arm-none-eabi/4.8.4/../../../../arm-none-eabi/lib/armv7-m/libc.a(lib_a-memmove.o)
                              contiki-srf06-cc26xx.a(sicslowpan.o) (memmove)
/usr/local/Cellar/gcc-arm-none-eabi/20140805/bin/../lib/gcc/arm-none-eabi/4.8.4/../../../../arm-none-eabi/lib/armv7-m/libc.a(lib_a-memset.o)
                              contiki-srf06-cc26xx.a(ieee-mode.o) (memset)
/usr/local/Cellar/gcc-arm-none-eabi/20140805/bin/../lib/gcc/arm-none-eabi/4.8.4/../../../../arm-none-eabi/lib/armv7-m/libc.a(lib_a-rand.o)
                              contiki-srf06-cc26xx.a(random.o) (srand)
/usr/local/Cellar/gcc-arm-none-eabi/20140805/bin/../lib/gcc/arm-none-eabi/4.8.4/../../../../arm-none-eabi/lib/armv7-m/libc.a(lib_a-strlen.o)
                              contiki-srf06-cc26xx.a(sensors.o) (strlen)
/usr/local/Cellar/gcc-arm-none-eabi/20140805/bin/../lib/gcc/arm-none-eabi/4.8.4/../../../../arm-none-eabi/lib/armv7-m/libc.a(lib_a-strncmp.o)
                              contiki-srf06-cc26xx.a(sensors.o) (strncmp)

Allocating common symbols
Common symbol       size              file

uip_ds6_timer_ra    0x8               contiki-srf06-cc26xx.a(uip-ds6.o)
uip_ds6_if          0xf8              contiki-srf06-cc26xx.a(uip-ds6.o)
uip_ds6_netif_addr_list_offset
                    0x1               contiki-srf06-cc26xx.a(uip-ds6.o)
uip_len             0x2               contiki-srf06-cc26xx.a(uip6.o)
uip_ds6_addr_size   0x1               contiki-srf06-cc26xx.a(uip-ds6.o)
uip_sappdata        0x4               contiki-srf06-cc26xx.a(uip6.o)
packetbuf_addrs     0x10              contiki-srf06-cc26xx.a(packetbuf.o)
uip_acc32           0x4               contiki-srf06-cc26xx.a(uip6.o)
uip_ds6_prefix_list
                    0x60              contiki-srf06-cc26xx.a(uip-ds6.o)
frag_sender         0x8               contiki-srf06-cc26xx.a(sicslowpan.o)
uip_lladdr          0x8               contiki-srf06-cc26xx.a(uip6.o)
uip_aligned_buf     0x3e8             contiki-srf06-cc26xx.a(uip6.o)
uip_flags           0x1               contiki-srf06-cc26xx.a(uip6.o)
uip_ds6_timer_periodic
                    0x10              contiki-srf06-cc26xx.a(uip-ds6.o)
uip_next_hdr        0x4               contiki-srf06-cc26xx.a(uip6.o)
linkaddr_node_addr  0x8               contiki-srf06-cc26xx.a(linkaddr.o)
default_instance    0x4               contiki-srf06-cc26xx.a(rpl-dag.o)
uip_udp_conn        0x4               contiki-srf06-cc26xx.a(uip6.o)
packetbuf_attrs     0x1e              contiki-srf06-cc26xx.a(packetbuf.o)
instance_table      0x150             contiki-srf06-cc26xx.a(rpl-dag.o)
uip_appdata         0x4               contiki-srf06-cc26xx.a(uip6.o)
uip_conn            0x4               contiki-srf06-cc26xx.a(uip6.o)
tcpip_event         0x1               contiki-srf06-cc26xx.a(tcpip.o)
uip_conns           0x1e0             contiki-srf06-cc26xx.a(uip6.o)
uip_icmp6_conns     0x8               contiki-srf06-cc26xx.a(uip6.o)
t0                  0x4               contiki-srf06-cc26xx.a(mpu-9250-sensor)
uip_listenports     0x28              contiki-srf06-cc26xx.a(uip6.o)
sensors_flags       0x9               contiki-srf06-cc26xx.a(sensortag-senso)
serial_line_event_message
                    0x1               contiki-srf06-cc26xx.a(serial-line.o)
sensors_event       0x1               contiki-srf06-cc26xx.a(sensors.o)
tcpip_icmp6_event   0x1               contiki-srf06-cc26xx.a(tcpip.o)
uip_slen            0x2               contiki-srf06-cc26xx.a(uip6.o)
uip_udp_conns       0x140             contiki-srf06-cc26xx.a(uip6.o)

Discarded input sections

 .text          0x0000000000000000        0x0 obj_srf06-cc26xx/fault-handlers.o
 .data          0x0000000000000000        0x0 obj_srf06-cc26xx/fault-handlers.o
 .bss           0x0000000000000000        0x0 obj_srf06-cc26xx/fault-handlers.o
 .text          0x0000000000000000        0x0 obj_srf06-cc26xx/ccfg.o
 .data          0x0000000000000000        0x0 obj_srf06-cc26xx/ccfg.o
 .bss           0x0000000000000000        0x0 obj_srf06-cc26xx/ccfg.o
 .text          0x0000000000000000        0x0 obj_srf06-cc26xx/startup_gcc.o
 .data          0x0000000000000000        0x0 obj_srf06-cc26xx/startup_gcc.o
 .bss           0x0000000000000000        0x0 obj_srf06-cc26xx/startup_gcc.o
 .text.FaultISRHandler
                0x0000000000000000        0x4 obj_srf06-cc26xx/startup_gcc.o
 .text          0x0000000000000000        0x0 hello-world.co
 .data          0x0000000000000000        0x0 hello-world.co
 .bss           0x0000000000000000        0x0 hello-world.co
 .text          0x0000000000000000        0x0 contiki-srf06-cc26xx.a(contiki-main.o)
 .data          0x0000000000000000        0x0 contiki-srf06-cc26xx.a(contiki-main.o)
 .bss           0x0000000000000000        0x0 contiki-srf06-cc26xx.a(contiki-main.o)
 .text          0x0000000000000000        0x0 contiki-srf06-cc26xx.a(sensors.o)
Memory Configuration

Name             Origin             Length             Attributes
FLASH            0x0000000000000000 0x000000000001ffa8 xr
FLASH_CCFG       0x000000000001ffa8 0x0000000000000058 xr
SRAM             0x0000000020000000 0x0000000000005000 xrw
GPRAM            0x0000000011000000 0x0000000000002000 xrw
*default*        0x0000000000000000 0xffffffffffffffff

Linker script and memory map

LOAD obj_srf06-cc26xx/fault-handlers.o
LOAD obj_srf06-cc26xx/ccfg.o
LOAD obj_srf06-cc26xx/startup_gcc.o
LOAD hello-world.co
LOAD contiki-srf06-cc26xx.a
LOAD /usr/local/Cellar/gcc-arm-none-eabi/20140805/bin/../lib/gcc/arm-none-eabi/4.8.4/../../../../arm-none-eabi/lib/armv7-m/libm.a
START GROUP
LOAD /usr/local/Cellar/gcc-arm-none-eabi/20140805/bin/../lib/gcc/arm-none-eabi/4.8.4/armv7-m/libgcc.a
LOAD /usr/local/Cellar/gcc-arm-none-eabi/20140805/bin/../lib/gcc/arm-none-eabi/4.8.4/../../../../arm-none-eabi/lib/armv7-m/libc.a
END GROUP
                0x0000000020005000                _estack = (ORIGIN (SRAM) + 0x5000)
                0x0000000000000000                _Min_Heap_Size = 0x0
                0x0000000000000100                _Min_Stack_Size = 0x100

.text           0x0000000000000000     0xfe40
                0x0000000000000000                _text = .
 *(SORT(.vectors))
 .vectors       0x0000000000000000       0xc8 obj_srf06-cc26xx/startup_gcc.o
                0x0000000000000000                gVectors
 *(SORT(.text*))
 .text.value    0x00000000000000c8       0xa8 contiki-srf06-cc26xx.a(opt-3001-sensor)
 .text.value    0x0000000000000170       0xa0 contiki-srf06-cc26xx.a(hdc-1000-sensor)
 .text.value    0x0000000000000210      0x1b8 contiki-srf06-cc26xx.a(mpu-9250-sensor)
 .text.__ieee754_pow
                0x00000000000003c8      0xab8 /usr/local/Cellar/gcc-arm-none-eabi/20140805/bin/../lib/gcc/arm-none-eabi/4.8.4/../../../../arm-none-eabi/lib/armv7-m/libm.a(lib_a-e_pow.o)
                0x00000000000003c8                __ieee754_pow
 .text.scalbn   0x0000000000000e80      0x100 /usr/local/Cellar/gcc-arm-none-eabi/20140805/bin/../lib/gcc/arm-none-eabi/4.8.4/../../../../arm-none-eabi/lib/armv7-m/libm.a(lib_a-s_scalbn.o)
                0x0000000000000e80                scalbn
 .text.FaultISR
                0x0000000000000f80       0x18 obj_srf06-cc26xx/fault-handlers.o
                0x0000000000000f80                FaultISR
 .text.NmiSRHandler
                0x0000000000000f98        0x4 obj_srf06-cc26xx/startup_gcc.o
                0x0000000000000f98                NmiSR
 .text.IntDefaultHandler
                0x0000000000000f9c        0x4 obj_srf06-cc26xx/startup_gcc.o
                0x0000000000000f9c                Timer3BIntHandler
                0x0000000000000f9c                SSI0IntHandler
                0x0000000000000f9c                SWEvent0IntHandler
                0x0000000000000f9c                uDMAIntHandler
                0x0000000000000f9c                WatchdogIntHandler
                0x0000000000000f9c                RFCHardwareIntHandler
                0x0000000000000f9c                Timer1BIntHandler
                0x0000000000000f9c                I2SIntHandler
                0x0000000000000f9c                Timer2BIntHandler
                0x0000000000000f9c                Timer2AIntHandler
                0x0000000000000f9c                Timer1AIntHandler
                0x0000000000000f9c                AONIntHandler
                0x0000000000000f9c                AUXSWEvent0IntHandler
                0x0000000000000f9c                AUXADCIntHandler
                0x0000000000000f9c                PendSVIntHandler
                0x0000000000000f9c                AUXSWEvent1IntHandler
                0x0000000000000f9c                SVCallIntHandler
                0x0000000000000f9c                MPUFaultIntHandler
                0x0000000000000f9c                SysTickIntHandler
                0x0000000000000f9c                BusFaultIntHandler
                0x0000000000000f9c                AONProgIntHandler
                0x0000000000000f9c                AUXCompAIntHandler
                0x0000000000000f9c                SSI1IntHandler
                0x0000000000000f9c                FlashIntHandler
                0x0000000000000f9c                uDMAErrIntHandler
                0x0000000000000f9c                UsageFaultIntHandler
                0x0000000000000f9c                RFCCmdAckIntHandler
                0x0000000000000f9c                CryptoIntHandler
                0x0000000000000f9c                Timer0AIntHandler
                0x0000000000000f9c                I2CIntHandler
                0x0000000000000f9c                DebugMonIntHandler
                0x0000000000000f9c                Timer0BIntHandler
                0x0000000000000f9c                AUXCombEventIntHandler
                0x0000000000000f9c                Timer3AIntHandler
                0x0000000000000f9c                DynProgIntHandler
                0x0000000000000f9c                TRNGIntHandler
 .text.ResetISR
                0x0000000000000fa0       0x58 obj_srf06-cc26xx/startup_gcc.o
                0x0000000000000fa0                ResetISR
 .text.process_thread_receive
                0x0000000000000ff8       0x34 hello-world.co
 .text.rx_callback
                0x000000000000102c        0xc hello-world.co
                0x000000000000102c                rx_callback
 .text.fade     0x0000000000001038       0x64 contiki-srf06-cc26xx.a(contiki-main.o)
 .text.startup.main
                0x000000000000109c      0x1e4 contiki-srf06-cc26xx.a(contiki-main.o)
                0x000000000000109c                main
 .text.process_thread_sensors_process
                0x0000000000001280       0xf0 contiki-srf06-cc26xx.a(sensors.o)
 .text.sensors_changed
                0x0000000000001370       0x4c contiki-srf06-cc26xx.a(sensors.o)
                0x0000000000001370                sensors_changed
 .text.leds_init
                0x00000000000013bc       0x14 contiki-srf06-cc26xx.a(leds.o)
                0x00000000000013bc                leds_init
 .text.leds_on  0x00000000000013d0       0x14 contiki-srf06-cc26xx.a(leds.o)
                0x00000000000013d0                leds_on
 .text.leds_off
                0x00000000000013e4       0x14 contiki-srf06-cc26xx.a(leds.o)
                0x00000000000013e4                leds_off
 .text.leds_arch_init
                0x00000000000013f8       0x34 contiki-srf06-cc26xx.a(leds-arch.o)
                0x00000000000013f8                leds_arch_init
 .text.leds_arch_set
                0x000000000000142c       0x34 contiki-srf06-cc26xx.a(leds-arch.o)
                0x000000000000142c                leds_arch_set
 .text.status   0x0000000000001460       0x14 contiki-srf06-cc26xx.a(bmp-280-sensor.)
 .text.notify_ready
                0x0000000000001474       0x14 contiki-srf06-cc26xx.a(bmp-280-sensor.)
 .text.enable_sensor
                0x0000000000001488       0x2c contiki-srf06-cc26xx.a(bmp-280-sensor.)
 .text.configure
                0x00000000000014b4       0x94 contiki-srf06-cc26xx.a(bmp-280-sensor.)
 .text.value    0x0000000000001548      0x164 contiki-srf06-cc26xx.a(bmp-280-sensor.)
 .text.status   0x00000000000016ac       0x14 contiki-srf06-cc26xx.a(tmp-007-sensor.)
 .text.notify_ready
                0x00000000000016c0       0x14 contiki-srf06-cc26xx.a(tmp-007-sensor.)
 .text.enable_sensor
                0x00000000000016d4       0x2c contiki-srf06-cc26xx.a(tmp-007-sensor.)
 .text.configure
                0x0000000000001700       0x94 contiki-srf06-cc26xx.a(tmp-007-sensor.)
 .text.value    0x0000000000001794       0xec contiki-srf06-cc26xx.a(tmp-007-sensor.)
 .text.status   0x0000000000001880        0xc contiki-srf06-cc26xx.a(opt-3001-sensor)
 .text.enable_sensor
                0x000000000000188c       0x44 contiki-srf06-cc26xx.a(opt-3001-sensor)
 .text.notify_ready
                0x00000000000018d0       0x54 contiki-srf06-cc26xx.a(opt-3001-sensor)
 .text.configure
                0x0000000000001924       0x4c contiki-srf06-cc26xx.a(opt-3001-sensor)
 .text.status   0x0000000000001970       0x14 contiki-srf06-cc26xx.a(hdc-1000-sensor)
 .text.notify_ready
                0x0000000000001984       0x60 contiki-srf06-cc26xx.a(hdc-1000-sensor)
 .text.configure
                0x00000000000019e4       0xb8 contiki-srf06-cc26xx.a(hdc-1000-sensor)
 .text.acc_convert
                0x0000000000001a9c       0x70 contiki-srf06-cc26xx.a(mpu-9250-sensor)
 .text.status   0x0000000000001b0c       0x14 contiki-srf06-cc26xx.a(mpu-9250-sensor)
 .text.notify_ready
                0x0000000000001b20       0x14 contiki-srf06-cc26xx.a(mpu-9250-sensor)
 .text.sensor_sleep
                0x0000000000001b34       0x38 contiki-srf06-cc26xx.a(mpu-9250-sensor)
 .text.configure
                0x0000000000001b6c       0xdc contiki-srf06-cc26xx.a(mpu-9250-sensor)
 .text.int_status
                0x0000000000001c48       0x28 contiki-srf06-cc26xx.a(mpu-9250-sensor)
 .text.initialise
                0x0000000000001c70       0xf4 contiki-srf06-cc26xx.a(mpu-9250-sensor)
 .text.status.part.0
                0x0000000000001d64       0x14 contiki-srf06-cc26xx.a(button-sensor.o)
 .text.value_left
                0x0000000000001d78       0x24 contiki-srf06-cc26xx.a(button-sensor.o)
 .text.value_right
                0x0000000000001d9c       0x18 contiki-srf06-cc26xx.a(button-sensor.o)
 .text.status_left
                0x0000000000001db4       0x10 contiki-srf06-cc26xx.a(button-sensor.o)
 .text.status_right
                0x0000000000001dc4       0x10 contiki-srf06-cc26xx.a(button-sensor.o)
 .text.config_buttons
                0x0000000000001dd4       0x88 contiki-srf06-cc26xx.a(button-sensor.o)
 .text.config_left
                0x0000000000001e5c        0xc contiki-srf06-cc26xx.a(button-sensor.o)
 .text.config_right
                0x0000000000001e68        0xc contiki-srf06-cc26xx.a(button-sensor.o)
 .text.button_press_handler
                0x0000000000001e74       0x64 contiki-srf06-cc26xx.a(button-sensor.o)
 .text.value    0x0000000000001ed8       0x10 contiki-srf06-cc26xx.a(reed-relay.o)
 .text.status   0x0000000000001ee8       0x20 contiki-srf06-cc26xx.a(reed-relay.o)
 .text.configure
                0x0000000000001f08       0x6c contiki-srf06-cc26xx.a(reed-relay.o)
 .text.reed_interrupt_handler
                0x0000000000001f74       0x28 contiki-srf06-cc26xx.a(reed-relay.o)
 .text.power_domains_on
                0x0000000000001f9c       0x20 contiki-srf06-cc26xx.a(board.o)
 .text.lpm_wakeup_handler
                0x0000000000001fbc        0x4 contiki-srf06-cc26xx.a(board.o)
 .text.shutdown_handler
                0x0000000000001fc0       0x6c contiki-srf06-cc26xx.a(board.o)
 .text.board_init
                0x000000000000202c      0x118 contiki-srf06-cc26xx.a(board.o)
                0x000000000000202c                board_init
 .text.i2c_status
                0x0000000000002144       0x38 contiki-srf06-cc26xx.a(board-i2c.o)
 .text.accessible
                0x000000000000217c       0x24 contiki-srf06-cc26xx.a(board-i2c.o)
 .text.board_i2c_wakeup
                0x00000000000021a0       0x5c contiki-srf06-cc26xx.a(board-i2c.o)
                0x00000000000021a0                board_i2c_wakeup
 .text.board_i2c_shutdown
                0x00000000000021fc       0xa4 contiki-srf06-cc26xx.a(board-i2c.o)
                0x00000000000021fc                board_i2c_shutdown
 .text.board_i2c_write
                0x00000000000022a0       0xd0 contiki-srf06-cc26xx.a(board-i2c.o)
                0x00000000000022a0                board_i2c_write
 .text.board_i2c_write_single
                0x0000000000002370       0x44 contiki-srf06-cc26xx.a(board-i2c.o)
                0x0000000000002370                board_i2c_write_single
 .text.board_i2c_read
                0x00000000000023b4       0xb4 contiki-srf06-cc26xx.a(board-i2c.o)
                0x00000000000023b4                board_i2c_read
 .text.board_i2c_write_read
                0x0000000000002468      0x14c contiki-srf06-cc26xx.a(board-i2c.o)
                0x0000000000002468                board_i2c_write_read
 .text.board_i2c_select
                0x00000000000025b4       0xd0 contiki-srf06-cc26xx.a(board-i2c.o)
                0x00000000000025b4                board_i2c_select
 .text.power_domain_on
                0x0000000000002684       0x20 contiki-srf06-cc26xx.a(clock.o)
 .text.clock_init
                0x00000000000026a4       0x90 contiki-srf06-cc26xx.a(clock.o)
                0x00000000000026a4                clock_init
 .text.clock_time
                0x0000000000002734       0x34 contiki-srf06-cc26xx.a(clock.o)
                0x0000000000002734                clock_time
 .text.clock_update
                0x0000000000002768       0x3c contiki-srf06-cc26xx.a(clock.o)
                0x0000000000002768                clock_update
 .text.clock_seconds
                0x00000000000027a4       0x18 contiki-srf06-cc26xx.a(clock.o)
                0x00000000000027a4                clock_seconds
 .text.rtimer_arch_init
                0x00000000000027bc        0x4 contiki-srf06-cc26xx.a(rtimer-arch.o)
                0x00000000000027bc                rtimer_arch_init
 .text.rtimer_arch_schedule
                0x00000000000027c0        0x8 contiki-srf06-cc26xx.a(rtimer-arch.o)
                0x00000000000027c0                rtimer_arch_schedule
 .text.rtimer_arch_now
                0x00000000000027c8        0x4 contiki-srf06-cc26xx.a(rtimer-arch.o)
                0x00000000000027c8                rtimer_arch_now
 .text.soc_rtc_init
                0x00000000000027cc       0x94 contiki-srf06-cc26xx.a(soc-rtc.o)
                0x00000000000027cc                soc_rtc_init
 .text.soc_rtc_get_next_trigger
                0x0000000000002860       0x28 contiki-srf06-cc26xx.a(soc-rtc.o)
                0x0000000000002860                soc_rtc_get_next_trigger
 .text.soc_rtc_schedule_one_shot
                0x0000000000002888       0x40 contiki-srf06-cc26xx.a(soc-rtc.o)
                0x0000000000002888                soc_rtc_schedule_one_shot
 .text.soc_rtc_last_isr_time
                0x00000000000028c8        0xc contiki-srf06-cc26xx.a(soc-rtc.o)
                0x00000000000028c8                soc_rtc_last_isr_time
 .text.AONRTCIntHandler
                0x00000000000028d4       0x68 contiki-srf06-cc26xx.a(soc-rtc.o)
                0x00000000000028d4                AONRTCIntHandler
 .text.lock_config
                0x000000000000293c       0x18 contiki-srf06-cc26xx.a(contiki-watchdo)
 .text.unlock_config
                0x0000000000002954       0x2c contiki-srf06-cc26xx.a(contiki-watchdo)
 .text.watchdog_init
                0x0000000000002980       0x1c contiki-srf06-cc26xx.a(contiki-watchdo)
                0x0000000000002980                watchdog_init
 .text.watchdog_start
                0x000000000000299c       0x30 contiki-srf06-cc26xx.a(contiki-watchdo)
                0x000000000000299c                watchdog_start
 .text.watchdog_periodic
                0x00000000000029cc       0x1c contiki-srf06-cc26xx.a(contiki-watchdo)
                0x00000000000029cc                watchdog_periodic
 .text.putchar  0x00000000000029e8       0x10 contiki-srf06-cc26xx.a(putchar.o)
                0x00000000000029e8                putchar
 .text.puts     0x00000000000029f8       0x2c contiki-srf06-cc26xx.a(putchar.o)
                0x00000000000029f8                puts
 .text.dbg_send_bytes
                0x0000000000002a24       0x40 contiki-srf06-cc26xx.a(putchar.o)
                0x0000000000002a24                dbg_send_bytes
 .text.ieee_addr_cpy_to
                0x0000000000002a64       0x44 contiki-srf06-cc26xx.a(ieee-addr.o)
                0x0000000000002a64                ieee_addr_cpy_to
 .text.power_and_clock
                0x0000000000002aa8       0x40 contiki-srf06-cc26xx.a(cc26xx-uart.o)
 .text.enable   0x0000000000002ae8       0xec contiki-srf06-cc26xx.a(cc26xx-uart.o)
 .text.accessible
                0x0000000000002bd4       0x24 contiki-srf06-cc26xx.a(cc26xx-uart.o)
 .text.lpm_drop_handler
                0x0000000000002bf8       0xcc contiki-srf06-cc26xx.a(cc26xx-uart.o)
 .text.cc26xx_uart_init
                0x0000000000002cc4       0x28 contiki-srf06-cc26xx.a(cc26xx-uart.o)
                0x0000000000002cc4                cc26xx_uart_init
 .text.cc26xx_uart_write_byte
                0x0000000000002cec       0x24 contiki-srf06-cc26xx.a(cc26xx-uart.o)
                0x0000000000002cec                cc26xx_uart_write_byte
 .text.cc26xx_uart_set_input
                0x0000000000002d10       0x64 contiki-srf06-cc26xx.a(cc26xx-uart.o)
                0x0000000000002d10                cc26xx_uart_set_input
 .text.cc26xx_uart_busy
                0x0000000000002d74       0x18 contiki-srf06-cc26xx.a(cc26xx-uart.o)
                0x0000000000002d74                cc26xx_uart_busy
 .text.UART0IntHandler
                0x0000000000002d8c       0x54 contiki-srf06-cc26xx.a(cc26xx-uart.o)
                0x0000000000002d8c                UART0IntHandler
 .text.lpm_shutdown
                0x0000000000002de0      0x1b4 contiki-srf06-cc26xx.a(lpm.o)
                0x0000000000002de0                lpm_shutdown
 .text.lpm_drop
                0x0000000000002f94      0x1e4 contiki-srf06-cc26xx.a(lpm.o)
                0x0000000000002f94                lpm_drop
 .text.lpm_sleep
                0x0000000000003178       0x14 contiki-srf06-cc26xx.a(lpm.o)
                0x0000000000003178                lpm_sleep
 .text.lpm_register_module
                0x000000000000318c        0xc contiki-srf06-cc26xx.a(lpm.o)
                0x000000000000318c                lpm_register_module
 .text.lpm_unregister_module
                0x0000000000003198        0xc contiki-srf06-cc26xx.a(lpm.o)
                0x0000000000003198                lpm_unregister_module
 .text.lpm_init
                0x00000000000031a4       0x20 contiki-srf06-cc26xx.a(lpm.o)
                0x00000000000031a4                lpm_init
 .text.lpm_pin_set_default_state
                0x00000000000031c4       0x30 contiki-srf06-cc26xx.a(lpm.o)
                0x00000000000031c4                lpm_pin_set_default_state
 .text.gpio_interrupt_register_handler
                0x00000000000031f4       0x2c contiki-srf06-cc26xx.a(gpio-interrupt.)
                0x00000000000031f4                gpio_interrupt_register_handler
 .text.gpio_interrupt_init
                0x0000000000003220       0x28 contiki-srf06-cc26xx.a(gpio-interrupt.)
                0x0000000000003220                gpio_interrupt_init
 .text.GPIOIntHandler
                0x0000000000003248       0x30 contiki-srf06-cc26xx.a(gpio-interrupt.)
                0x0000000000003248                GPIOIntHandler
 .text.osc_interface_dis
                0x0000000000003278       0x28 contiki-srf06-cc26xx.a(oscillators.o)
 .text.osc_interface_en
                0x00000000000032a0       0x30 contiki-srf06-cc26xx.a(oscillators.o)
 .text.oscillators_select_lf_xosc
                0x00000000000032d0       0x48 contiki-srf06-cc26xx.a(oscillators.o)
                0x00000000000032d0                oscillators_select_lf_xosc
 .text.oscillators_select_lf_rcosc
                0x0000000000003318       0x30 contiki-srf06-cc26xx.a(oscillators.o)
                0x0000000000003318                oscillators_select_lf_rcosc
 .text.oscillators_request_hf_xosc
                0x0000000000003348       0x24 contiki-srf06-cc26xx.a(oscillators.o)
                0x0000000000003348                oscillators_request_hf_xosc
 .text.oscillators_switch_to_hf_xosc
                0x000000000000336c       0x28 contiki-srf06-cc26xx.a(oscillators.o)
                0x000000000000336c                oscillators_switch_to_hf_xosc
 .text.oscillators_switch_to_hf_rc
                0x0000000000003394       0x2c contiki-srf06-cc26xx.a(oscillators.o)
                0x0000000000003394                oscillators_switch_to_hf_rc
 .text.request  0x00000000000033c0       0x20 contiki-srf06-cc26xx.a(ieee-mode.o)
 .text.rx_on    0x00000000000033e0       0x5c contiki-srf06-cc26xx.a(ieee-mode.o)
 .text.rf_radio_setup
                0x000000000000343c       0x70 contiki-srf06-cc26xx.a(ieee-mode.o)
 .text.soft_on  0x00000000000034ac       0x18 contiki-srf06-cc26xx.a(ieee-mode.o)
 .text.pending_packet
                0x00000000000034c4       0x34 contiki-srf06-cc26xx.a(ieee-mode.o)
 .text.prepare  0x00000000000034f8       0x1c contiki-srf06-cc26xx.a(ieee-mode.o)
 .text.read_frame
                0x0000000000003514       0x58 contiki-srf06-cc26xx.a(ieee-mode.o)
 .text.soft_off
                0x000000000000356c       0x3c contiki-srf06-cc26xx.a(ieee-mode.o)
 .text.get_object
                0x00000000000035a8       0x30 contiki-srf06-cc26xx.a(ieee-mode.o)
 .text.transmitting
                0x00000000000035d8       0x48 contiki-srf06-cc26xx.a(ieee-mode.o)
 .text.rx_off   0x0000000000003620       0x58 contiki-srf06-cc26xx.a(ieee-mode.o)
 .text.off      0x0000000000003678       0x4c contiki-srf06-cc26xx.a(ieee-mode.o)
 .text.get_cca_info
                0x00000000000036c4       0x44 contiki-srf06-cc26xx.a(ieee-mode.o)
 .text.receiving_packet
                0x0000000000003708       0x3c contiki-srf06-cc26xx.a(ieee-mode.o)
 .text.on       0x0000000000003744       0x9c contiki-srf06-cc26xx.a(ieee-mode.o)
 .text.set_value
                0x00000000000037e0      0x154 contiki-srf06-cc26xx.a(ieee-mode.o)
 .text.get_value
                0x0000000000003934      0x124 contiki-srf06-cc26xx.a(ieee-mode.o)
 .text.transmit
                0x0000000000003a58       0xbc contiki-srf06-cc26xx.a(ieee-mode.o)
 .text.send     0x0000000000003b14       0x24 contiki-srf06-cc26xx.a(ieee-mode.o)
 .text.set_object
                0x0000000000003b38       0x68 contiki-srf06-cc26xx.a(ieee-mode.o)
 .text.channel_clear
                0x0000000000003ba0       0x5c contiki-srf06-cc26xx.a(ieee-mode.o)
 .text.init     0x0000000000003bfc       0xe0 contiki-srf06-cc26xx.a(ieee-mode.o)
 .text.write_str
                0x0000000000003cdc       0x10 contiki-srf06-cc26xx.a(dbg-printf.o)
 .text.printf   0x0000000000003cec       0x24 contiki-srf06-cc26xx.a(dbg-printf.o)
                0x0000000000003cec                printf
 .text.fill_space
                0x0000000000003d10       0x30 contiki-srf06-cc26xx.a(strformat.o)
 .text.format_str_v
                0x0000000000003d40      0x8a8 contiki-srf06-cc26xx.a(strformat.o)
                0x0000000000003d40                format_str_v
 .text.autostart_start
                0x00000000000045e8       0x18 contiki-srf06-cc26xx.a(autostart.o)
                0x00000000000045e8                autostart_start
 .text.process_thread_ctimer_process
                0x0000000000004600       0x94 contiki-srf06-cc26xx.a(ctimer.o)
 .text.ctimer_init
                0x0000000000004694       0x28 contiki-srf06-cc26xx.a(ctimer.o)
                0x0000000000004694                ctimer_init
 .text.ctimer_set_with_process
                0x00000000000046bc       0x4c contiki-srf06-cc26xx.a(ctimer.o)
                0x00000000000046bc                ctimer_set_with_process
 .text.ctimer_set
                0x0000000000004708       0x18 contiki-srf06-cc26xx.a(ctimer.o)
                0x0000000000004708                ctimer_set
 .text.ctimer_reset
                0x0000000000004720       0x38 contiki-srf06-cc26xx.a(ctimer.o)
                0x0000000000004720                ctimer_reset
 .text.ctimer_stop
                0x0000000000004758       0x34 contiki-srf06-cc26xx.a(ctimer.o)
                0x0000000000004758                ctimer_stop
 .text.energest_init
                0x000000000000478c        0x4 contiki-srf06-cc26xx.a(energest.o)
                0x000000000000478c                energest_init
 .text.update_time
                0x0000000000004790       0x44 contiki-srf06-cc26xx.a(etimer.o)
 .text.process_thread_etimer_process
                0x00000000000047d4       0xc8 contiki-srf06-cc26xx.a(etimer.o)
 .text.add_timer
                0x000000000000489c       0x54 contiki-srf06-cc26xx.a(etimer.o)
 .text.etimer_request_poll
                0x00000000000048f0        0xc contiki-srf06-cc26xx.a(etimer.o)
                0x00000000000048f0                etimer_request_poll
 .text.etimer_set
                0x00000000000048fc       0x14 contiki-srf06-cc26xx.a(etimer.o)
                0x00000000000048fc                etimer_set
 .text.etimer_reset
                0x0000000000004910       0x14 contiki-srf06-cc26xx.a(etimer.o)
                0x0000000000004910                etimer_reset
 .text.etimer_restart
                0x0000000000004924       0x14 contiki-srf06-cc26xx.a(etimer.o)
                0x0000000000004924                etimer_restart
 .text.etimer_expired
                0x0000000000004938        0xc contiki-srf06-cc26xx.a(etimer.o)
                0x0000000000004938                etimer_expired
 .text.etimer_expiration_time
                0x0000000000004944        0x8 contiki-srf06-cc26xx.a(etimer.o)
                0x0000000000004944                etimer_expiration_time
 .text.etimer_pending
                0x000000000000494c       0x10 contiki-srf06-cc26xx.a(etimer.o)
                0x000000000000494c                etimer_pending
 .text.etimer_next_expiration_time
                0x000000000000495c       0x14 contiki-srf06-cc26xx.a(etimer.o)
                0x000000000000495c                etimer_next_expiration_time
 .text.etimer_stop
                0x0000000000004970       0x4c contiki-srf06-cc26xx.a(etimer.o)
                0x0000000000004970                etimer_stop
 .text.exit_process
                0x00000000000049bc       0xb0 contiki-srf06-cc26xx.a(process.o)
 .text.call_process.part.0
                0x0000000000004a6c       0x38 contiki-srf06-cc26xx.a(process.o)
 .text.do_poll  0x0000000000004aa4       0x3c contiki-srf06-cc26xx.a(process.o)
 .text.process_alloc_event
                0x0000000000004ae0       0x10 contiki-srf06-cc26xx.a(process.o)
                0x0000000000004ae0                process_alloc_event
 .text.process_init
                0x0000000000004af0       0x34 contiki-srf06-cc26xx.a(process.o)
                0x0000000000004af0                process_init
 .text.process_run
                0x0000000000004b24       0xe0 contiki-srf06-cc26xx.a(process.o)
                0x0000000000004b24                process_run
 .text.process_nevents
                0x0000000000004c04       0x14 contiki-srf06-cc26xx.a(process.o)
                0x0000000000004c04                process_nevents
 .text.process_post
                0x0000000000004c18       0x5c contiki-srf06-cc26xx.a(process.o)
                0x0000000000004c18                process_post
 .text.process_post_synch
                0x0000000000004c74       0x18 contiki-srf06-cc26xx.a(process.o)
                0x0000000000004c74                process_post_synch
 .text.process_start
                0x0000000000004c8c       0x40 contiki-srf06-cc26xx.a(process.o)
                0x0000000000004c8c                process_start
 .text.process_poll
                0x0000000000004ccc       0x18 contiki-srf06-cc26xx.a(process.o)
                0x0000000000004ccc                process_poll
 .text.rtimer_init
                0x0000000000004ce4        0x4 contiki-srf06-cc26xx.a(rtimer.o)
                0x0000000000004ce4                rtimer_init
 .text.rtimer_set
                0x0000000000004ce8       0x28 contiki-srf06-cc26xx.a(rtimer.o)
                0x0000000000004ce8                rtimer_set
 .text.rtimer_run_next
                0x0000000000004d10       0x28 contiki-srf06-cc26xx.a(rtimer.o)
                0x0000000000004d10                rtimer_run_next
 .text.timer_set
                0x0000000000004d38       0x10 contiki-srf06-cc26xx.a(timer.o)
                0x0000000000004d38                timer_set
 .text.timer_reset
                0x0000000000004d48        0xc contiki-srf06-cc26xx.a(timer.o)
                0x0000000000004d48                timer_reset
 .text.timer_restart
                0x0000000000004d54        0xc contiki-srf06-cc26xx.a(timer.o)
                0x0000000000004d54                timer_restart
 .text.timer_expired
                0x0000000000004d60       0x1c contiki-srf06-cc26xx.a(timer.o)
                0x0000000000004d60                timer_expired
 .text.process_thread_serial_line_process
                0x0000000000004d7c       0xac contiki-srf06-cc26xx.a(serial-line.o)
 .text.serial_line_init
                0x0000000000004e28       0x24 contiki-srf06-cc26xx.a(serial-line.o)
                0x0000000000004e28                serial_line_init
 .text.list_init
                0x0000000000004e4c        0x8 contiki-srf06-cc26xx.a(list.o)
                0x0000000000004e4c                list_init
 .text.list_head
                0x0000000000004e54        0x4 contiki-srf06-cc26xx.a(list.o)
                0x0000000000004e54                list_head
 .text.list_tail
                0x0000000000004e58       0x10 contiki-srf06-cc26xx.a(list.o)
                0x0000000000004e58                list_tail
 .text.list_add
                0x0000000000004e68       0x60 contiki-srf06-cc26xx.a(list.o)
                0x0000000000004e68                list_add
 .text.list_push
                0x0000000000004ec8       0x48 contiki-srf06-cc26xx.a(list.o)
                0x0000000000004ec8                list_push
 .text.list_remove
                0x0000000000004f10       0x40 contiki-srf06-cc26xx.a(list.o)
                0x0000000000004f10                list_remove
 .text.list_length
                0x0000000000004f50       0x14 contiki-srf06-cc26xx.a(list.o)
                0x0000000000004f50                list_length
 .text.list_item_next
                0x0000000000004f64        0x8 contiki-srf06-cc26xx.a(list.o)
                0x0000000000004f64                list_item_next
 .text.random_init
                0x0000000000004f6c        0x4 contiki-srf06-cc26xx.a(random.o)
                0x0000000000004f6c                random_init
 .text.random_rand
                0x0000000000004f70        0xc contiki-srf06-cc26xx.a(random.o)
                0x0000000000004f70                random_rand
 .text.ringbuf_init
                0x0000000000004f7c       0x10 contiki-srf06-cc26xx.a(ringbuf.o)
                0x0000000000004f7c                ringbuf_init
 .text.ringbuf_get
                0x0000000000004f8c       0x28 contiki-srf06-cc26xx.a(ringbuf.o)
                0x0000000000004f8c                ringbuf_get
 .text.sicslowpan_init
                0x0000000000004fb4       0x24 contiki-srf06-cc26xx.a(sicslowpan.o)
                0x0000000000004fb4                sicslowpan_init
 .text.set_packet_attrs
                0x0000000000004fd8       0x4c contiki-srf06-cc26xx.a(sicslowpan.o)
 .text.compress_addr_64
                0x0000000000005024       0x9c contiki-srf06-cc26xx.a(sicslowpan.o)
 .text.addr_context_lookup_by_prefix
                0x00000000000050c0       0x28 contiki-srf06-cc26xx.a(sicslowpan.o)
 .text.send_packet
                0x00000000000050e8       0x24 contiki-srf06-cc26xx.a(sicslowpan.o)
 .text.packet_sent
                0x000000000000510c       0x28 contiki-srf06-cc26xx.a(sicslowpan.o)
 .text.uncompress_addr
                0x0000000000005134       0x8c contiki-srf06-cc26xx.a(sicslowpan.o)
 .text.input    0x00000000000051c0      0x704 contiki-srf06-cc26xx.a(sicslowpan.o)
 .text.output   0x00000000000058c4      0x734 contiki-srf06-cc26xx.a(sicslowpan.o)
 .text.uip_ds6_nbr_rm
                0x0000000000005ff8       0x20 contiki-srf06-cc26xx.a(uip-ds6-nbr.o)
                0x0000000000005ff8                uip_ds6_nbr_rm
 .text.uip_ds6_neighbors_init
                0x0000000000006018       0x14 contiki-srf06-cc26xx.a(uip-ds6-nbr.o)
                0x0000000000006018                uip_ds6_neighbors_init
 .text.uip_ds6_nbr_add
                0x000000000000602c       0x50 contiki-srf06-cc26xx.a(uip-ds6-nbr.o)
                0x000000000000602c                uip_ds6_nbr_add
 .text.uip_ds6_nbr_get_ll
                0x000000000000607c       0x10 contiki-srf06-cc26xx.a(uip-ds6-nbr.o)
                0x000000000000607c                uip_ds6_nbr_get_ll
 .text.uip_ds6_nbr_lookup
                0x000000000000608c       0x3c contiki-srf06-cc26xx.a(uip-ds6-nbr.o)
                0x000000000000608c                uip_ds6_nbr_lookup
 .text.uip_ds6_nbr_ipaddr_from_lladdr
                0x00000000000060c8       0x10 contiki-srf06-cc26xx.a(uip-ds6-nbr.o)
                0x00000000000060c8                uip_ds6_nbr_ipaddr_from_lladdr
 .text.uip_ds6_nbr_lladdr_from_ipaddr
                0x00000000000060d8       0x1c contiki-srf06-cc26xx.a(uip-ds6-nbr.o)
                0x00000000000060d8                uip_ds6_nbr_lladdr_from_ipaddr
 .text.uip_ds6_link_neighbor_callback
                0x00000000000060f4       0x2c contiki-srf06-cc26xx.a(uip-ds6-nbr.o)
                0x00000000000060f4                uip_ds6_link_neighbor_callback
 .text.uip_ds6_neighbor_periodic
                0x0000000000006120       0x64 contiki-srf06-cc26xx.a(uip-ds6-nbr.o)
                0x0000000000006120                uip_ds6_neighbor_periodic
 .text.call_route_callback
                0x0000000000006184       0x50 contiki-srf06-cc26xx.a(uip-ds6-route.o)
 .text.uip_ds6_route_init
                0x00000000000061d4       0x4c contiki-srf06-cc26xx.a(uip-ds6-route.o)
                0x00000000000061d4                uip_ds6_route_init
 .text.uip_ds6_route_nexthop
                0x0000000000006220       0x1c contiki-srf06-cc26xx.a(uip-ds6-route.o)
                0x0000000000006220                uip_ds6_route_nexthop
 .text.uip_ds6_route_head
                0x000000000000623c        0xc contiki-srf06-cc26xx.a(uip-ds6-route.o)
                0x000000000000623c                uip_ds6_route_head
 .text.uip_ds6_route_next
                0x0000000000006248        0x8 contiki-srf06-cc26xx.a(uip-ds6-route.o)
                0x0000000000006248                uip_ds6_route_next
 .text.uip_ds6_route_lookup
                0x0000000000006250       0x74 contiki-srf06-cc26xx.a(uip-ds6-route.o)
                0x0000000000006250                uip_ds6_route_lookup
 .text.uip_ds6_route_rm
                0x00000000000062c4       0xac contiki-srf06-cc26xx.a(uip-ds6-route.o)
                0x00000000000062c4                uip_ds6_route_rm
 .text.rm_routelist
                0x0000000000006370       0x30 contiki-srf06-cc26xx.a(uip-ds6-route.o)
 .text.rm_routelist_callback
                0x00000000000063a0        0x4 contiki-srf06-cc26xx.a(uip-ds6-route.o)
 .text.uip_ds6_route_add
                0x00000000000063a4      0x134 contiki-srf06-cc26xx.a(uip-ds6-route.o)
                0x00000000000063a4                uip_ds6_route_add
 .text.uip_ds6_defrt_rm
                0x00000000000064d8       0x48 contiki-srf06-cc26xx.a(uip-ds6-route.o)
                0x00000000000064d8                uip_ds6_defrt_rm
 .text.uip_ds6_defrt_lookup
                0x0000000000006520       0x34 contiki-srf06-cc26xx.a(uip-ds6-route.o)
                0x0000000000006520                uip_ds6_defrt_lookup
 .text.uip_ds6_defrt_add
                0x0000000000006554       0x5c contiki-srf06-cc26xx.a(uip-ds6-route.o)
                0x0000000000006554                uip_ds6_defrt_add
 .text.uip_ds6_defrt_choose
                0x00000000000065b0       0x38 contiki-srf06-cc26xx.a(uip-ds6-route.o)
                0x00000000000065b0                uip_ds6_defrt_choose
 .text.uip_ds6_defrt_periodic
                0x00000000000065e8       0x3c contiki-srf06-cc26xx.a(uip-ds6-route.o)
                0x00000000000065e8                uip_ds6_defrt_periodic
 .text.uip_ds6_list_loop
                0x0000000000006624       0x68 contiki-srf06-cc26xx.a(uip-ds6.o)
                0x0000000000006624                uip_ds6_list_loop
 .text.uip_ds6_prefix_add
                0x000000000000668c       0x70 contiki-srf06-cc26xx.a(uip-ds6.o)
                0x000000000000668c                uip_ds6_prefix_add
 .text.uip_ds6_is_addr_onlink
                0x00000000000066fc       0x48 contiki-srf06-cc26xx.a(uip-ds6.o)
                0x00000000000066fc                uip_ds6_is_addr_onlink
 .text.uip_ds6_addr_lookup
                0x0000000000006744       0x30 contiki-srf06-cc26xx.a(uip-ds6.o)
                0x0000000000006744                uip_ds6_addr_lookup
 .text.uip_ds6_get_link_local
                0x0000000000006774       0x4c contiki-srf06-cc26xx.a(uip-ds6.o)
                0x0000000000006774                uip_ds6_get_link_local
 .text.uip_ds6_maddr_add
                0x00000000000067c0       0x50 contiki-srf06-cc26xx.a(uip-ds6.o)
                0x00000000000067c0                uip_ds6_maddr_add
 .text.uip_ds6_addr_add
                0x0000000000006810       0xac contiki-srf06-cc26xx.a(uip-ds6.o)
                0x0000000000006810                uip_ds6_addr_add
 .text.uip_ds6_maddr_lookup
                0x00000000000068bc       0x30 contiki-srf06-cc26xx.a(uip-ds6.o)
                0x00000000000068bc                uip_ds6_maddr_lookup
 .text.uip_ds6_addr_rm
                0x00000000000068ec       0x48 contiki-srf06-cc26xx.a(uip-ds6.o)
                0x00000000000068ec                uip_ds6_addr_rm
 .text.uip_ds6_periodic
                0x0000000000006934       0x60 contiki-srf06-cc26xx.a(uip-ds6.o)
                0x0000000000006934                uip_ds6_periodic
 .text.uip_ds6_select_src
                0x0000000000006994       0xfc contiki-srf06-cc26xx.a(uip-ds6.o)
                0x0000000000006994                uip_ds6_select_src
 .text.uip_ds6_set_addr_iid
                0x0000000000006a90       0x14 contiki-srf06-cc26xx.a(uip-ds6.o)
                0x0000000000006a90                uip_ds6_set_addr_iid
 .text.uip_ds6_compute_reachable_time
                0x0000000000006aa4       0x28 contiki-srf06-cc26xx.a(uip-ds6.o)
                0x0000000000006aa4                uip_ds6_compute_reachable_time
 .text.uip_ds6_init
                0x0000000000006acc       0xf0 contiki-srf06-cc26xx.a(uip-ds6.o)
                0x0000000000006acc                uip_ds6_init
 .text.chksum   0x0000000000006bbc       0x50 contiki-srf06-cc26xx.a(uip6.o)
 .text.upper_layer_chksum
                0x0000000000006c0c       0x58 contiki-srf06-cc26xx.a(uip6.o)
 .text.ext_hdr_options_process
                0x0000000000006c64       0xc4 contiki-srf06-cc26xx.a(uip6.o)
 .text.uip_add32
                0x0000000000006d28       0x58 contiki-srf06-cc26xx.a(uip6.o)
                0x0000000000006d28                uip_add32
 .text.unlikely.uip_add_rcv_nxt
                0x0000000000006d80       0x2c contiki-srf06-cc26xx.a(uip6.o)
 .text.uip_icmp6chksum
                0x0000000000006dac        0x8 contiki-srf06-cc26xx.a(uip6.o)
                0x0000000000006dac                uip_icmp6chksum
 .text.uip_init
                0x0000000000006db4       0x64 contiki-srf06-cc26xx.a(uip6.o)
                0x0000000000006db4                uip_init
 .text.remove_ext_hdr
                0x0000000000006e18       0x60 contiki-srf06-cc26xx.a(uip6.o)
                0x0000000000006e18                remove_ext_hdr
 .text.uip_unlisten
                0x0000000000006e78       0x50 contiki-srf06-cc26xx.a(uip6.o)
                0x0000000000006e78                uip_unlisten
 .text.uip_process
                0x0000000000006ec8     0x11d8 contiki-srf06-cc26xx.a(uip6.o)
                0x0000000000006ec8                uip_process
 .text.uip_htonl
                0x00000000000080a0       0x14 contiki-srf06-cc26xx.a(uip6.o)
                0x00000000000080a0                uip_htonl
 .text.start_periodic_tcp_timer
                0x00000000000080b4       0x1c contiki-srf06-cc26xx.a(tcpip.o)
 .text.tcpip_set_outputfunc
                0x00000000000080d0        0xc contiki-srf06-cc26xx.a(tcpip.o)
                0x00000000000080d0                tcpip_set_outputfunc
 .text.tcpip_icmp6_call
                0x00000000000080dc       0x28 contiki-srf06-cc26xx.a(tcpip.o)
                0x00000000000080dc                tcpip_icmp6_call
 .text.tcpip_input
                0x0000000000008104       0x24 contiki-srf06-cc26xx.a(tcpip.o)
                0x0000000000008104                tcpip_input
 .text.tcpip_ipv6_output
                0x0000000000008128       0xc8 contiki-srf06-cc26xx.a(tcpip.o)
                0x0000000000008128                tcpip_ipv6_output
 .text.process_thread_tcpip_process
                0x00000000000081f0      0x208 contiki-srf06-cc26xx.a(tcpip.o)
 .text.tcpip_uipcall
                0x00000000000083f8       0x9c contiki-srf06-cc26xx.a(tcpip.o)
                0x00000000000083f8                tcpip_uipcall
 .text.uip_debug_ipaddr_print
                0x0000000000008494       0xb4 contiki-srf06-cc26xx.a(uip-debug.o)
                0x0000000000008494                uip_debug_ipaddr_print
 .text.lollipop_greater_than
                0x0000000000008548       0x3c contiki-srf06-cc26xx.a(rpl-dag.o)
 .text.rpl_set_preferred_parent
                0x0000000000008584       0x28 contiki-srf06-cc26xx.a(rpl-dag.o)
 .text.set_ip_from_prefix
                0x00000000000085ac       0x2c contiki-srf06-cc26xx.a(rpl-dag.o)
 .text.check_prefix
                0x00000000000085d8       0x60 contiki-srf06-cc26xx.a(rpl-dag.o)
 .text.find_parent_any_dag_any_instance
                0x0000000000008638       0x1c contiki-srf06-cc26xx.a(rpl-dag.o)
 .text.rpl_get_nbr
                0x0000000000008654       0x28 contiki-srf06-cc26xx.a(rpl-dag.o)
                0x0000000000008654                rpl_get_nbr
 .text.rpl_dag_init
                0x000000000000867c       0x14 contiki-srf06-cc26xx.a(rpl-dag.o)
                0x000000000000867c                rpl_dag_init
 .text.rpl_get_parent
                0x0000000000008690       0x10 contiki-srf06-cc26xx.a(rpl-dag.o)
                0x0000000000008690                rpl_get_parent
 .text.rpl_get_parent_ipaddr
                0x00000000000086a0       0x18 contiki-srf06-cc26xx.a(rpl-dag.o)
                0x00000000000086a0                rpl_get_parent_ipaddr
 .text.rpl_repair_root
                0x00000000000086b8       0x5c contiki-srf06-cc26xx.a(rpl-dag.o)
                0x00000000000086b8                rpl_repair_root
 .text.rpl_set_prefix
                0x0000000000008714       0x98 contiki-srf06-cc26xx.a(rpl-dag.o)
                0x0000000000008714                rpl_set_prefix
 .text.rpl_set_default_route
                0x00000000000087ac       0x48 contiki-srf06-cc26xx.a(rpl-dag.o)
                0x00000000000087ac                rpl_set_default_route
 .text.rpl_alloc_instance
                0x00000000000087f4       0x34 contiki-srf06-cc26xx.a(rpl-dag.o)
                0x00000000000087f4                rpl_alloc_instance
 .text.rpl_alloc_dag
                0x0000000000008828       0x5c contiki-srf06-cc26xx.a(rpl-dag.o)
                0x0000000000008828                rpl_alloc_dag
 .text.rpl_add_parent
                0x0000000000008884       0x44 contiki-srf06-cc26xx.a(rpl-dag.o)
                0x0000000000008884                rpl_add_parent
 .text.rpl_find_parent
                0x00000000000088c8       0x18 contiki-srf06-cc26xx.a(rpl-dag.o)
                0x00000000000088c8                rpl_find_parent
 .text.rpl_find_parent_any_dag
                0x00000000000088e0       0x24 contiki-srf06-cc26xx.a(rpl-dag.o)
                0x00000000000088e0                rpl_find_parent_any_dag
 .text.rpl_select_parent
                0x0000000000008904       0x78 contiki-srf06-cc26xx.a(rpl-dag.o)
                0x0000000000008904                rpl_select_parent
 .text.rpl_select_dag
                0x000000000000897c      0x17c contiki-srf06-cc26xx.a(rpl-dag.o)
                0x000000000000897c                rpl_select_dag
 .text.rpl_nullify_parent
                0x0000000000008af8       0x4c contiki-srf06-cc26xx.a(rpl-dag.o)
                0x0000000000008af8                rpl_nullify_parent
 .text.rpl_remove_parent
                0x0000000000008b44       0x1c contiki-srf06-cc26xx.a(rpl-dag.o)
                0x0000000000008b44                rpl_remove_parent
 .text.nbr_callback
                0x0000000000008b60        0x4 contiki-srf06-cc26xx.a(rpl-dag.o)
 .text.remove_parents.constprop.5
                0x0000000000008b64       0x44 contiki-srf06-cc26xx.a(rpl-dag.o)
 .text.rpl_free_dag
                0x0000000000008ba8       0x38 contiki-srf06-cc26xx.a(rpl-dag.o)
                0x0000000000008ba8                rpl_free_dag
 .text.rpl_move_parent
                0x0000000000008be0       0x4c contiki-srf06-cc26xx.a(rpl-dag.o)
                0x0000000000008be0                rpl_move_parent
 .text.rpl_get_any_dag
                0x0000000000008c2c       0x18 contiki-srf06-cc26xx.a(rpl-dag.o)
                0x0000000000008c2c                rpl_get_any_dag
 .text.rpl_get_instance
                0x0000000000008c44       0x20 contiki-srf06-cc26xx.a(rpl-dag.o)
                0x0000000000008c44                rpl_get_instance
 .text.rpl_join_instance
                0x0000000000008c64      0x138 contiki-srf06-cc26xx.a(rpl-dag.o)
                0x0000000000008c64                rpl_join_instance
 .text.rpl_local_repair
                0x0000000000008d9c       0x6c contiki-srf06-cc26xx.a(rpl-dag.o)
                0x0000000000008d9c                rpl_local_repair
 .text.rpl_process_parent_event
                0x0000000000008e08       0x60 contiki-srf06-cc26xx.a(rpl-dag.o)
                0x0000000000008e08                rpl_process_parent_event
 .text.rpl_add_dag
                0x0000000000008e68      0x144 contiki-srf06-cc26xx.a(rpl-dag.o)
                0x0000000000008e68                rpl_add_dag
 .text.rpl_recalculate_ranks
                0x0000000000008fac       0x44 contiki-srf06-cc26xx.a(rpl-dag.o)
                0x0000000000008fac                rpl_recalculate_ranks
 .text.rpl_process_dio
                0x0000000000008ff0      0x328 contiki-srf06-cc26xx.a(rpl-dag.o)
                0x0000000000008ff0                rpl_process_dio
 .text.rpl_verify_header
                0x0000000000009318      0x10c contiki-srf06-cc26xx.a(rpl-ext-header.)
                0x0000000000009318                rpl_verify_header
 .text.rpl_update_header_empty
                0x0000000000009424      0x12c contiki-srf06-cc26xx.a(rpl-ext-header.)
                0x0000000000009424                rpl_update_header_empty
 .text.rpl_update_header_final
                0x0000000000009550       0x88 contiki-srf06-cc26xx.a(rpl-ext-header.)
                0x0000000000009550                rpl_update_header_final
 .text.rpl_invert_header
                0x00000000000095d8       0x68 contiki-srf06-cc26xx.a(rpl-ext-header.)
                0x00000000000095d8                rpl_invert_header
 .text.rpl_insert_header
                0x0000000000009640       0x1c contiki-srf06-cc26xx.a(rpl-ext-header.)
                0x0000000000009640                rpl_insert_header
 .text.get32    0x000000000000965c       0x18 contiki-srf06-cc26xx.a(rpl-icmp6.o)
 .text.dao_ack_input
                0x0000000000009674       0x14 contiki-srf06-cc26xx.a(rpl-icmp6.o)
 .text.dio_input
                0x0000000000009688      0x2c8 contiki-srf06-cc26xx.a(rpl-icmp6.o)
 .text.dis_output
                0x0000000000009950       0x58 contiki-srf06-cc26xx.a(rpl-icmp6.o)
                0x0000000000009950                dis_output
 .text.dio_output
                0x00000000000099a8      0x2fc contiki-srf06-cc26xx.a(rpl-icmp6.o)
                0x00000000000099a8                dio_output
 .text.dis_input
                0x0000000000009ca4       0x40 contiki-srf06-cc26xx.a(rpl-icmp6.o)
 .text.dao_output_target
                0x0000000000009ce4      0x104 contiki-srf06-cc26xx.a(rpl-icmp6.o)
                0x0000000000009ce4                dao_output_target
 .text.dao_output
                0x0000000000009de8       0x5c contiki-srf06-cc26xx.a(rpl-icmp6.o)
                0x0000000000009de8                dao_output
 .text.dao_ack_output
                0x0000000000009e44       0x30 contiki-srf06-cc26xx.a(rpl-icmp6.o)
                0x0000000000009e44                dao_ack_output
 .text.dao_input
                0x0000000000009e74      0x250 contiki-srf06-cc26xx.a(rpl-icmp6.o)
 .text.rpl_icmp6_register_handlers
                0x000000000000a0c4       0x30 contiki-srf06-cc26xx.a(rpl-icmp6.o)
                0x000000000000a0c4                rpl_icmp6_register_handlers
 .text.reset    0x000000000000a0f4        0x4 contiki-srf06-cc26xx.a(rpl-mrhof.o)
 .text.update_metric_container
                0x000000000000a0f8        0x8 contiki-srf06-cc26xx.a(rpl-mrhof.o)
 .text.calculate_rank
                0x000000000000a100       0x3c contiki-srf06-cc26xx.a(rpl-mrhof.o)
 .text.neighbor_link_callback
                0x000000000000a13c       0x54 contiki-srf06-cc26xx.a(rpl-mrhof.o)
 .text.best_dag
                0x000000000000a190       0x2c contiki-srf06-cc26xx.a(rpl-mrhof.o)
 .text.best_parent
                0x000000000000a1bc       0x64 contiki-srf06-cc26xx.a(rpl-mrhof.o)
 .text.new_dio_interval
                0x000000000000a220       0x64 contiki-srf06-cc26xx.a(rpl-timers.o)
 .text.handle_periodic_timer
                0x000000000000a284       0x3c contiki-srf06-cc26xx.a(rpl-timers.o)
 .text.set_dao_lifetime_timer
                0x000000000000a2c0       0x3c contiki-srf06-cc26xx.a(rpl-timers.o)
 .text.handle_unicast_dio_timer
                0x000000000000a2fc       0x1c contiki-srf06-cc26xx.a(rpl-timers.o)
 .text.handle_dio_timer
                0x000000000000a318       0x8c contiki-srf06-cc26xx.a(rpl-timers.o)
 .text.schedule_dao
                0x000000000000a3a4       0x54 contiki-srf06-cc26xx.a(rpl-timers.o)
 .text.handle_dao_timer
                0x000000000000a3f8       0x5c contiki-srf06-cc26xx.a(rpl-timers.o)
 .text.rpl_reset_periodic_timer
                0x000000000000a454       0x3c contiki-srf06-cc26xx.a(rpl-timers.o)
                0x000000000000a454                rpl_reset_periodic_timer
 .text.rpl_reset_dio_timer
                0x000000000000a490       0x1c contiki-srf06-cc26xx.a(rpl-timers.o)
                0x000000000000a490                rpl_reset_dio_timer
 .text.rpl_schedule_dao
                0x000000000000a4ac        0x8 contiki-srf06-cc26xx.a(rpl-timers.o)
                0x000000000000a4ac                rpl_schedule_dao
 .text.rpl_schedule_unicast_dio_immediately
                0x000000000000a4b4       0x14 contiki-srf06-cc26xx.a(rpl-timers.o)
                0x000000000000a4b4                rpl_schedule_unicast_dio_immediately
 .text.rpl_schedule_probing
                0x000000000000a4c8       0x38 contiki-srf06-cc26xx.a(rpl-timers.o)
                0x000000000000a4c8                rpl_schedule_probing
 .text.handle_probing_timer
                0x000000000000a500       0xe4 contiki-srf06-cc26xx.a(rpl-timers.o)
 .text.rpl_get_mode
                0x000000000000a5e4        0xc contiki-srf06-cc26xx.a(rpl.o)
                0x000000000000a5e4                rpl_get_mode
 .text.rpl_purge_routes
                0x000000000000a5f0       0x7c contiki-srf06-cc26xx.a(rpl.o)
                0x000000000000a5f0                rpl_purge_routes
 .text.rpl_remove_routes
                0x000000000000a66c       0x2c contiki-srf06-cc26xx.a(rpl.o)
                0x000000000000a66c                rpl_remove_routes
 .text.rpl_remove_routes_by_nexthop
                0x000000000000a698       0x40 contiki-srf06-cc26xx.a(rpl.o)
                0x000000000000a698                rpl_remove_routes_by_nexthop
 .text.rpl_add_route
                0x000000000000a6d8       0x2c contiki-srf06-cc26xx.a(rpl.o)
                0x000000000000a6d8                rpl_add_route
 .text.rpl_link_neighbor_callback
                0x000000000000a704       0x78 contiki-srf06-cc26xx.a(rpl.o)
                0x000000000000a704                rpl_link_neighbor_callback
 .text.rpl_ipv6_neighbor_callback
                0x000000000000a77c       0x30 contiki-srf06-cc26xx.a(rpl.o)
                0x000000000000a77c                rpl_ipv6_neighbor_callback
 .text.rpl_purge_dags
                0x000000000000a7ac       0x40 contiki-srf06-cc26xx.a(rpl.o)
                0x000000000000a7ac                rpl_purge_dags
 .text.rpl_init
                0x000000000000a7ec       0x58 contiki-srf06-cc26xx.a(rpl.o)
                0x000000000000a7ec                rpl_init
 .text.NOROM_AONRTCCurrentCompareValueGet
                0x000000000000a844       0x24 contiki-srf06-cc26xx.a(aon_rtc.o)
                0x000000000000a844                NOROM_AONRTCCurrentCompareValueGet
 .text.NOROM_CPUcpsid
                0x000000000000a868        0x8 contiki-srf06-cc26xx.a(cpu.o)
                0x000000000000a868                NOROM_CPUcpsid
 .text.NOROM_CPUcpsie
                0x000000000000a870        0x8 contiki-srf06-cc26xx.a(cpu.o)
                0x000000000000a870                NOROM_CPUcpsie
 .text.NOROM_CPUdelay
                0x000000000000a878        0x8 contiki-srf06-cc26xx.a(cpu.o)
                0x000000000000a878                NOROM_CPUdelay
 .text.NOROM_DDI16BitfieldWrite
                0x000000000000a880       0x48 contiki-srf06-cc26xx.a(ddi.o)
                0x000000000000a880                NOROM_DDI16BitfieldWrite
 .text.NOROM_DDI16BitfieldRead
                0x000000000000a8c8       0x4c contiki-srf06-cc26xx.a(ddi.o)
                0x000000000000a8c8                NOROM_DDI16BitfieldRead
 .text.NOROM_OSCClockSourceSet
                0x000000000000a914       0x50 contiki-srf06-cc26xx.a(osc.o)
                0x000000000000a914                NOROM_OSCClockSourceSet
 .text.NOROM_OSCClockSourceGet
                0x000000000000a964       0x24 contiki-srf06-cc26xx.a(osc.o)
                0x000000000000a964                NOROM_OSCClockSourceGet
 .text.NOROM_OSCInterfaceEnable
                0x000000000000a988       0x34 contiki-srf06-cc26xx.a(osc.o)
                0x000000000000a988                NOROM_OSCInterfaceEnable
 .text.NOROM_PowerCtrlSourceSet
                0x000000000000a9bc       0x30 contiki-srf06-cc26xx.a(pwr_ctrl.o)
                0x000000000000a9bc                NOROM_PowerCtrlSourceSet
 .text.HapiTrimDeviceShutDown
                0x000000000000a9ec      0x4f8 contiki-srf06-cc26xx.a(setup.o)
 .text.trimDevice
                0x000000000000aee4       0xfc contiki-srf06-cc26xx.a(setup.o)
                0x000000000000aee4                trimDevice
 .text.SysCtrlSetRechargeBeforePowerDown
                0x000000000000afe0      0x1f0 contiki-srf06-cc26xx.a(sys_ctrl.o)
                0x000000000000afe0                SysCtrlSetRechargeBeforePowerDown
 .text.SysCtrlAdjustRechargeAfterPowerDown
                0x000000000000b1d0       0x6c contiki-srf06-cc26xx.a(sys_ctrl.o)
                0x000000000000b1d0                SysCtrlAdjustRechargeAfterPowerDown
 .text.SysCtrl_DCDC_VoltageConditionalControl
                0x000000000000b23c       0x78 contiki-srf06-cc26xx.a(sys_ctrl.o)
                0x000000000000b23c                SysCtrl_DCDC_VoltageConditionalControl
 .text.linkaddr_copy
                0x000000000000b2b4        0xc contiki-srf06-cc26xx.a(linkaddr.o)
                0x000000000000b2b4                linkaddr_copy
 .text.linkaddr_cmp
                0x000000000000b2c0       0x14 contiki-srf06-cc26xx.a(linkaddr.o)
                0x000000000000b2c0                linkaddr_cmp
 .text.nbr_set_bit
                0x000000000000b2d4       0x44 contiki-srf06-cc26xx.a(nbr-table.o)
 .text.index_from_lladdr
                0x000000000000b318       0x50 contiki-srf06-cc26xx.a(nbr-table.o)
 .text.nbr_get_bit.constprop.0
                0x000000000000b368       0x2c contiki-srf06-cc26xx.a(nbr-table.o)
 .text.nbr_table_register
                0x000000000000b394       0x2c contiki-srf06-cc26xx.a(nbr-table.o)
                0x000000000000b394                nbr_table_register
 .text.nbr_table_next
                0x000000000000b3c0       0x78 contiki-srf06-cc26xx.a(nbr-table.o)
                0x000000000000b3c0                nbr_table_next
 .text.nbr_table_head
                0x000000000000b438       0x5c contiki-srf06-cc26xx.a(nbr-table.o)
                0x000000000000b438                nbr_table_head
 .text.nbr_table_add_lladdr
                0x000000000000b494      0x1ac contiki-srf06-cc26xx.a(nbr-table.o)
                0x000000000000b494                nbr_table_add_lladdr
 .text.nbr_table_get_from_lladdr
                0x000000000000b640       0x34 contiki-srf06-cc26xx.a(nbr-table.o)
                0x000000000000b640                nbr_table_get_from_lladdr
 .text.nbr_table_remove
                0x000000000000b674       0x2c contiki-srf06-cc26xx.a(nbr-table.o)
                0x000000000000b674                nbr_table_remove
 .text.nbr_table_lock
                0x000000000000b6a0       0x10 contiki-srf06-cc26xx.a(nbr-table.o)
                0x000000000000b6a0                nbr_table_lock
 .text.nbr_table_unlock
                0x000000000000b6b0       0x10 contiki-srf06-cc26xx.a(nbr-table.o)
                0x000000000000b6b0                nbr_table_unlock
 .text.nbr_table_get_lladdr
                0x000000000000b6c0       0x30 contiki-srf06-cc26xx.a(nbr-table.o)
                0x000000000000b6c0                nbr_table_get_lladdr
 .text.netstack_init
                0x000000000000b6f0       0x38 contiki-srf06-cc26xx.a(netstack.o)
                0x000000000000b6f0                netstack_init
 .text.packetbuf_copyto
                0x000000000000b728       0x50 contiki-srf06-cc26xx.a(packetbuf.o)
                0x000000000000b728                packetbuf_copyto
 .text.packetbuf_hdralloc
                0x000000000000b778       0x48 contiki-srf06-cc26xx.a(packetbuf.o)
                0x000000000000b778                packetbuf_hdralloc
 .text.packetbuf_hdrreduce
                0x000000000000b7c0       0x30 contiki-srf06-cc26xx.a(packetbuf.o)
                0x000000000000b7c0                packetbuf_hdrreduce
 .text.packetbuf_set_datalen
                0x000000000000b7f0        0xc contiki-srf06-cc26xx.a(packetbuf.o)
                0x000000000000b7f0                packetbuf_set_datalen
 .text.packetbuf_dataptr
                0x000000000000b7fc       0x14 contiki-srf06-cc26xx.a(packetbuf.o)
                0x000000000000b7fc                packetbuf_dataptr
 .text.packetbuf_hdrptr
                0x000000000000b810       0x14 contiki-srf06-cc26xx.a(packetbuf.o)
                0x000000000000b810                packetbuf_hdrptr
 .text.packetbuf_datalen
                0x000000000000b824        0xc contiki-srf06-cc26xx.a(packetbuf.o)
                0x000000000000b824                packetbuf_datalen
 .text.packetbuf_totlen
                0x000000000000b830       0x28 contiki-srf06-cc26xx.a(packetbuf.o)
                0x000000000000b830                packetbuf_totlen
 .text.packetbuf_attr_clear
                0x000000000000b858       0x38 contiki-srf06-cc26xx.a(packetbuf.o)
                0x000000000000b858                packetbuf_attr_clear
 .text.packetbuf_clear
                0x000000000000b890       0x34 contiki-srf06-cc26xx.a(packetbuf.o)
                0x000000000000b890                packetbuf_clear
 .text.packetbuf_copyfrom
                0x000000000000b8c4       0x2c contiki-srf06-cc26xx.a(packetbuf.o)
                0x000000000000b8c4                packetbuf_copyfrom
 .text.packetbuf_attr_copyto
                0x000000000000b8f0       0x38 contiki-srf06-cc26xx.a(packetbuf.o)
                0x000000000000b8f0                packetbuf_attr_copyto
 .text.packetbuf_attr_copyfrom
                0x000000000000b928       0x38 contiki-srf06-cc26xx.a(packetbuf.o)
                0x000000000000b928                packetbuf_attr_copyfrom
 .text.packetbuf_set_attr
                0x000000000000b960       0x10 contiki-srf06-cc26xx.a(packetbuf.o)
                0x000000000000b960                packetbuf_set_attr
 .text.packetbuf_attr
                0x000000000000b970        0xc contiki-srf06-cc26xx.a(packetbuf.o)
                0x000000000000b970                packetbuf_attr
 .text.packetbuf_set_addr
                0x000000000000b97c       0x18 contiki-srf06-cc26xx.a(packetbuf.o)
                0x000000000000b97c                packetbuf_set_addr
 .text.packetbuf_addr
                0x000000000000b994       0x10 contiki-srf06-cc26xx.a(packetbuf.o)
                0x000000000000b994                packetbuf_addr
 .text.packetbuf_holds_broadcast
                0x000000000000b9a4       0x10 contiki-srf06-cc26xx.a(packetbuf.o)
                0x000000000000b9a4                packetbuf_holds_broadcast
 .text.queuebuf_init
                0x000000000000b9b4       0x1c contiki-srf06-cc26xx.a(queuebuf.o)
                0x000000000000b9b4                queuebuf_init
 .text.queuebuf_numfree
                0x000000000000b9d0        0xc contiki-srf06-cc26xx.a(queuebuf.o)
                0x000000000000b9d0                queuebuf_numfree
 .text.queuebuf_new_from_packetbuf
                0x000000000000b9dc       0x48 contiki-srf06-cc26xx.a(queuebuf.o)
                0x000000000000b9dc                queuebuf_new_from_packetbuf
 .text.queuebuf_update_attr_from_packetbuf
                0x000000000000ba24        0xc contiki-srf06-cc26xx.a(queuebuf.o)
                0x000000000000ba24                queuebuf_update_attr_from_packetbuf
 .text.queuebuf_update_from_packetbuf
                0x000000000000ba30       0x1c contiki-srf06-cc26xx.a(queuebuf.o)
                0x000000000000ba30                queuebuf_update_from_packetbuf
 .text.queuebuf_free
                0x000000000000ba4c       0x2c contiki-srf06-cc26xx.a(queuebuf.o)
                0x000000000000ba4c                queuebuf_free
 .text.queuebuf_to_packetbuf
                0x000000000000ba78       0x30 contiki-srf06-cc26xx.a(queuebuf.o)
                0x000000000000ba78                queuebuf_to_packetbuf
 .text.queuebuf_attr
                0x000000000000baa8        0xc contiki-srf06-cc26xx.a(queuebuf.o)
                0x000000000000baa8                queuebuf_attr
 .text.input_packet
                0x000000000000bab4       0x10 contiki-srf06-cc26xx.a(csma.o)
 .text.on       0x000000000000bac4       0x10 contiki-srf06-cc26xx.a(csma.o)
 .text.off      0x000000000000bad4       0x10 contiki-srf06-cc26xx.a(csma.o)
 .text.channel_check_interval
                0x000000000000bae4       0x10 contiki-srf06-cc26xx.a(csma.o)
 .text.transmit_packet_list
                0x000000000000baf4       0x24 contiki-srf06-cc26xx.a(csma.o)
 .text.free_packet
                0x000000000000bb18       0x98 contiki-srf06-cc26xx.a(csma.o)
 .text.packet_sent
                0x000000000000bbb0       0xfc contiki-srf06-cc26xx.a(csma.o)
 .text.send_packet
                0x000000000000bcac      0x164 contiki-srf06-cc26xx.a(csma.o)
 .text.init     0x000000000000be10       0x24 contiki-srf06-cc26xx.a(csma.o)
 .text.parse    0x000000000000be34       0xa0 contiki-srf06-cc26xx.a(framer-802154.o)
 .text.create_frame.isra.0
                0x000000000000bed4      0x13c contiki-srf06-cc26xx.a(framer-802154.o)
 .text.create   0x000000000000c010        0x8 contiki-srf06-cc26xx.a(framer-802154.o)
 .text.hdr_length
                0x000000000000c018        0x8 contiki-srf06-cc26xx.a(framer-802154.o)
 .text.mac_call_sent_callback
                0x000000000000c020       0x10 contiki-srf06-cc26xx.a(mac.o)
                0x000000000000c020                mac_call_sent_callback
 .text.duty_cycle
                0x000000000000c030        0x4 contiki-srf06-cc26xx.a(contikimac.o)
 .text.init     0x000000000000c034       0x40 contiki-srf06-cc26xx.a(contikimac.o)
 .text.on       0x000000000000c074       0x28 contiki-srf06-cc26xx.a(contikimac.o)
 .text.off      0x000000000000c09c       0x34 contiki-srf06-cc26xx.a(contikimac.o)
 .text.recv_burst_off
                0x000000000000c0d0       0x14 contiki-srf06-cc26xx.a(contikimac.o)
 .text.powercycle_turn_radio_off.part.2
                0x000000000000c0e4       0x10 contiki-srf06-cc26xx.a(contikimac.o)
 .text.turn_off
                0x000000000000c0f4       0x38 contiki-srf06-cc26xx.a(contikimac.o)
 .text.turn_on  0x000000000000c12c       0x40 contiki-srf06-cc26xx.a(contikimac.o)
 .text.schedule_powercycle_fixed.part.5
                0x000000000000c16c       0x2c contiki-srf06-cc26xx.a(contikimac.o)
 .text.input_packet
                0x000000000000c198       0xa4 contiki-srf06-cc26xx.a(contikimac.o)
 .text.send_packet.isra.8
                0x000000000000c23c      0x22c contiki-srf06-cc26xx.a(contikimac.o)
 .text.qsend_list
                0x000000000000c468       0xcc contiki-srf06-cc26xx.a(contikimac.o)
 .text.qsend_packet
                0x000000000000c534       0x24 contiki-srf06-cc26xx.a(contikimac.o)
 .text.powercycle_wrapper
                0x000000000000c558      0x234 contiki-srf06-cc26xx.a(contikimac.o)
 .text.init     0x000000000000c78c        0x4 contiki-srf06-cc26xx.a(nullsec.o)
 .text.input    0x000000000000c790       0x10 contiki-srf06-cc26xx.a(nullsec.o)
 .text.send     0x000000000000c7a0       0x20 contiki-srf06-cc26xx.a(nullsec.o)
 .text.sensor_common_read_reg
                0x000000000000c7c0       0x1c contiki-srf06-cc26xx.a(sensor-common.o)
                0x000000000000c7c0                sensor_common_read_reg
 .text.sensor_common_write_reg
                0x000000000000c7dc       0x28 contiki-srf06-cc26xx.a(sensor-common.o)
                0x000000000000c7dc                sensor_common_write_reg
 .text.sensor_common_set_error_data
                0x000000000000c804       0x10 contiki-srf06-cc26xx.a(sensor-common.o)
                0x000000000000c804                sensor_common_set_error_data
 .text.verify_part
                0x000000000000c814       0x6c contiki-srf06-cc26xx.a(ext-flash.o)
 .text.wait_ready
                0x000000000000c880       0x64 contiki-srf06-cc26xx.a(ext-flash.o)
 .text.power_down
                0x000000000000c8e4       0x50 contiki-srf06-cc26xx.a(ext-flash.o)
 .text.ext_flash_open
                0x000000000000c934       0x5c contiki-srf06-cc26xx.a(ext-flash.o)
                0x000000000000c934                ext_flash_open
 .text.ext_flash_init
                0x000000000000c990       0x14 contiki-srf06-cc26xx.a(ext-flash.o)
                0x000000000000c990                ext_flash_init
 .text.buzzer_init
                0x000000000000c9a4        0xc contiki-srf06-cc26xx.a(buzzer.o)
                0x000000000000c9a4                buzzer_init
 .text.buzzer_stop
                0x000000000000c9b0       0x74 contiki-srf06-cc26xx.a(buzzer.o)
                0x000000000000c9b0                buzzer_stop
 .text.accessible
                0x000000000000ca24       0x24 contiki-srf06-cc26xx.a(board-spi.o)
 .text.board_spi_write
                0x000000000000ca48       0x3c contiki-srf06-cc26xx.a(board-spi.o)
                0x000000000000ca48                board_spi_write
 .text.board_spi_read
                0x000000000000ca84       0x4c contiki-srf06-cc26xx.a(board-spi.o)
                0x000000000000ca84                board_spi_read
 .text.board_spi_flush
                0x000000000000cad0       0x24 contiki-srf06-cc26xx.a(board-spi.o)
                0x000000000000cad0                board_spi_flush
 .text.board_spi_open
                0x000000000000caf4       0xbc contiki-srf06-cc26xx.a(board-spi.o)
                0x000000000000caf4                board_spi_open
 .text.board_spi_close
                0x000000000000cbb0       0x6c contiki-srf06-cc26xx.a(board-spi.o)
                0x000000000000cbb0                board_spi_close
 .text.process_thread_rf_core_process
                0x000000000000cc1c       0x58 contiki-srf06-cc26xx.a(rf-core.o)
 .text.rf_core_is_accessible
                0x000000000000cc74       0x10 contiki-srf06-cc26xx.a(rf-core.o)
                0x000000000000cc74                rf_core_is_accessible
 .text.rf_core_send_cmd
                0x000000000000cc84       0x9c contiki-srf06-cc26xx.a(rf-core.o)
                0x000000000000cc84                rf_core_send_cmd
 .text.rf_core_wait_cmd_done
                0x000000000000cd20       0x2c contiki-srf06-cc26xx.a(rf-core.o)
                0x000000000000cd20                rf_core_wait_cmd_done
 .text.rf_core_power_up
                0x000000000000cd4c       0xb0 contiki-srf06-cc26xx.a(rf-core.o)
                0x000000000000cd4c                rf_core_power_up
 .text.rf_core_power_down
                0x000000000000cdfc       0xe8 contiki-srf06-cc26xx.a(rf-core.o)
                0x000000000000cdfc                rf_core_power_down
 .text.rf_core_set_modesel
                0x000000000000cee4       0x68 contiki-srf06-cc26xx.a(rf-core.o)
                0x000000000000cee4                rf_core_set_modesel
 .text.rf_core_boot
                0x000000000000cf4c       0x30 contiki-srf06-cc26xx.a(rf-core.o)
                0x000000000000cf4c                rf_core_boot
 .text.rf_core_setup_interrupts
                0x000000000000cf7c       0x6c contiki-srf06-cc26xx.a(rf-core.o)
                0x000000000000cf7c                rf_core_setup_interrupts
 .text.rf_core_cmd_done_en
                0x000000000000cfe8       0x30 contiki-srf06-cc26xx.a(rf-core.o)
                0x000000000000cfe8                rf_core_cmd_done_en
 .text.rf_core_cmd_done_dis
                0x000000000000d018       0x10 contiki-srf06-cc26xx.a(rf-core.o)
                0x000000000000d018                rf_core_cmd_done_dis
 .text.rf_core_get_last_radio_op
                0x000000000000d028        0xc contiki-srf06-cc26xx.a(rf-core.o)
                0x000000000000d028                rf_core_get_last_radio_op
 .text.rf_core_init_radio_op
                0x000000000000d034       0x1c contiki-srf06-cc26xx.a(rf-core.o)
                0x000000000000d034                rf_core_init_radio_op
 .text.rf_core_primary_mode_register
                0x000000000000d050        0xc contiki-srf06-cc26xx.a(rf-core.o)
                0x000000000000d050                rf_core_primary_mode_register
 .text.RFCCPE1IntHandler
                0x000000000000d05c       0x28 contiki-srf06-cc26xx.a(rf-core.o)
                0x000000000000d05c                RFCCPE1IntHandler
 .text.RFCCPE0IntHandler
                0x000000000000d084       0x5c contiki-srf06-cc26xx.a(rf-core.o)
                0x000000000000d084                RFCCPE0IntHandler
 .text.rf_ble_is_active
                0x000000000000d0e0        0xc contiki-srf06-cc26xx.a(rf-ble.o)
                0x000000000000d0e0                rf_ble_is_active
 .text.stimer_set
                0x000000000000d0ec       0x10 contiki-srf06-cc26xx.a(stimer.o)
                0x000000000000d0ec                stimer_set
 .text.stimer_expired
                0x000000000000d0fc       0x20 contiki-srf06-cc26xx.a(stimer.o)
                0x000000000000d0fc                stimer_expired
 .text.memb_init
                0x000000000000d11c       0x24 contiki-srf06-cc26xx.a(memb.o)
                0x000000000000d11c                memb_init
 .text.memb_alloc
                0x000000000000d140       0x3c contiki-srf06-cc26xx.a(memb.o)
                0x000000000000d140                memb_alloc
 .text.memb_free
                0x000000000000d17c       0x44 contiki-srf06-cc26xx.a(memb.o)
                0x000000000000d17c                memb_free
 .text.memb_inmemb
                0x000000000000d1c0       0x1c contiki-srf06-cc26xx.a(memb.o)
                0x000000000000d1c0                memb_inmemb
 .text.memb_numfree
                0x000000000000d1dc       0x24 contiki-srf06-cc26xx.a(memb.o)
                0x000000000000d1dc                memb_numfree
 .text.echo_reply_input
                0x000000000000d200      0x114 contiki-srf06-cc26xx.a(uip-icmp6.o)
 .text.echo_request_input
                0x000000000000d314      0x118 contiki-srf06-cc26xx.a(uip-icmp6.o)
 .text.uip_icmp6_input
                0x000000000000d42c       0x40 contiki-srf06-cc26xx.a(uip-icmp6.o)
                0x000000000000d42c                uip_icmp6_input
 .text.uip_icmp6_register_input_handler
                0x000000000000d46c        0xc contiki-srf06-cc26xx.a(uip-icmp6.o)
                0x000000000000d46c                uip_icmp6_register_input_handler
 .text.uip_icmp6_error_output
                0x000000000000d478      0x16c contiki-srf06-cc26xx.a(uip-icmp6.o)
                0x000000000000d478                uip_icmp6_error_output
 .text.uip_icmp6_send
                0x000000000000d5e4       0x8c contiki-srf06-cc26xx.a(uip-icmp6.o)
                0x000000000000d5e4                uip_icmp6_send
 .text.uip_icmp6_init
                0x000000000000d670       0x24 contiki-srf06-cc26xx.a(uip-icmp6.o)
                0x000000000000d670                uip_icmp6_init
 .text.uip_nd6_init
                0x000000000000d694        0x4 contiki-srf06-cc26xx.a(uip-nd6.o)
                0x000000000000d694                uip_nd6_init
 .text.AONBatMonTemperatureGetDegC
                0x000000000000d698       0x30 contiki-srf06-cc26xx.a(aon_batmon.o)
                0x000000000000d698                AONBatMonTemperatureGetDegC
 .text.ChipInfo_GetSupportedProtocol_BV
                0x000000000000d6c8       0x10 contiki-srf06-cc26xx.a(chipinfo.o)
                0x000000000000d6c8                ChipInfo_GetSupportedProtocol_BV
 .text.ChipInfo_GetChipFamily
                0x000000000000d6d8       0x38 contiki-srf06-cc26xx.a(chipinfo.o)
                0x000000000000d6d8                ChipInfo_GetChipFamily
 .text.ChipInfo_GetHwRevision
                0x000000000000d710       0x98 contiki-srf06-cc26xx.a(chipinfo.o)
                0x000000000000d710                ChipInfo_GetHwRevision
 .text.ThisCodeIsBuiltForCC26xxHwRev22AndLater_HaltIfViolated
                0x000000000000d7a8       0x24 contiki-srf06-cc26xx.a(chipinfo.o)
                0x000000000000d7a8                ThisCodeIsBuiltForCC26xxHwRev22AndLater_HaltIfViolated
 .text.frame802154_get_pan_id
                0x000000000000d7cc        0xc contiki-srf06-cc26xx.a(frame802154.o)
                0x000000000000d7cc                frame802154_get_pan_id
 .text.frame802154_has_panid
                0x000000000000d7d8       0x54 contiki-srf06-cc26xx.a(frame802154.o)
                0x000000000000d7d8                frame802154_has_panid
 .text.field_len
                0x000000000000d82c       0x9c contiki-srf06-cc26xx.a(frame802154.o)
 .text.frame802154_is_broadcast_addr
                0x000000000000d8c8       0x24 contiki-srf06-cc26xx.a(frame802154.o)
                0x000000000000d8c8                frame802154_is_broadcast_addr
 .text.frame802154_hdrlen
                0x000000000000d8ec       0x34 contiki-srf06-cc26xx.a(frame802154.o)
                0x000000000000d8ec                frame802154_hdrlen
 .text.frame802154_create
                0x000000000000d920       0xf8 contiki-srf06-cc26xx.a(frame802154.o)
                0x000000000000d920                frame802154_create
 .text.frame802154_parse
                0x000000000000da18      0x188 contiki-srf06-cc26xx.a(frame802154.o)
                0x000000000000da18                frame802154_parse
 .text.mac_sequence_is_duplicate
                0x000000000000dba0       0x3c contiki-srf06-cc26xx.a(mac-sequence.o)
                0x000000000000dba0                mac_sequence_is_duplicate
 .text.mac_sequence_register_seqno
                0x000000000000dbdc       0x6c contiki-srf06-cc26xx.a(mac-sequence.o)
                0x000000000000dbdc                mac_sequence_register_seqno
 .text.exp2     0x000000000000dc48       0x10 /usr/local/Cellar/gcc-arm-none-eabi/20140805/bin/../lib/gcc/arm-none-eabi/4.8.4/../../../../arm-none-eabi/lib/armv7-m/libm.a(lib_a-w_exp2.o)
                0x000000000000dc48                exp2
 .text.pow      0x000000000000dc58      0x2f8 /usr/local/Cellar/gcc-arm-none-eabi/20140805/bin/../lib/gcc/arm-none-eabi/4.8.4/../../../../arm-none-eabi/lib/armv7-m/libm.a(lib_a-w_pow.o)
                0x000000000000dc58                pow
 .text.__ieee754_sqrt
                0x000000000000df50      0x180 /usr/local/Cellar/gcc-arm-none-eabi/20140805/bin/../lib/gcc/arm-none-eabi/4.8.4/../../../../arm-none-eabi/lib/armv7-m/libm.a(lib_a-e_sqrt.o)
                0x000000000000df50                __ieee754_sqrt
 .text.fabs     0x000000000000e0d0        0x8 /usr/local/Cellar/gcc-arm-none-eabi/20140805/bin/../lib/gcc/arm-none-eabi/4.8.4/../../../../arm-none-eabi/lib/armv7-m/libm.a(lib_a-s_fabs.o)
                0x000000000000e0d0                fabs
 .text.finite   0x000000000000e0d8        0xc /usr/local/Cellar/gcc-arm-none-eabi/20140805/bin/../lib/gcc/arm-none-eabi/4.8.4/../../../../arm-none-eabi/lib/armv7-m/libm.a(lib_a-s_finite.o)
                0x000000000000e0d8                finite
 .text.__fpclassifyd
                0x000000000000e0e4       0x50 /usr/local/Cellar/gcc-arm-none-eabi/20140805/bin/../lib/gcc/arm-none-eabi/4.8.4/../../../../arm-none-eabi/lib/armv7-m/libm.a(lib_a-s_fpclassify.o)
                0x000000000000e0e4                __fpclassifyd
 .text.matherr  0x000000000000e134        0x4 /usr/local/Cellar/gcc-arm-none-eabi/20140805/bin/../lib/gcc/arm-none-eabi/4.8.4/../../../../arm-none-eabi/lib/armv7-m/libm.a(lib_a-s_matherr.o)
                0x000000000000e134                matherr
 .text.nan      0x000000000000e138        0xc /usr/local/Cellar/gcc-arm-none-eabi/20140805/bin/../lib/gcc/arm-none-eabi/4.8.4/../../../../arm-none-eabi/lib/armv7-m/libm.a(lib_a-s_nan.o)
                0x000000000000e138                nan
 .text.rint     0x000000000000e144      0x118 /usr/local/Cellar/gcc-arm-none-eabi/20140805/bin/../lib/gcc/arm-none-eabi/4.8.4/../../../../arm-none-eabi/lib/armv7-m/libm.a(lib_a-s_rint.o)
                0x000000000000e144                rint
 .text.copysign
                0x000000000000e25c       0x14 /usr/local/Cellar/gcc-arm-none-eabi/20140805/bin/../lib/gcc/arm-none-eabi/4.8.4/../../../../arm-none-eabi/lib/armv7-m/libm.a(lib_a-s_copysign.o)
                0x000000000000e25c                copysign
 .text          0x000000000000e270      0x370 /usr/local/Cellar/gcc-arm-none-eabi/20140805/bin/../lib/gcc/arm-none-eabi/4.8.4/armv7-m/libgcc.a(_arm_addsubdf3.o)
                0x000000000000e270                __aeabi_drsub
                0x000000000000e278                __subdf3
                0x000000000000e278                __aeabi_dsub
                0x000000000000e27c                __aeabi_dadd
                0x000000000000e27c                __adddf3
                0x000000000000e4f4                __aeabi_ui2d
                0x000000000000e4f4                __floatunsidf
                0x000000000000e514                __floatsidf
                0x000000000000e514                __aeabi_i2d
                0x000000000000e538                __extendsfdf2
                0x000000000000e538                __aeabi_f2d
                0x000000000000e574                __aeabi_ul2d
                0x000000000000e574                __floatundidf
                0x000000000000e584                __aeabi_l2d
                0x000000000000e584                __floatdidf
 .text          0x000000000000e5e0      0x424 /usr/local/Cellar/gcc-arm-none-eabi/20140805/bin/../lib/gcc/arm-none-eabi/4.8.4/armv7-m/libgcc.a(_arm_muldivdf3.o)
                0x000000000000e5e0                __aeabi_dmul
                0x000000000000e5e0                __muldf3
                0x000000000000e834                __aeabi_ddiv
                0x000000000000e834                __divdf3
 .text          0x000000000000ea04      0x110 /usr/local/Cellar/gcc-arm-none-eabi/20140805/bin/../lib/gcc/arm-none-eabi/4.8.4/armv7-m/libgcc.a(_arm_cmpdf2.o)
                0x000000000000ea04                __gtdf2
                0x000000000000ea04                __gedf2
                0x000000000000ea0c                __ltdf2
                0x000000000000ea0c                __ledf2
                0x000000000000ea14                __eqdf2
                0x000000000000ea14                __nedf2
                0x000000000000ea14                __cmpdf2
                0x000000000000ea90                __aeabi_cdrcmple
                0x000000000000eaa0                __aeabi_cdcmple
                0x000000000000eaa0                __aeabi_cdcmpeq
                0x000000000000eab0                __aeabi_dcmpeq
                0x000000000000eac4                __aeabi_dcmplt
                0x000000000000ead8                __aeabi_dcmple
                0x000000000000eaec                __aeabi_dcmpge
                0x000000000000eb00                __aeabi_dcmpgt
 .text          0x000000000000eb14       0xa0 /usr/local/Cellar/gcc-arm-none-eabi/20140805/bin/../lib/gcc/arm-none-eabi/4.8.4/armv7-m/libgcc.a(_arm_truncdfsf2.o)
                0x000000000000eb14                __aeabi_d2f
                0x000000000000eb14                __truncdfsf2
 .text          0x000000000000ebb4      0x21c /usr/local/Cellar/gcc-arm-none-eabi/20140805/bin/../lib/gcc/arm-none-eabi/4.8.4/armv7-m/libgcc.a(_arm_addsubsf3.o)
                0x000000000000ebb4                __aeabi_frsub
                0x000000000000ebbc                __aeabi_fsub
                0x000000000000ebbc                __subsf3
                0x000000000000ebc0                __aeabi_fadd
                0x000000000000ebc0                __addsf3
                0x000000000000ed20                __aeabi_ui2f
                0x000000000000ed20                __floatunsisf
                0x000000000000ed28                __floatsisf
                0x000000000000ed28                __aeabi_i2f
                0x000000000000ed44                __aeabi_ul2f
                0x000000000000ed44                __floatundisf
                0x000000000000ed54                __aeabi_l2f
                0x000000000000ed54                __floatdisf
 .text          0x000000000000edd0      0x2a0 /usr/local/Cellar/gcc-arm-none-eabi/20140805/bin/../lib/gcc/arm-none-eabi/4.8.4/armv7-m/libgcc.a(_arm_muldivsf3.o)
                0x000000000000edd0                __mulsf3
                0x000000000000edd0                __aeabi_fmul
                0x000000000000ef38                __divsf3
                0x000000000000ef38                __aeabi_fdiv
 .text          0x000000000000f070       0x4c /usr/local/Cellar/gcc-arm-none-eabi/20140805/bin/../lib/gcc/arm-none-eabi/4.8.4/armv7-m/libgcc.a(_arm_fixsfsi.o)
                0x000000000000f070                __fixsfsi
                0x000000000000f070                __aeabi_f2iz
 .text          0x000000000000f0bc       0x2c /usr/local/Cellar/gcc-arm-none-eabi/20140805/bin/../lib/gcc/arm-none-eabi/4.8.4/armv7-m/libgcc.a(_aeabi_uldivmod.o)
                0x000000000000f0bc                __aeabi_uldivmod
 .text          0x000000000000f0e8       0x60 /usr/local/Cellar/gcc-arm-none-eabi/20140805/bin/../lib/gcc/arm-none-eabi/4.8.4/armv7-m/libgcc.a(bpabi.o)
                0x000000000000f0e8                __gnu_ldivmod_helper
                0x000000000000f118                __gnu_uldivmod_helper
 .text          0x000000000000f148        0x4 /usr/local/Cellar/gcc-arm-none-eabi/20140805/bin/../lib/gcc/arm-none-eabi/4.8.4/armv7-m/libgcc.a(_dvmd_tls.o)
                0x000000000000f148                __aeabi_ldiv0
                0x000000000000f148                __aeabi_idiv0
 .text          0x000000000000f14c      0x2a0 /usr/local/Cellar/gcc-arm-none-eabi/20140805/bin/../lib/gcc/arm-none-eabi/4.8.4/armv7-m/libgcc.a(_divdi3.o)
                0x000000000000f14c                __divdi3
 .text          0x000000000000f3ec      0x290 /usr/local/Cellar/gcc-arm-none-eabi/20140805/bin/../lib/gcc/arm-none-eabi/4.8.4/armv7-m/libgcc.a(_udivdi3.o)
                0x000000000000f3ec                __udivdi3
 .text.__errno  0x000000000000f67c        0xc /usr/local/Cellar/gcc-arm-none-eabi/20140805/bin/../lib/gcc/arm-none-eabi/4.8.4/../../../../arm-none-eabi/lib/armv7-m/libc.a(lib_a-errno.o)
                0x000000000000f67c                __errno
 .text.memcmp   0x000000000000f688       0x68 /usr/local/Cellar/gcc-arm-none-eabi/20140805/bin/../lib/gcc/arm-none-eabi/4.8.4/../../../../arm-none-eabi/lib/armv7-m/libc.a(lib_a-memcmp.o)
                0x000000000000f688                memcmp
 .text          0x000000000000f6f0       0xec /usr/local/Cellar/gcc-arm-none-eabi/20140805/bin/../lib/gcc/arm-none-eabi/4.8.4/../../../../arm-none-eabi/lib/armv7-m/libc.a(lib_a-memcpy.o)
                0x000000000000f6f0                memcpy
 .text.memmove  0x000000000000f7dc       0xcc /usr/local/Cellar/gcc-arm-none-eabi/20140805/bin/../lib/gcc/arm-none-eabi/4.8.4/../../../../arm-none-eabi/lib/armv7-m/libc.a(lib_a-memmove.o)
                0x000000000000f7dc                memmove
 .text.memset   0x000000000000f8a8       0x94 /usr/local/Cellar/gcc-arm-none-eabi/20140805/bin/../lib/gcc/arm-none-eabi/4.8.4/../../../../arm-none-eabi/lib/armv7-m/libc.a(lib_a-memset.o)
                0x000000000000f8a8                memset
 .text.srand    0x000000000000f93c       0x10 /usr/local/Cellar/gcc-arm-none-eabi/20140805/bin/../lib/gcc/arm-none-eabi/4.8.4/../../../../arm-none-eabi/lib/armv7-m/libc.a(lib_a-rand.o)
                0x000000000000f93c                srand
 .text.rand     0x000000000000f94c       0x40 /usr/local/Cellar/gcc-arm-none-eabi/20140805/bin/../lib/gcc/arm-none-eabi/4.8.4/../../../../arm-none-eabi/lib/armv7-m/libc.a(lib_a-rand.o)
                0x000000000000f94c                rand
 .text.strlen   0x000000000000f98c       0x60 /usr/local/Cellar/gcc-arm-none-eabi/20140805/bin/../lib/gcc/arm-none-eabi/4.8.4/../../../../arm-none-eabi/lib/armv7-m/libc.a(lib_a-strlen.o)
                0x000000000000f98c                strlen
 *(SORT(.rodata*))
 *fill*         0x000000000000f9ec        0x4 00000000
 .rodata.dp_h   0x000000000000f9f0       0x10 /usr/local/Cellar/gcc-arm-none-eabi/20140805/bin/../lib/gcc/arm-none-eabi/4.8.4/../../../../arm-none-eabi/lib/armv7-m/libm.a(lib_a-e_pow.o)
 .rodata.dp_l   0x000000000000fa00       0x10 /usr/local/Cellar/gcc-arm-none-eabi/20140805/bin/../lib/gcc/arm-none-eabi/4.8.4/../../../../arm-none-eabi/lib/armv7-m/libm.a(lib_a-e_pow.o)
 .rodata.bp     0x000000000000fa10       0x10 /usr/local/Cellar/gcc-arm-none-eabi/20140805/bin/../lib/gcc/arm-none-eabi/4.8.4/../../../../arm-none-eabi/lib/armv7-m/libm.a(lib_a-e_pow.o)
 .rodata.TWO52  0x000000000000fa20       0x10 /usr/local/Cellar/gcc-arm-none-eabi/20140805/bin/../lib/gcc/arm-none-eabi/4.8.4/../../../../arm-none-eabi/lib/armv7-m/libm.a(lib_a-s_rint.o)
 .rodata.autostart_processes
                0x000000000000fa30        0x8 hello-world.co
                0x000000000000fa30                autostart_processes
 .rodata.str1.4
                0x000000000000fa38       0x19 hello-world.co
                                         0x1c (size before relaxing)
 *fill*         0x000000000000fa51        0x3 00000000
 .rodata.str1.4
                0x000000000000fa54       0x99 contiki-srf06-cc26xx.a(contiki-main.o)
                                         0x9c (size before relaxing)
 *fill*         0x000000000000faed        0x3 00000000
 .rodata.str1.4
                0x000000000000faf0        0x8 contiki-srf06-cc26xx.a(sensors.o)
 .rodata.str1.4
                0x000000000000faf8        0x7 contiki-srf06-cc26xx.a(bmp-280-sensor.)
                                          0x8 (size before relaxing)
 *fill*         0x000000000000faff        0x1 00000000
 .rodata.bmp_280_sensor
                0x000000000000fb00       0x10 contiki-srf06-cc26xx.a(bmp-280-sensor.)
                0x000000000000fb00                bmp_280_sensor
 .rodata.tmp_007_sensor
                0x000000000000fb10       0x10 contiki-srf06-cc26xx.a(tmp-007-sensor.)
                0x000000000000fb10                tmp_007_sensor
 .rodata.str1.4
                0x000000000000fb20        0x7 contiki-srf06-cc26xx.a(tmp-007-sensor.)
                                          0x8 (size before relaxing)
 *fill*         0x000000000000fb27        0x1 00000000
 .rodata.str1.4
                0x000000000000fb28        0x8 contiki-srf06-cc26xx.a(opt-3001-sensor)
 .rodata.opt_3001_sensor
                0x000000000000fb30       0x10 contiki-srf06-cc26xx.a(opt-3001-sensor)
                0x000000000000fb30                opt_3001_sensor
 .rodata.hdc_1000_sensor
                0x000000000000fb40       0x10 contiki-srf06-cc26xx.a(hdc-1000-sensor)
                0x000000000000fb40                hdc_1000_sensor
 .rodata.str1.4
                0x000000000000fb50        0x8 contiki-srf06-cc26xx.a(hdc-1000-sensor)
 .rodata.mpu_9250_sensor
                0x000000000000fb58       0x10 contiki-srf06-cc26xx.a(mpu-9250-sensor)
                0x000000000000fb58                mpu_9250_sensor
 .rodata.str1.4
                0x000000000000fb68        0x8 contiki-srf06-cc26xx.a(mpu-9250-sensor)
 .rodata.str1.4
                0x000000000000fb70        0x7 contiki-srf06-cc26xx.a(button-sensor.o)
                                          0x8 (size before relaxing)
 *fill*         0x000000000000fb77        0x1 00000000
 .rodata.button_left_sensor
                0x000000000000fb78       0x10 contiki-srf06-cc26xx.a(button-sensor.o)
                0x000000000000fb78                button_left_sensor
 .rodata.button_right_sensor
                0x000000000000fb88       0x10 contiki-srf06-cc26xx.a(button-sensor.o)
                0x000000000000fb88                button_right_sensor
 .rodata.str1.4
                0x000000000000fb98        0x5 contiki-srf06-cc26xx.a(reed-relay.o)
                                          0x8 (size before relaxing)
 *fill*         0x000000000000fb9d        0x3 00000000
 .rodata.reed_relay_sensor
                0x000000000000fba0       0x10 contiki-srf06-cc26xx.a(reed-relay.o)
                0x000000000000fba0                reed_relay_sensor
 .rodata.output_power
                0x000000000000fbb0       0x68 contiki-srf06-cc26xx.a(ieee-mode.o)
 .rodata.ieee_mode_driver
                0x000000000000fc18       0x38 contiki-srf06-cc26xx.a(ieee-mode.o)
                0x000000000000fc18                ieee_mode_driver
 .rodata.mode_ieee
                0x000000000000fc50        0x8 contiki-srf06-cc26xx.a(ieee-mode.o)
 .rodata.buffer.4014
                0x000000000000fc58       0x10 contiki-srf06-cc26xx.a(strformat.o)
 .rodata.buffer.4005
                0x000000000000fc68       0x10 contiki-srf06-cc26xx.a(strformat.o)
 .rodata.str1.4
                0x000000000000fc78       0x46 contiki-srf06-cc26xx.a(strformat.o)
                                         0x48 (size before relaxing)
 *fill*         0x000000000000fcbe        0x2 00000000
 .rodata.str1.4
                0x000000000000fcc0        0xf contiki-srf06-cc26xx.a(ctimer.o)
                                         0x10 (size before relaxing)
 *fill*         0x000000000000fccf        0x1 00000000
 .rodata.str1.4
                0x000000000000fcd0        0xc contiki-srf06-cc26xx.a(etimer.o)
 .rodata.str1.4
                0x000000000000fcdc        0xe contiki-srf06-cc26xx.a(serial-line.o)
                                         0x10 (size before relaxing)
 *fill*         0x000000000000fcea        0x2 00000000
 .rodata        0x000000000000fcec        0x4 contiki-srf06-cc26xx.a(sicslowpan.o)
 .rodata.ttl_values
                0x000000000000fcf0        0x4 contiki-srf06-cc26xx.a(sicslowpan.o)
 .rodata.unc_llconf
                0x000000000000fcf4        0x4 contiki-srf06-cc26xx.a(sicslowpan.o)
                0x000000000000fcf4                unc_llconf
 .rodata.llprefix
                0x000000000000fcf8        0x4 contiki-srf06-cc26xx.a(sicslowpan.o)
                0x000000000000fcf8                llprefix
 .rodata.unc_mxconf
                0x000000000000fcfc        0x4 contiki-srf06-cc26xx.a(sicslowpan.o)
                0x000000000000fcfc                unc_mxconf
 .rodata.sicslowpan_driver
                0x000000000000fd00        0xc contiki-srf06-cc26xx.a(sicslowpan.o)
                0x000000000000fd00                sicslowpan_driver
 .rodata.unc_ctxconf
                0x000000000000fd0c        0x4 contiki-srf06-cc26xx.a(sicslowpan.o)
                0x000000000000fd0c                unc_ctxconf
 .rodata.str1.4
                0x000000000000fd10        0xb contiki-srf06-cc26xx.a(sicslowpan.o)
                                          0xc (size before relaxing)
 *fill*         0x000000000000fd1b        0x1 00000000
 .rodata.str1.4
                0x000000000000fd1c        0xd contiki-srf06-cc26xx.a(tcpip.o)
                                         0x10 (size before relaxing)
 *fill*         0x000000000000fd29        0x3 00000000
 .rodata.str1.4
                0x000000000000fd2c       0x41 contiki-srf06-cc26xx.a(uip-debug.o)
                                         0x44 (size before relaxing)
 *fill*         0x000000000000fd6d        0x3 00000000
 .rodata.linkaddr_null
                0x000000000000fd70        0x8 contiki-srf06-cc26xx.a(linkaddr.o)
                0x000000000000fd70                linkaddr_null
 .rodata.str1.4
                0x000000000000fd78        0x5 contiki-srf06-cc26xx.a(csma.o)
                                          0x8 (size before relaxing)
 *fill*         0x000000000000fd7d        0x3 00000000
 .rodata.csma_driver
                0x000000000000fd80       0x1c contiki-srf06-cc26xx.a(csma.o)
                0x000000000000fd80                csma_driver
 .rodata.framer_802154
                0x000000000000fd9c        0xc contiki-srf06-cc26xx.a(framer-802154.o)
                0x000000000000fd9c                framer_802154
 .rodata.str1.4
                0x000000000000fda8        0xb contiki-srf06-cc26xx.a(contikimac.o)
                                          0xc (size before relaxing)
 *fill*         0x000000000000fdb3        0x1 00000000
 .rodata.contikimac_driver
                0x000000000000fdb4       0x20 contiki-srf06-cc26xx.a(contikimac.o)
                0x000000000000fdb4                contikimac_driver
 .rodata.str1.4
                0x000000000000fdd4        0x8 contiki-srf06-cc26xx.a(nullsec.o)
 .rodata.nullsec_driver
                0x000000000000fddc       0x10 contiki-srf06-cc26xx.a(nullsec.o)
                0x000000000000fddc                nullsec_driver
 .rodata        0x000000000000fdec        0x4 contiki-srf06-cc26xx.a(ext-flash.o)
 .rodata.str1.4
                0x000000000000fdf0       0x46 contiki-srf06-cc26xx.a(rf-core.o)
                                         0x48 (size before relaxing)
 *fill*         0x000000000000fe36        0x2 00000000
 .rodata.str1.4
                0x000000000000fe38        0x4 /usr/local/Cellar/gcc-arm-none-eabi/20140805/bin/../lib/gcc/arm-none-eabi/4.8.4/../../../../arm-none-eabi/lib/armv7-m/libm.a(lib_a-w_pow.o)
 .rodata.str1.4
                0x0000000000000000        0x4 /usr/local/Cellar/gcc-arm-none-eabi/20140805/bin/../lib/gcc/arm-none-eabi/4.8.4/../../../../arm-none-eabi/lib/armv7-m/libm.a(lib_a-e_pow.o)
 .rodata.str1.4
                0x000000000000fe3c        0x4 /usr/local/Cellar/gcc-arm-none-eabi/20140805/bin/../lib/gcc/arm-none-eabi/4.8.4/../../../../arm-none-eabi/lib/armv7-m/libc.a(lib_a-impure.o)
                0x000000000000fe40                _etext = .

.glue_7         0x000000000000fe40        0x0
 .glue_7        0x0000000000000000        0x0 linker stubs

.glue_7t        0x000000000000fe40        0x0
 .glue_7t       0x0000000000000000        0x0 linker stubs

.vfp11_veneer   0x000000000000fe40        0x0
 .vfp11_veneer  0x0000000000000000        0x0 linker stubs

.v4_bx          0x000000000000fe40        0x0
 .v4_bx         0x0000000000000000        0x0 linker stubs

.iplt           0x000000000000fe40        0x0
 .iplt          0x0000000000000000        0x0 obj_srf06-cc26xx/startup_gcc.o

.data           0x0000000020000000      0x659 load address 0x000000000000fe40
                0x0000000020000000                _data = .
 *(SORT(vtable))
 *(SORT(.data*))
 .data.impure_data
                0x0000000020000000      0x428 /usr/local/Cellar/gcc-arm-none-eabi/20140805/bin/../lib/gcc/arm-none-eabi/4.8.4/../../../../arm-none-eabi/lib/armv7-m/libc.a(lib_a-impure.o)
 .data.receive  0x0000000020000428       0x10 hello-world.co
                0x0000000020000428                receive
 .data.sensors_process
                0x0000000020000438       0x10 contiki-srf06-cc26xx.a(sensors.o)
                0x0000000020000438                sensors_process
 .data.sensors  0x0000000020000448       0x24 contiki-srf06-cc26xx.a(sensortag-senso)
                0x0000000020000448                sensors
 .data.sensortag_module
                0x000000002000046c       0x14 contiki-srf06-cc26xx.a(board.o)
 .data.uart_module
                0x0000000020000480       0x14 contiki-srf06-cc26xx.a(cc26xx-uart.o)
 .data.cc26xx_rf_lpm_module
                0x0000000020000494       0x14 contiki-srf06-cc26xx.a(ieee-mode.o)
 .data.tx_power_current
                0x00000000200004a8        0x4 contiki-srf06-cc26xx.a(ieee-mode.o)
                0x00000000200004a8                tx_power_current
 .data.ieee_overrides
                0x00000000200004ac       0x2c contiki-srf06-cc26xx.a(ieee-mode.o)
 .data.ctxt     0x00000000200004d8        0x8 contiki-srf06-cc26xx.a(dbg-printf.o)
 .data.ctimer_process
                0x00000000200004e0       0x10 contiki-srf06-cc26xx.a(ctimer.o)
                0x00000000200004e0                ctimer_process
 .data.etimer_process
                0x00000000200004f0       0x10 contiki-srf06-cc26xx.a(etimer.o)
                0x00000000200004f0                etimer_process
 .data.serial_line_process
                0x0000000020000500       0x10 contiki-srf06-cc26xx.a(serial-line.o)
                0x0000000020000500                serial_line_process
 .data.ds6_neighbors
                0x0000000020000510        0x4 contiki-srf06-cc26xx.a(uip-ds6-nbr.o)
                0x0000000020000510                ds6_neighbors
 .data.ds6_neighbors_struct
                0x0000000020000514       0x10 contiki-srf06-cc26xx.a(uip-ds6-nbr.o)
 .data.defaultroutermemb
                0x0000000020000524        0xc contiki-srf06-cc26xx.a(uip-ds6-route.o)
 .data.nbr_routes_struct
                0x0000000020000530       0x10 contiki-srf06-cc26xx.a(uip-ds6-route.o)
 .data.nbr_routes
                0x0000000020000540        0x4 contiki-srf06-cc26xx.a(uip-ds6-route.o)
                0x0000000020000540                nbr_routes
 .data.routememb
                0x0000000020000544        0xc contiki-srf06-cc26xx.a(uip-ds6-route.o)
 .data.neighborroutememb
                0x0000000020000550        0xc contiki-srf06-cc26xx.a(uip-ds6-route.o)
 .data.tcpip_process
                0x000000002000055c       0x10 contiki-srf06-cc26xx.a(tcpip.o)
                0x000000002000055c                tcpip_process
 .data.rpl_parents
                0x000000002000056c        0x4 contiki-srf06-cc26xx.a(rpl-dag.o)
                0x000000002000056c                rpl_parents
 .data.rpl_parents_struct
                0x0000000020000570       0x10 contiki-srf06-cc26xx.a(rpl-dag.o)
 .data.dao_ack_handler
                0x0000000020000580        0xc contiki-srf06-cc26xx.a(rpl-icmp6.o)
 .data.dis_handler
                0x000000002000058c        0xc contiki-srf06-cc26xx.a(rpl-icmp6.o)
 .data.dao_handler
                0x0000000020000598        0xc contiki-srf06-cc26xx.a(rpl-icmp6.o)
 .data.dio_handler
                0x00000000200005a4        0xc contiki-srf06-cc26xx.a(rpl-icmp6.o)
 .data.rpl_mrhof
                0x00000000200005b0       0x1c contiki-srf06-cc26xx.a(rpl-mrhof.o)
                0x00000000200005b0                rpl_mrhof
 .data.neighbor_addr_mem
                0x00000000200005cc        0xc contiki-srf06-cc26xx.a(nbr-table.o)
 .data.bufmem   0x00000000200005d8        0xc contiki-srf06-cc26xx.a(queuebuf.o)
 .data.buframmem
                0x00000000200005e4        0xc contiki-srf06-cc26xx.a(queuebuf.o)
 .data.metadata_memb
                0x00000000200005f0        0xc contiki-srf06-cc26xx.a(csma.o)
 .data.neighbor_memb
                0x00000000200005fc        0xc contiki-srf06-cc26xx.a(csma.o)
 .data.packet_memb
                0x0000000020000608        0xc contiki-srf06-cc26xx.a(csma.o)
 .data.buzzer_module
                0x0000000020000614       0x14 contiki-srf06-cc26xx.a(buzzer.o)
 .data.rf_core_process
                0x0000000020000628       0x10 contiki-srf06-cc26xx.a(rf-core.o)
                0x0000000020000628                rf_core_process
 .data.echo_request_handler
                0x0000000020000638        0xc contiki-srf06-cc26xx.a(uip-icmp6.o)
 .data.echo_reply_handler
                0x0000000020000644        0xc contiki-srf06-cc26xx.a(uip-icmp6.o)
 .data._impure_ptr
                0x0000000020000650        0x4 /usr/local/Cellar/gcc-arm-none-eabi/20140805/bin/../lib/gcc/arm-none-eabi/4.8.4/../../../../arm-none-eabi/lib/armv7-m/libc.a(lib_a-impure.o)
                0x0000000020000650                _impure_ptr
 .data.mac_pan_id
                0x0000000020000654        0x2 contiki-srf06-cc26xx.a(frame802154.o)
 .data.interface
                0x0000000020000656        0x1 contiki-srf06-cc26xx.a(board-i2c.o)
 .data.dao_sequence
                0x0000000020000657        0x1 contiki-srf06-cc26xx.a(rpl-icmp6.o)
 .data.__fdlib_version
                0x0000000020000658        0x1 /usr/local/Cellar/gcc-arm-none-eabi/20140805/bin/../lib/gcc/arm-none-eabi/4.8.4/../../../../arm-none-eabi/lib/armv7-m/libm.a(lib_a-s_lib_ver.o)
                0x0000000020000658                __fdlib_version
                0x0000000020000659                _edata = .

.igot.plt       0x000000002000065c        0x0 load address 0x0000000000010499
 .igot.plt      0x0000000000000000        0x0 obj_srf06-cc26xx/startup_gcc.o

.ARM.exidx      0x000000000001049c        0x8
 *(SORT(.ARM.exidx*))
 .ARM.exidx     0x000000000001049c        0x8 /usr/local/Cellar/gcc-arm-none-eabi/20140805/bin/../lib/gcc/arm-none-eabi/4.8.4/armv7-m/libgcc.a(_divdi3.o)
 .ARM.exidx     0x00000000000104a4        0x0 /usr/local/Cellar/gcc-arm-none-eabi/20140805/bin/../lib/gcc/arm-none-eabi/4.8.4/armv7-m/libgcc.a(_udivdi3.o)
                                          0x8 (size before relaxing)

.bss            0x0000000020000660     0x2b02
                0x0000000020000660                _bss = .
 *(SORT(.bss*))
 .bss.count     0x0000000020000660        0x8 contiki-srf06-cc26xx.a(clock.o)
 .bss.i.4723    0x0000000020000668        0x4 contiki-srf06-cc26xx.a(sensors.o)
 .bss.events.4724
                0x000000002000066c        0x4 contiki-srf06-cc26xx.a(sensors.o)
 .bss.inited    0x0000000020000670        0x4 contiki-srf06-cc26xx.a(leds-arch.o)
 .bss.sensor_value
                0x0000000020000674        0x8 contiki-srf06-cc26xx.a(bmp-280-sensor.)
 .bss.calibration_data
                0x000000002000067c       0x18 contiki-srf06-cc26xx.a(bmp-280-sensor.)
 .bss.startup_timer
                0x0000000020000694       0x20 contiki-srf06-cc26xx.a(bmp-280-sensor.)
 .bss.enabled   0x00000000200006b4        0x4 contiki-srf06-cc26xx.a(bmp-280-sensor.)
 .bss.obj_temp_latched
                0x00000000200006b8        0x4 contiki-srf06-cc26xx.a(tmp-007-sensor.)
 .bss.startup_timer
                0x00000000200006bc       0x20 contiki-srf06-cc26xx.a(tmp-007-sensor.)
 .bss.enabled   0x00000000200006dc        0x4 contiki-srf06-cc26xx.a(tmp-007-sensor.)
 .bss.buf       0x00000000200006e0        0x4 contiki-srf06-cc26xx.a(tmp-007-sensor.)
 .bss.amb_temp_latched
                0x00000000200006e4        0x4 contiki-srf06-cc26xx.a(tmp-007-sensor.)
 .bss.startup_timer
                0x00000000200006e8       0x20 contiki-srf06-cc26xx.a(opt-3001-sensor)
 .bss.state     0x0000000020000708        0x4 contiki-srf06-cc26xx.a(opt-3001-sensor)
 .bss.startup_timer
                0x000000002000070c       0x20 contiki-srf06-cc26xx.a(hdc-1000-sensor)
 .bss.enabled   0x000000002000072c        0x4 contiki-srf06-cc26xx.a(hdc-1000-sensor)
 .bss.data      0x0000000020000730        0x4 contiki-srf06-cc26xx.a(hdc-1000-sensor)
 .bss.sensor_value
                0x0000000020000734        0x8 contiki-srf06-cc26xx.a(mpu-9250-sensor)
 .bss.startup_timer
                0x000000002000073c       0x20 contiki-srf06-cc26xx.a(mpu-9250-sensor)
 .bss.state     0x000000002000075c        0x4 contiki-srf06-cc26xx.a(mpu-9250-sensor)
 .bss.elements  0x0000000020000760        0x4 contiki-srf06-cc26xx.a(mpu-9250-sensor)
 .bss.left_timer
                0x0000000020000764       0x10 contiki-srf06-cc26xx.a(button-sensor.o)
 .bss.debouncetimer
                0x0000000020000774        0x8 contiki-srf06-cc26xx.a(reed-relay.o)
 .bss.last_isr_time
                0x000000002000077c        0x4 contiki-srf06-cc26xx.a(soc-rtc.o)
 .bss.input_handler
                0x0000000020000780        0x4 contiki-srf06-cc26xx.a(cc26xx-uart.o)
 .bss.modules_list_list
                0x0000000020000784        0x4 contiki-srf06-cc26xx.a(lpm.o)
 .bss.handlers  0x0000000020000788       0x80 contiki-srf06-cc26xx.a(gpio-interrupt.)
 .bss.rf_stats  0x0000000020000808       0x10 contiki-srf06-cc26xx.a(ieee-mode.o)
 .bss.rx_data_queue
                0x0000000020000818        0x8 contiki-srf06-cc26xx.a(ieee-mode.o)
 .bss.rx_read_entry
                0x0000000020000820        0x4 contiki-srf06-cc26xx.a(ieee-mode.o)
 .bss.cmd_ieee_rx_buf
                0x0000000020000824       0x80 contiki-srf06-cc26xx.a(ieee-mode.o)
 .bss.tx_buf    0x00000000200008a4       0xb8 contiki-srf06-cc26xx.a(ieee-mode.o)
 .bss.rx_buf_1  0x000000002000095c       0x8c contiki-srf06-cc26xx.a(ieee-mode.o)
 .bss.rx_buf_0  0x00000000200009e8       0x8c contiki-srf06-cc26xx.a(ieee-mode.o)
 .bss.rx_buf_2  0x0000000020000a74       0x8c contiki-srf06-cc26xx.a(ieee-mode.o)
 .bss.rx_buf_3  0x0000000020000b00       0x8c contiki-srf06-cc26xx.a(ieee-mode.o)
 .bss.ctimer_list_list
                0x0000000020000b8c        0x4 contiki-srf06-cc26xx.a(ctimer.o)
 .bss.timerlist
                0x0000000020000b90        0x4 contiki-srf06-cc26xx.a(etimer.o)
 .bss.next_expiration
                0x0000000020000b94        0x4 contiki-srf06-cc26xx.a(etimer.o)
 .bss.p.5116    0x0000000020000b98        0x4 contiki-srf06-cc26xx.a(process.o)
 .bss.receiver.5115
                0x0000000020000b9c        0x4 contiki-srf06-cc26xx.a(process.o)
 .bss.process_current
                0x0000000020000ba0        0x4 contiki-srf06-cc26xx.a(process.o)
                0x0000000020000ba0                process_current
 .bss.process_list
                0x0000000020000ba4        0x4 contiki-srf06-cc26xx.a(process.o)
                0x0000000020000ba4                process_list
 .bss.events    0x0000000020000ba8      0x180 contiki-srf06-cc26xx.a(process.o)
 .bss.data.5114
                0x0000000020000d28        0x4 contiki-srf06-cc26xx.a(process.o)
 .bss.next_rtimer
                0x0000000020000d2c        0x4 contiki-srf06-cc26xx.a(rtimer.o)
 .bss.rxbuf_data
                0x0000000020000d30       0x80 contiki-srf06-cc26xx.a(serial-line.o)
 .bss.rxbuf     0x0000000020000db0        0x8 contiki-srf06-cc26xx.a(serial-line.o)
 .bss.ptr.4708  0x0000000020000db8        0x4 contiki-srf06-cc26xx.a(serial-line.o)
 .bss.buf.4707  0x0000000020000dbc       0x80 contiki-srf06-cc26xx.a(serial-line.o)
 .bss.packetbuf_payload_len
                0x0000000020000e3c        0x4 contiki-srf06-cc26xx.a(sicslowpan.o)
 .bss.last_rssi
                0x0000000020000e40        0x4 contiki-srf06-cc26xx.a(sicslowpan.o)
 .bss.hc06_ptr  0x0000000020000e44        0x4 contiki-srf06-cc26xx.a(sicslowpan.o)
 .bss.reass_timer
                0x0000000020000e48        0x8 contiki-srf06-cc26xx.a(sicslowpan.o)
 .bss.context   0x0000000020000e50        0x4 contiki-srf06-cc26xx.a(sicslowpan.o)
 .bss.addr_contexts
                0x0000000020000e54        0xc contiki-srf06-cc26xx.a(sicslowpan.o)
 .bss.packetbuf_ptr
                0x0000000020000e60        0x4 contiki-srf06-cc26xx.a(sicslowpan.o)
 .bss.last_tx_status
                0x0000000020000e64        0x4 contiki-srf06-cc26xx.a(sicslowpan.o)
 .bss.sicslowpan_aligned_buf
                0x0000000020000e68      0x3e8 contiki-srf06-cc26xx.a(sicslowpan.o)
 .bss.callback  0x0000000020001250        0x4 contiki-srf06-cc26xx.a(sicslowpan.o)
 .bss._ds6_neighbors_mem
                0x0000000020001254      0x320 contiki-srf06-cc26xx.a(uip-ds6-nbr.o)
 .bss.defaultroutermemb_memb_mem
                0x0000000020001574       0x40 contiki-srf06-cc26xx.a(uip-ds6-route.o)
 .bss.num_routes
                0x00000000200015b4        0x4 contiki-srf06-cc26xx.a(uip-ds6-route.o)
 .bss.defaultroutermemb_memb_count
                0x00000000200015b8        0x4 contiki-srf06-cc26xx.a(uip-ds6-route.o)
 .bss.defaultrouterlist_list
                0x00000000200015bc        0x4 contiki-srf06-cc26xx.a(uip-ds6-route.o)
 .bss._nbr_routes_mem
                0x00000000200015c0       0xa0 contiki-srf06-cc26xx.a(uip-ds6-route.o)
 .bss.routelist_list
                0x0000000020001660        0x4 contiki-srf06-cc26xx.a(uip-ds6-route.o)
 .bss.routememb_memb_mem
                0x0000000020001664      0x320 contiki-srf06-cc26xx.a(uip-ds6-route.o)
 .bss.neighborroutememb_memb_mem
                0x0000000020001984       0xa0 contiki-srf06-cc26xx.a(uip-ds6-route.o)
 .bss.notificationlist_list
                0x0000000020001a24        0x4 contiki-srf06-cc26xx.a(uip-ds6-route.o)
 .bss.neighborroutememb_memb_count
                0x0000000020001a28       0x14 contiki-srf06-cc26xx.a(uip-ds6-route.o)
 .bss.routememb_memb_count
                0x0000000020001a3c       0x14 contiki-srf06-cc26xx.a(uip-ds6-route.o)
 .bss.locmaddr  0x0000000020001a50        0x4 contiki-srf06-cc26xx.a(uip-ds6.o)
 .bss.locprefix
                0x0000000020001a54        0x4 contiki-srf06-cc26xx.a(uip-ds6.o)
 .bss.locaddr   0x0000000020001a58        0x4 contiki-srf06-cc26xx.a(uip-ds6.o)
 .bss.loc_fipaddr
                0x0000000020001a5c       0x10 contiki-srf06-cc26xx.a(uip-ds6.o)
 .bss.iss       0x0000000020001a6c        0x4 contiki-srf06-cc26xx.a(uip6.o)
 .bss.s         0x0000000020001a70       0xa4 contiki-srf06-cc26xx.a(tcpip.o)
 .bss.periodic  0x0000000020001b14       0x10 contiki-srf06-cc26xx.a(tcpip.o)
 .bss.outputfunc
                0x0000000020001b24        0x4 contiki-srf06-cc26xx.a(tcpip.o)
 .bss._rpl_parents_mem
                0x0000000020001b28      0x140 contiki-srf06-cc26xx.a(rpl-dag.o)
 .bss.periodic_timer
                0x0000000020001c68       0x20 contiki-srf06-cc26xx.a(rpl-timers.o)
 .bss.powerQualGlobals
                0x0000000020001c88        0x8 contiki-srf06-cc26xx.a(sys_ctrl.o)
 .bss.neighbor_addr_mem_memb_count
                0x0000000020001c90       0x14 contiki-srf06-cc26xx.a(nbr-table.o)
 .bss.locked_map
                0x0000000020001ca4       0x14 contiki-srf06-cc26xx.a(nbr-table.o)
 .bss.nbr_table_keys_list
                0x0000000020001cb8        0x4 contiki-srf06-cc26xx.a(nbr-table.o)
 .bss.neighbor_addr_mem_memb_mem
                0x0000000020001cbc       0xf0 contiki-srf06-cc26xx.a(nbr-table.o)
 .bss.used_map  0x0000000020001dac       0x14 contiki-srf06-cc26xx.a(nbr-table.o)
 .bss.all_tables
                0x0000000020001dc0       0x20 contiki-srf06-cc26xx.a(nbr-table.o)
 .bss.num_tables
                0x0000000020001de0        0x4 contiki-srf06-cc26xx.a(nbr-table.o)
 .bss.packetbufptr
                0x0000000020001de4        0x4 contiki-srf06-cc26xx.a(packetbuf.o)
 .bss.packetbuf_aligned
                0x0000000020001de8       0xb0 contiki-srf06-cc26xx.a(packetbuf.o)
 .bss.buframmem_memb_count
                0x0000000020001e98        0x8 contiki-srf06-cc26xx.a(queuebuf.o)
 .bss.bufmem_memb_mem
                0x0000000020001ea0       0x20 contiki-srf06-cc26xx.a(queuebuf.o)
 .bss.buframmem_memb_mem
                0x0000000020001ec0      0x580 contiki-srf06-cc26xx.a(queuebuf.o)
 .bss.bufmem_memb_count
                0x0000000020002440        0x8 contiki-srf06-cc26xx.a(queuebuf.o)
 .bss.metadata_memb_memb_count
                0x0000000020002448        0x8 contiki-srf06-cc26xx.a(csma.o)
 .bss.packet_memb_memb_count
                0x0000000020002450        0x8 contiki-srf06-cc26xx.a(csma.o)
 .bss.metadata_memb_memb_mem
                0x0000000020002458       0x60 contiki-srf06-cc26xx.a(csma.o)
 .bss.neighbor_list_list
                0x00000000200024b8        0x4 contiki-srf06-cc26xx.a(csma.o)
 .bss.packet_memb_memb_mem
                0x00000000200024bc       0x60 contiki-srf06-cc26xx.a(csma.o)
 .bss.neighbor_memb_memb_count
                0x000000002000251c        0x4 contiki-srf06-cc26xx.a(csma.o)
 .bss.neighbor_memb_memb_mem
                0x0000000020002520       0x70 contiki-srf06-cc26xx.a(csma.o)
 .bss.cycle_start
                0x0000000020002590        0x4 contiki-srf06-cc26xx.a(contikimac.o)
 .bss.we_are_receiving_burst
                0x0000000020002594        0x4 contiki-srf06-cc26xx.a(contikimac.o)
 .bss.rt        0x0000000020002598        0xc contiki-srf06-cc26xx.a(contikimac.o)
 .bss.ct.6904   0x00000000200025a4       0x20 contiki-srf06-cc26xx.a(contikimac.o)
 .bss.pt        0x00000000200025c4        0x4 contiki-srf06-cc26xx.a(contikimac.o)
 .bss.start.6829
                0x00000000200025c8        0x4 contiki-srf06-cc26xx.a(contikimac.o)
 .bss.buffer    0x00000000200025cc       0x20 contiki-srf06-cc26xx.a(sensor-common.o)
 .bss.last_radio_op
                0x00000000200025ec        0x4 contiki-srf06-cc26xx.a(rf-core.o)
 .bss.primary_mode
                0x00000000200025f0        0x4 contiki-srf06-cc26xx.a(rf-core.o)
 .bss.tmp_ipaddr
                0x00000000200025f4       0x10 contiki-srf06-cc26xx.a(uip-icmp6.o)
 .bss.echo_reply_callback_list_list
                0x0000000020002604        0x4 contiki-srf06-cc26xx.a(uip-icmp6.o)
 .bss.input_handler_list_list
                0x0000000020002608        0x4 contiki-srf06-cc26xx.a(uip-icmp6.o)
 .bss.received_seqnos
                0x000000002000260c       0x90 contiki-srf06-cc26xx.a(mac-sequence.o)
 .bss.val       0x000000002000269c        0x2 contiki-srf06-cc26xx.a(tmp-007-sensor.)
 .bss.raw_temp  0x000000002000269e        0x2 contiki-srf06-cc26xx.a(hdc-1000-sensor)
 .bss.raw_hum   0x00000000200026a0        0x2 contiki-srf06-cc26xx.a(hdc-1000-sensor)
 .bss.reass_tag
                0x00000000200026a2        0x2 contiki-srf06-cc26xx.a(sicslowpan.o)
 .bss.sicslowpan_len
                0x00000000200026a4        0x2 contiki-srf06-cc26xx.a(sicslowpan.o)
 .bss.my_tag    0x00000000200026a6        0x2 contiki-srf06-cc26xx.a(sicslowpan.o)
 .bss.processed_ip_in_len
                0x00000000200026a8        0x2 contiki-srf06-cc26xx.a(sicslowpan.o)
 .bss.tmp16     0x00000000200026aa        0x2 contiki-srf06-cc26xx.a(uip6.o)
 .bss.lastport  0x00000000200026ac        0x2 contiki-srf06-cc26xx.a(uip6.o)
 .bss.next_dis  0x00000000200026ae        0x2 contiki-srf06-cc26xx.a(rpl-timers.o)
 .bss.buflen    0x00000000200026b0        0x2 contiki-srf06-cc26xx.a(packetbuf.o)
 .bss.bufptr    0x00000000200026b2        0x2 contiki-srf06-cc26xx.a(packetbuf.o)
 .bss.seqno.6085
                0x00000000200026b4        0x2 contiki-srf06-cc26xx.a(csma.o)
 .bss.num_sensors
                0x00000000200026b6        0x1 contiki-srf06-cc26xx.a(sensors.o)
 .bss.leds      0x00000000200026b7        0x1 contiki-srf06-cc26xx.a(leds.o)
 .bss.c         0x00000000200026b8        0x1 contiki-srf06-cc26xx.a(leds-arch.o)
 .bss.success   0x00000000200026b9        0x1 contiki-srf06-cc26xx.a(hdc-1000-sensor)
 .bss.interrupt_status
                0x00000000200026ba        0x1 contiki-srf06-cc26xx.a(mpu-9250-sensor)
 .bss.acc_range_reg
                0x00000000200026bb        0x1 contiki-srf06-cc26xx.a(mpu-9250-sensor)
 .bss.mpu_config
                0x00000000200026bc        0x1 contiki-srf06-cc26xx.a(mpu-9250-sensor)
 .bss.acc_range
                0x00000000200026bd        0x1 contiki-srf06-cc26xx.a(mpu-9250-sensor)
 .bss.val       0x00000000200026be        0x1 contiki-srf06-cc26xx.a(mpu-9250-sensor)
 .bss.slave_addr
                0x00000000200026bf        0x1 contiki-srf06-cc26xx.a(board-i2c.o)
 .bss.initialized
                0x00000000200026c0        0x1 contiki-srf06-cc26xx.a(ctimer.o)
 .bss.fevent    0x00000000200026c1        0x1 contiki-srf06-cc26xx.a(process.o)
 .bss.ev.5113   0x00000000200026c2        0x1 contiki-srf06-cc26xx.a(process.o)
 .bss.nevents   0x00000000200026c3        0x1 contiki-srf06-cc26xx.a(process.o)
 .bss.snum.5131
                0x00000000200026c4        0x1 contiki-srf06-cc26xx.a(process.o)
 .bss.poll_requested
                0x00000000200026c5        0x1 contiki-srf06-cc26xx.a(process.o)
 .bss.lastevent
                0x00000000200026c6        0x1 contiki-srf06-cc26xx.a(process.o)
 .bss.uncomp_hdr_len
                0x00000000200026c7        0x1 contiki-srf06-cc26xx.a(sicslowpan.o)
 .bss.packetbuf_hdr_len
                0x00000000200026c8        0x1 contiki-srf06-cc26xx.a(sicslowpan.o)
 .bss.uip_ext_len
                0x00000000200026c9        0x1 contiki-srf06-cc26xx.a(uip6.o)
                0x00000000200026c9                uip_ext_len
 .bss.uip_ext_bitmap
                0x00000000200026ca        0x1 contiki-srf06-cc26xx.a(uip6.o)
                0x00000000200026ca                uip_ext_bitmap
 .bss.uip_ext_opt_offset
                0x00000000200026cb        0x1 contiki-srf06-cc26xx.a(uip6.o)
                0x00000000200026cb                uip_ext_opt_offset
 .bss.c         0x00000000200026cc        0x1 contiki-srf06-cc26xx.a(uip6.o)
 .bss.opt       0x00000000200026cd        0x1 contiki-srf06-cc26xx.a(uip6.o)
 .bss.i.7689    0x00000000200026ce        0x1 contiki-srf06-cc26xx.a(tcpip.o)
 .bss.i.7633    0x00000000200026cf        0x1 contiki-srf06-cc26xx.a(tcpip.o)
 .bss.i.7677    0x00000000200026d0        0x1 contiki-srf06-cc26xx.a(tcpip.o)
 .bss.dio_send_ok
                0x00000000200026d1        0x1 contiki-srf06-cc26xx.a(rpl-timers.o)
 .bss.mode      0x00000000200026d2        0x1 contiki-srf06-cc26xx.a(rpl.o)
 .bss.hdrptr    0x00000000200026d3        0x1 contiki-srf06-cc26xx.a(packetbuf.o)
 .bss.initialized.6084
                0x00000000200026d4        0x1 contiki-srf06-cc26xx.a(csma.o)
 .bss.mac_dsn   0x00000000200026d5        0x1 contiki-srf06-cc26xx.a(framer-802154.o)
 .bss.initialized
                0x00000000200026d6        0x1 contiki-srf06-cc26xx.a(framer-802154.o)
 .bss.packet_seen.6823
                0x00000000200026d7        0x1 contiki-srf06-cc26xx.a(contikimac.o)
 .bss.radio_is_on
                0x00000000200026d8        0x1 contiki-srf06-cc26xx.a(contikimac.o)
 .bss.count.6824
                0x00000000200026d9        0x1 contiki-srf06-cc26xx.a(contikimac.o)
 .bss.we_are_sending
                0x00000000200026da        0x1 contiki-srf06-cc26xx.a(contikimac.o)
 .bss.contikimac_keep_radio_on
                0x00000000200026db        0x1 contiki-srf06-cc26xx.a(contikimac.o)
 .bss.silence_periods.6830
                0x00000000200026dc        0x1 contiki-srf06-cc26xx.a(contikimac.o)
 .bss.contikimac_is_on
                0x00000000200026dd        0x1 contiki-srf06-cc26xx.a(contikimac.o)
 .bss.periods.6831
                0x00000000200026de        0x1 contiki-srf06-cc26xx.a(contikimac.o)
 .bss.buzzer_on
                0x00000000200026df        0x1 contiki-srf06-cc26xx.a(buzzer.o)
 .bss.ble_mode_on
                0x00000000200026e0        0x1 contiki-srf06-cc26xx.a(rf-ble.o)
 *(SORT(COMMON))
 *fill*         0x00000000200026e1        0x3 
 COMMON         0x00000000200026e4        0x9 contiki-srf06-cc26xx.a(sensortag-senso)
                0x00000000200026e4                sensors_flags
 *fill*         0x00000000200026ed        0x3 
 COMMON         0x00000000200026f0        0x4 contiki-srf06-cc26xx.a(mpu-9250-sensor)
                0x00000000200026f0                t0
 COMMON         0x00000000200026f4        0x8 contiki-srf06-cc26xx.a(sicslowpan.o)
                0x00000000200026f4                frag_sender
 COMMON         0x00000000200026fc      0x174 contiki-srf06-cc26xx.a(uip-ds6.o)
                0x00000000200026fc                uip_ds6_timer_ra
                0x0000000020002704                uip_ds6_if
                0x00000000200027fc                uip_ds6_netif_addr_list_offset
                0x00000000200027fd                uip_ds6_addr_size
                0x0000000020002800                uip_ds6_prefix_list
                0x0000000020002860                uip_ds6_timer_periodic
 COMMON         0x0000000020002870      0x764 contiki-srf06-cc26xx.a(uip6.o)
                0x0000000020002870                uip_len
                0x0000000020002874                uip_sappdata
                0x0000000020002878                uip_acc32
                0x000000002000287c                uip_lladdr
                0x0000000020002884                uip_aligned_buf
                0x0000000020002c6c                uip_flags
                0x0000000020002c70                uip_next_hdr
                0x0000000020002c74                uip_udp_conn
                0x0000000020002c78                uip_appdata
                0x0000000020002c7c                uip_conn
                0x0000000020002c80                uip_conns
                0x0000000020002e60                uip_icmp6_conns
                0x0000000020002e68                uip_listenports
                0x0000000020002e90                uip_slen
                0x0000000020002e94                uip_udp_conns
 COMMON         0x0000000020002fd4      0x154 contiki-srf06-cc26xx.a(rpl-dag.o)
                0x0000000020002fd4                default_instance
                0x0000000020002fd8                instance_table
 COMMON         0x0000000020003128        0x8 contiki-srf06-cc26xx.a(linkaddr.o)
                0x0000000020003128                linkaddr_node_addr
 COMMON         0x0000000020003130       0x2e contiki-srf06-cc26xx.a(packetbuf.o)
                0x0000000020003130                packetbuf_addrs
                0x0000000020003140                packetbuf_attrs
 COMMON         0x000000002000315e        0x1 contiki-srf06-cc26xx.a(sensors.o)
                0x000000002000315e                sensors_event
 COMMON         0x000000002000315f        0x1 contiki-srf06-cc26xx.a(serial-line.o)
                0x000000002000315f                serial_line_event_message
 COMMON         0x0000000020003160        0x2 contiki-srf06-cc26xx.a(tcpip.o)
                0x0000000020003160                tcpip_event
                0x0000000020003161                tcpip_icmp6_event
                0x0000000020003162                _ebss = .

.ccfg           0x000000000001ffa8       0x58
 *(SORT(.ccfg))
 .ccfg          0x000000000001ffa8       0x58 obj_srf06-cc26xx/ccfg.o
                0x000000000001ffa8                __ccfg

.rel.dyn        0x0000000000020000        0x0
 .rel.iplt      0x0000000000000000        0x0 obj_srf06-cc26xx/startup_gcc.o

._user_heap_stack
                0x0000000020003162      0x102
                0x0000000020003164                . = ALIGN (0x4)
 *fill*         0x0000000020003162        0x2 
                0x0000000020003164                . = (. + _Min_Heap_Size)
                0x0000000020003264                . = (. + _Min_Stack_Size)
 *fill*         0x0000000020003164      0x100 
                0x0000000020003264                . = ALIGN (0x4)

.gpram
OUTPUT(hello-world.elf elf32-littlearm)

.comment        0x0000000000000000       0x70
 .comment       0x0000000000000000       0x70 obj_srf06-cc26xx/fault-handlers.o
                                         0x71 (size before relaxing)
 .comment       0x0000000000000000       0x71 obj_srf06-cc26xx/ccfg.o
 .comment       0x0000000000000000       0x71 obj_srf06-cc26xx/startup_gcc.o
 .comment       0x0000000000000000       0x71 hello-world.co
 .comment       0x0000000000000000       0x71 contiki-srf06-cc26xx.a(contiki-main.o)
 .comment       0x0000000000000000       0x71 contiki-srf06-cc26xx.a(sensors.o)
 .comment       0x0000000000000000       0x71 contiki-srf06-cc26xx.a(leds.o)
 .comment       0x0000000000000000       0x71 contiki-srf06-cc26xx.a(leds-arch.o)
 .comment       0x0000000000000000       0x71 contiki-srf06-cc26xx.a(sensortag-senso)
 .comment       0x0000000000000000       0x71 contiki-srf06-cc26xx.a(bmp-280-sensor.)
 .comment       0x0000000000000000       0x71 contiki-srf06-cc26xx.a(tmp-007-sensor.)
 .comment       0x0000000000000000       0x71 contiki-srf06-cc26xx.a(opt-3001-sensor)
 .comment       0x0000000000000000       0x71 contiki-srf06-cc26xx.a(hdc-1000-sensor)
 .comment       0x0000000000000000       0x71 contiki-srf06-cc26xx.a(mpu-9250-sensor)
 .comment       0x0000000000000000       0x71 contiki-srf06-cc26xx.a(button-sensor.o)
 .comment       0x0000000000000000       0x71 contiki-srf06-cc26xx.a(reed-relay.o)
 .comment       0x0000000000000000       0x71 contiki-srf06-cc26xx.a(board.o)
 .comment       0x0000000000000000       0x71 contiki-srf06-cc26xx.a(board-i2c.o)
 .comment       0x0000000000000000       0x71 contiki-srf06-cc26xx.a(clock.o)
 .comment       0x0000000000000000       0x71 contiki-srf06-cc26xx.a(rtimer-arch.o)
 .comment       0x0000000000000000       0x71 contiki-srf06-cc26xx.a(soc-rtc.o)
 .comment       0x0000000000000000       0x71 contiki-srf06-cc26xx.a(contiki-watchdo)
 .comment       0x0000000000000000       0x71 contiki-srf06-cc26xx.a(putchar.o)
 .comment       0x0000000000000000       0x71 contiki-srf06-cc26xx.a(ieee-addr.o)
 .comment       0x0000000000000000       0x71 contiki-srf06-cc26xx.a(cc26xx-uart.o)
 .comment       0x0000000000000000       0x71 contiki-srf06-cc26xx.a(lpm.o)
 .comment       0x0000000000000000       0x71 contiki-srf06-cc26xx.a(gpio-interrupt.)
 .comment       0x0000000000000000       0x71 contiki-srf06-cc26xx.a(oscillators.o)
 .comment       0x0000000000000000       0x71 contiki-srf06-cc26xx.a(ieee-mode.o)
 .comment       0x0000000000000000       0x71 contiki-srf06-cc26xx.a(dbg-printf.o)
 .comment       0x0000000000000000       0x71 contiki-srf06-cc26xx.a(strformat.o)
 .comment       0x0000000000000000       0x71 contiki-srf06-cc26xx.a(autostart.o)
 .comment       0x0000000000000000       0x71 contiki-srf06-cc26xx.a(ctimer.o)
 .comment       0x0000000000000000       0x71 contiki-srf06-cc26xx.a(energest.o)
 .comment       0x0000000000000000       0x71 contiki-srf06-cc26xx.a(etimer.o)
 .comment       0x0000000000000000       0x71 contiki-srf06-cc26xx.a(process.o)
 .comment       0x0000000000000000       0x71 contiki-srf06-cc26xx.a(rtimer.o)
 .comment       0x0000000000000000       0x71 contiki-srf06-cc26xx.a(timer.o)
 .comment       0x0000000000000000       0x71 contiki-srf06-cc26xx.a(serial-line.o)
 .comment       0x0000000000000000       0x71 contiki-srf06-cc26xx.a(list.o)
 .comment       0x0000000000000000       0x71 contiki-srf06-cc26xx.a(random.o)
 .comment       0x0000000000000000       0x71 contiki-srf06-cc26xx.a(ringbuf.o)
 .comment       0x0000000000000000       0x71 contiki-srf06-cc26xx.a(sicslowpan.o)
 .comment       0x0000000000000000       0x71 contiki-srf06-cc26xx.a(uip-ds6-nbr.o)
 .comment       0x0000000000000000       0x71 contiki-srf06-cc26xx.a(uip-ds6-route.o)
 .comment       0x0000000000000000       0x71 contiki-srf06-cc26xx.a(uip-ds6.o)
 .comment       0x0000000000000000       0x71 contiki-srf06-cc26xx.a(uip6.o)
 .comment       0x0000000000000000       0x71 contiki-srf06-cc26xx.a(tcpip.o)
 .comment       0x0000000000000000       0x71 contiki-srf06-cc26xx.a(uip-debug.o)
 .comment       0x0000000000000000       0x71 contiki-srf06-cc26xx.a(rpl-dag.o)
 .comment       0x0000000000000000       0x71 contiki-srf06-cc26xx.a(rpl-ext-header.)
 .comment       0x0000000000000000       0x71 contiki-srf06-cc26xx.a(rpl-icmp6.o)
 .comment       0x0000000000000000       0x71 contiki-srf06-cc26xx.a(rpl-mrhof.o)
 .comment       0x0000000000000000       0x71 contiki-srf06-cc26xx.a(rpl-timers.o)
 .comment       0x0000000000000000       0x71 contiki-srf06-cc26xx.a(rpl.o)
 .comment       0x0000000000000000       0x71 contiki-srf06-cc26xx.a(aon_rtc.o)
 .comment       0x0000000000000000       0x71 contiki-srf06-cc26xx.a(cpu.o)
 .comment       0x0000000000000000       0x71 contiki-srf06-cc26xx.a(ddi.o)
 .comment       0x0000000000000000       0x71 contiki-srf06-cc26xx.a(osc.o)
 .comment       0x0000000000000000       0x71 contiki-srf06-cc26xx.a(pwr_ctrl.o)
 .comment       0x0000000000000000       0x71 contiki-srf06-cc26xx.a(setup.o)
 .comment       0x0000000000000000       0x71 contiki-srf06-cc26xx.a(sys_ctrl.o)
 .comment       0x0000000000000000       0x71 contiki-srf06-cc26xx.a(linkaddr.o)
 .comment       0x0000000000000000       0x71 contiki-srf06-cc26xx.a(nbr-table.o)
 .comment       0x0000000000000000       0x71 contiki-srf06-cc26xx.a(netstack.o)
 .comment       0x0000000000000000       0x71 contiki-srf06-cc26xx.a(packetbuf.o)
 .comment       0x0000000000000000       0x71 contiki-srf06-cc26xx.a(queuebuf.o)
 .comment       0x0000000000000000       0x71 contiki-srf06-cc26xx.a(csma.o)
 .comment       0x0000000000000000       0x71 contiki-srf06-cc26xx.a(framer-802154.o)
 .comment       0x0000000000000000       0x71 contiki-srf06-cc26xx.a(mac.o)
 .comment       0x0000000000000000       0x71 contiki-srf06-cc26xx.a(contikimac.o)
 .comment       0x0000000000000000       0x71 contiki-srf06-cc26xx.a(nullsec.o)
 .comment       0x0000000000000000       0x71 contiki-srf06-cc26xx.a(sensor-common.o)
 .comment       0x0000000000000000       0x71 contiki-srf06-cc26xx.a(ext-flash.o)
 .comment       0x0000000000000000       0x71 contiki-srf06-cc26xx.a(buzzer.o)
 .comment       0x0000000000000000       0x71 contiki-srf06-cc26xx.a(board-spi.o)
 .comment       0x0000000000000000       0x71 contiki-srf06-cc26xx.a(rf-core.o)
 .comment       0x0000000000000000       0x71 contiki-srf06-cc26xx.a(rf-ble.o)
 .comment       0x0000000000000000       0x71 contiki-srf06-cc26xx.a(stimer.o)
 .comment       0x0000000000000000       0x71 contiki-srf06-cc26xx.a(memb.o)
 .comment       0x0000000000000000       0x71 contiki-srf06-cc26xx.a(uip-icmp6.o)
 .comment       0x0000000000000000       0x71 contiki-srf06-cc26xx.a(uip-nd6.o)
 .comment       0x0000000000000000       0x71 contiki-srf06-cc26xx.a(aon_batmon.o)
 .comment       0x0000000000000000       0x71 contiki-srf06-cc26xx.a(chipinfo.o)
 .comment       0x0000000000000000       0x71 contiki-srf06-cc26xx.a(frame802154.o)
 .comment       0x0000000000000000       0x71 contiki-srf06-cc26xx.a(mac-sequence.o)

.ARM.attributes
                0x0000000000000000       0x31
 .ARM.attributes
                0x0000000000000000       0x33 obj_srf06-cc26xx/fault-handlers.o
 .ARM.attributes
                0x0000000000000033       0x33 obj_srf06-cc26xx/ccfg.o
 .ARM.attributes
                0x0000000000000066       0x33 obj_srf06-cc26xx/startup_gcc.o
 .ARM.attributes
                0x0000000000000099       0x33 hello-world.co
 .ARM.attributes
                0x00000000000000cc       0x33 contiki-srf06-cc26xx.a(contiki-main.o)
 .ARM.attributes
                0x00000000000000ff       0x33 contiki-srf06-cc26xx.a(sensors.o)
 .ARM.attributes
                0x0000000000000132       0x33 contiki-srf06-cc26xx.a(leds.o)
 .ARM.attributes
                0x0000000000000165       0x33 contiki-srf06-cc26xx.a(leds-arch.o)
 .ARM.attributes
                0x0000000000000198       0x33 contiki-srf06-cc26xx.a(sensortag-senso)
 .ARM.attributes
                0x00000000000001cb       0x33 contiki-srf06-cc26xx.a(bmp-280-sensor.)
 .ARM.attributes
                0x00000000000001fe       0x33 contiki-srf06-cc26xx.a(tmp-007-sensor.)
 .ARM.attributes
                0x0000000000000231       0x33 contiki-srf06-cc26xx.a(opt-3001-sensor)
 .ARM.attributes
                0x0000000000000264       0x33 contiki-srf06-cc26xx.a(hdc-1000-sensor)
 .ARM.attributes
                0x0000000000000297       0x33 contiki-srf06-cc26xx.a(mpu-9250-sensor)
 .ARM.attributes
                0x00000000000002ca       0x33 contiki-srf06-cc26xx.a(button-sensor.o)
 .ARM.attributes
                0x00000000000002fd       0x33 contiki-srf06-cc26xx.a(reed-relay.o)
 .ARM.attributes
                0x0000000000000330       0x33 contiki-srf06-cc26xx.a(board.o)
 .ARM.attributes
                0x0000000000000363       0x33 contiki-srf06-cc26xx.a(board-i2c.o)
 .ARM.attributes
                0x0000000000000396       0x33 contiki-srf06-cc26xx.a(clock.o)
 .ARM.attributes
                0x00000000000003c9       0x33 contiki-srf06-cc26xx.a(rtimer-arch.o)
 .ARM.attributes
                0x00000000000003fc       0x33 contiki-srf06-cc26xx.a(soc-rtc.o)
 .ARM.attributes
                0x000000000000042f       0x33 contiki-srf06-cc26xx.a(contiki-watchdo)
 .ARM.attributes
                0x0000000000000462       0x33 contiki-srf06-cc26xx.a(putchar.o)
 .ARM.attributes
                0x0000000000000495       0x33 contiki-srf06-cc26xx.a(ieee-addr.o)
 .ARM.attributes
                0x00000000000004c8       0x33 contiki-srf06-cc26xx.a(cc26xx-uart.o)
 .ARM.attributes
                0x00000000000004fb       0x33 contiki-srf06-cc26xx.a(lpm.o)
 .ARM.attributes
                0x000000000000052e       0x33 contiki-srf06-cc26xx.a(gpio-interrupt.)
 .ARM.attributes
                0x0000000000000561       0x33 contiki-srf06-cc26xx.a(oscillators.o)
 .ARM.attributes
                0x0000000000000594       0x33 contiki-srf06-cc26xx.a(ieee-mode.o)
 .ARM.attributes
                0x00000000000005c7       0x33 contiki-srf06-cc26xx.a(dbg-printf.o)
 .ARM.attributes
                0x00000000000005fa       0x33 contiki-srf06-cc26xx.a(strformat.o)
 .ARM.attributes
                0x000000000000062d       0x33 contiki-srf06-cc26xx.a(autostart.o)
 .ARM.attributes
                0x0000000000000660       0x33 contiki-srf06-cc26xx.a(ctimer.o)
 .ARM.attributes
                0x0000000000000693       0x33 contiki-srf06-cc26xx.a(energest.o)
 .ARM.attributes
                0x00000000000006c6       0x33 contiki-srf06-cc26xx.a(etimer.o)
 .ARM.attributes
                0x00000000000006f9       0x33 contiki-srf06-cc26xx.a(process.o)
 .ARM.attributes
                0x000000000000072c       0x33 contiki-srf06-cc26xx.a(rtimer.o)
 .ARM.attributes
                0x000000000000075f       0x33 contiki-srf06-cc26xx.a(timer.o)
 .ARM.attributes
                0x0000000000000792       0x33 contiki-srf06-cc26xx.a(serial-line.o)
 .ARM.attributes
                0x00000000000007c5       0x33 contiki-srf06-cc26xx.a(list.o)
 .ARM.attributes
                0x00000000000007f8       0x33 contiki-srf06-cc26xx.a(random.o)
 .ARM.attributes
                0x000000000000082b       0x33 contiki-srf06-cc26xx.a(ringbuf.o)
 .ARM.attributes
                0x000000000000085e       0x33 contiki-srf06-cc26xx.a(sicslowpan.o)
 .ARM.attributes
                0x0000000000000891       0x33 contiki-srf06-cc26xx.a(uip-ds6-nbr.o)
 .ARM.attributes
                0x00000000000008c4       0x33 contiki-srf06-cc26xx.a(uip-ds6-route.o)
 .ARM.attributes
                0x00000000000008f7       0x33 contiki-srf06-cc26xx.a(uip-ds6.o)
 .ARM.attributes
                0x000000000000092a       0x33 contiki-srf06-cc26xx.a(uip6.o)
 .ARM.attributes
                0x000000000000095d       0x33 contiki-srf06-cc26xx.a(tcpip.o)
 .ARM.attributes
                0x0000000000000990       0x33 contiki-srf06-cc26xx.a(uip-debug.o)
 .ARM.attributes
                0x00000000000009c3       0x33 contiki-srf06-cc26xx.a(rpl-dag.o)
 .ARM.attributes
                0x00000000000009f6       0x33 contiki-srf06-cc26xx.a(rpl-ext-header.)
 .ARM.attributes
                0x0000000000000a29       0x33 contiki-srf06-cc26xx.a(rpl-icmp6.o)
 .ARM.attributes
                0x0000000000000a5c       0x33 contiki-srf06-cc26xx.a(rpl-mrhof.o)
 .ARM.attributes
                0x0000000000000a8f       0x33 contiki-srf06-cc26xx.a(rpl-timers.o)
 .ARM.attributes
                0x0000000000000ac2       0x33 contiki-srf06-cc26xx.a(rpl.o)
 .ARM.attributes
                0x0000000000000af5       0x33 contiki-srf06-cc26xx.a(aon_rtc.o)
 .ARM.attributes
                0x0000000000000b28       0x33 contiki-srf06-cc26xx.a(cpu.o)
 .ARM.attributes
                0x0000000000000b5b       0x33 contiki-srf06-cc26xx.a(ddi.o)
 .ARM.attributes
                0x0000000000000b8e       0x33 contiki-srf06-cc26xx.a(osc.o)
 .ARM.attributes
                0x0000000000000bc1       0x33 contiki-srf06-cc26xx.a(pwr_ctrl.o)
 .ARM.attributes
                0x0000000000000bf4       0x33 contiki-srf06-cc26xx.a(setup.o)
 .ARM.attributes
                0x0000000000000c27       0x33 contiki-srf06-cc26xx.a(sys_ctrl.o)
 .ARM.attributes
                0x0000000000000c5a       0x33 contiki-srf06-cc26xx.a(linkaddr.o)
 .ARM.attributes
                0x0000000000000c8d       0x33 contiki-srf06-cc26xx.a(nbr-table.o)
 .ARM.attributes
                0x0000000000000cc0       0x33 contiki-srf06-cc26xx.a(netstack.o)
 .ARM.attributes
                0x0000000000000cf3       0x33 contiki-srf06-cc26xx.a(packetbuf.o)
 .ARM.attributes
                0x0000000000000d26       0x33 contiki-srf06-cc26xx.a(queuebuf.o)
 .ARM.attributes
                0x0000000000000d59       0x33 contiki-srf06-cc26xx.a(csma.o)
 .ARM.attributes
                0x0000000000000d8c       0x33 contiki-srf06-cc26xx.a(framer-802154.o)
 .ARM.attributes
                0x0000000000000dbf       0x33 contiki-srf06-cc26xx.a(mac.o)
 .ARM.attributes
                0x0000000000000df2       0x33 contiki-srf06-cc26xx.a(contikimac.o)
 .ARM.attributes
                0x0000000000000e25       0x33 contiki-srf06-cc26xx.a(nullsec.o)
 .ARM.attributes
                0x0000000000000e58       0x33 contiki-srf06-cc26xx.a(sensor-common.o)
 .ARM.attributes
                0x0000000000000e8b       0x33 contiki-srf06-cc26xx.a(ext-flash.o)
 .ARM.attributes
                0x0000000000000ebe       0x33 contiki-srf06-cc26xx.a(buzzer.o)
 .ARM.attributes
                0x0000000000000ef1       0x33 contiki-srf06-cc26xx.a(board-spi.o)
 .ARM.attributes
                0x0000000000000f24       0x33 contiki-srf06-cc26xx.a(rf-core.o)
 .ARM.attributes
                0x0000000000000f57       0x33 contiki-srf06-cc26xx.a(rf-ble.o)
 .ARM.attributes
                0x0000000000000f8a       0x33 contiki-srf06-cc26xx.a(stimer.o)
 .ARM.attributes
                0x0000000000000fbd       0x33 contiki-srf06-cc26xx.a(memb.o)
 .ARM.attributes
                0x0000000000000ff0       0x33 contiki-srf06-cc26xx.a(uip-icmp6.o)
 .ARM.attributes
                0x0000000000001023       0x33 contiki-srf06-cc26xx.a(uip-nd6.o)
 .ARM.attributes
                0x0000000000001056       0x33 contiki-srf06-cc26xx.a(aon_batmon.o)
 .ARM.attributes
                0x0000000000001089       0x33 contiki-srf06-cc26xx.a(chipinfo.o)
 .ARM.attributes
                0x00000000000010bc       0x33 contiki-srf06-cc26xx.a(frame802154.o)
 .ARM.attributes
                0x00000000000010ef       0x33 contiki-srf06-cc26xx.a(mac-sequence.o)
 .ARM.attributes
                0x0000000000001122       0x2d /usr/local/Cellar/gcc-arm-none-eabi/20140805/bin/../lib/gcc/arm-none-eabi/4.8.4/../../../../arm-none-eabi/lib/armv7-m/libm.a(lib_a-w_exp2.o)
 .ARM.attributes
                0x000000000000114f       0x2d /usr/local/Cellar/gcc-arm-none-eabi/20140805/bin/../lib/gcc/arm-none-eabi/4.8.4/../../../../arm-none-eabi/lib/armv7-m/libm.a(lib_a-w_pow.o)
 .ARM.attributes
                0x000000000000117c       0x2d /usr/local/Cellar/gcc-arm-none-eabi/20140805/bin/../lib/gcc/arm-none-eabi/4.8.4/../../../../arm-none-eabi/lib/armv7-m/libm.a(lib_a-e_pow.o)
 .ARM.attributes
                0x00000000000011a9       0x2d /usr/local/Cellar/gcc-arm-none-eabi/20140805/bin/../lib/gcc/arm-none-eabi/4.8.4/../../../../arm-none-eabi/lib/armv7-m/libm.a(lib_a-e_sqrt.o)
 .ARM.attributes
                0x00000000000011d6       0x2d /usr/local/Cellar/gcc-arm-none-eabi/20140805/bin/../lib/gcc/arm-none-eabi/4.8.4/../../../../arm-none-eabi/lib/armv7-m/libm.a(lib_a-s_fabs.o)
 .ARM.attributes
                0x0000000000001203       0x2d /usr/local/Cellar/gcc-arm-none-eabi/20140805/bin/../lib/gcc/arm-none-eabi/4.8.4/../../../../arm-none-eabi/lib/armv7-m/libm.a(lib_a-s_finite.o)
 .ARM.attributes
                0x0000000000001230       0x2d /usr/local/Cellar/gcc-arm-none-eabi/20140805/bin/../lib/gcc/arm-none-eabi/4.8.4/../../../../arm-none-eabi/lib/armv7-m/libm.a(lib_a-s_fpclassify.o)
 .ARM.attributes
                0x000000000000125d       0x2d /usr/local/Cellar/gcc-arm-none-eabi/20140805/bin/../lib/gcc/arm-none-eabi/4.8.4/../../../../arm-none-eabi/lib/armv7-m/libm.a(lib_a-s_lib_ver.o)
 .ARM.attributes
                0x000000000000128a       0x2d /usr/local/Cellar/gcc-arm-none-eabi/20140805/bin/../lib/gcc/arm-none-eabi/4.8.4/../../../../arm-none-eabi/lib/armv7-m/libm.a(lib_a-s_matherr.o)
 .ARM.attributes
                0x00000000000012b7       0x2d /usr/local/Cellar/gcc-arm-none-eabi/20140805/bin/../lib/gcc/arm-none-eabi/4.8.4/../../../../arm-none-eabi/lib/armv7-m/libm.a(lib_a-s_nan.o)
 .ARM.attributes
                0x00000000000012e4       0x2d /usr/local/Cellar/gcc-arm-none-eabi/20140805/bin/../lib/gcc/arm-none-eabi/4.8.4/../../../../arm-none-eabi/lib/armv7-m/libm.a(lib_a-s_rint.o)
 .ARM.attributes
                0x0000000000001311       0x2d /usr/local/Cellar/gcc-arm-none-eabi/20140805/bin/../lib/gcc/arm-none-eabi/4.8.4/../../../../arm-none-eabi/lib/armv7-m/libm.a(lib_a-s_scalbn.o)
 .ARM.attributes
                0x000000000000133e       0x2d /usr/local/Cellar/gcc-arm-none-eabi/20140805/bin/../lib/gcc/arm-none-eabi/4.8.4/../../../../arm-none-eabi/lib/armv7-m/libm.a(lib_a-s_copysign.o)
 .ARM.attributes
                0x000000000000136b       0x1d /usr/local/Cellar/gcc-arm-none-eabi/20140805/bin/../lib/gcc/arm-none-eabi/4.8.4/armv7-m/libgcc.a(_arm_addsubdf3.o)
 .ARM.attributes
                0x0000000000001388       0x1d /usr/local/Cellar/gcc-arm-none-eabi/20140805/bin/../lib/gcc/arm-none-eabi/4.8.4/armv7-m/libgcc.a(_arm_muldivdf3.o)
 .ARM.attributes
                0x00000000000013a5       0x1d /usr/local/Cellar/gcc-arm-none-eabi/20140805/bin/../lib/gcc/arm-none-eabi/4.8.4/armv7-m/libgcc.a(_arm_cmpdf2.o)
 .ARM.attributes
                0x00000000000013c2       0x1d /usr/local/Cellar/gcc-arm-none-eabi/20140805/bin/../lib/gcc/arm-none-eabi/4.8.4/armv7-m/libgcc.a(_arm_truncdfsf2.o)
 .ARM.attributes
                0x00000000000013df       0x1d /usr/local/Cellar/gcc-arm-none-eabi/20140805/bin/../lib/gcc/arm-none-eabi/4.8.4/armv7-m/libgcc.a(_arm_addsubsf3.o)
 .ARM.attributes
                0x00000000000013fc       0x1d /usr/local/Cellar/gcc-arm-none-eabi/20140805/bin/../lib/gcc/arm-none-eabi/4.8.4/armv7-m/libgcc.a(_arm_muldivsf3.o)
 .ARM.attributes
                0x0000000000001419       0x1d /usr/local/Cellar/gcc-arm-none-eabi/20140805/bin/../lib/gcc/arm-none-eabi/4.8.4/armv7-m/libgcc.a(_arm_fixsfsi.o)
 .ARM.attributes
                0x0000000000001436       0x1d /usr/local/Cellar/gcc-arm-none-eabi/20140805/bin/../lib/gcc/arm-none-eabi/4.8.4/armv7-m/libgcc.a(_aeabi_uldivmod.o)
 .ARM.attributes
                0x0000000000001453       0x2d /usr/local/Cellar/gcc-arm-none-eabi/20140805/bin/../lib/gcc/arm-none-eabi/4.8.4/armv7-m/libgcc.a(bpabi.o)
 .ARM.attributes
                0x0000000000001480       0x1d /usr/local/Cellar/gcc-arm-none-eabi/20140805/bin/../lib/gcc/arm-none-eabi/4.8.4/armv7-m/libgcc.a(_dvmd_tls.o)
 .ARM.attributes
                0x000000000000149d       0x2d /usr/local/Cellar/gcc-arm-none-eabi/20140805/bin/../lib/gcc/arm-none-eabi/4.8.4/armv7-m/libgcc.a(_divdi3.o)
 .ARM.attributes
                0x00000000000014ca       0x2d /usr/local/Cellar/gcc-arm-none-eabi/20140805/bin/../lib/gcc/arm-none-eabi/4.8.4/armv7-m/libgcc.a(_udivdi3.o)
 .ARM.attributes
                0x00000000000014f7       0x2d /usr/local/Cellar/gcc-arm-none-eabi/20140805/bin/../lib/gcc/arm-none-eabi/4.8.4/../../../../arm-none-eabi/lib/armv7-m/libc.a(lib_a-errno.o)
 .ARM.attributes
                0x0000000000001524       0x2d /usr/local/Cellar/gcc-arm-none-eabi/20140805/bin/../lib/gcc/arm-none-eabi/4.8.4/../../../../arm-none-eabi/lib/armv7-m/libc.a(lib_a-impure.o)
 .ARM.attributes
                0x0000000000001551       0x2d /usr/local/Cellar/gcc-arm-none-eabi/20140805/bin/../lib/gcc/arm-none-eabi/4.8.4/../../../../arm-none-eabi/lib/armv7-m/libc.a(lib_a-memcmp.o)
 .ARM.attributes
                0x000000000000157e       0x1b /usr/local/Cellar/gcc-arm-none-eabi/20140805/bin/../lib/gcc/arm-none-eabi/4.8.4/../../../../arm-none-eabi/lib/armv7-m/libc.a(lib_a-memcpy.o)
 .ARM.attributes
                0x0000000000001599       0x2d /usr/local/Cellar/gcc-arm-none-eabi/20140805/bin/../lib/gcc/arm-none-eabi/4.8.4/../../../../arm-none-eabi/lib/armv7-m/libc.a(lib_a-memmove.o)
 .ARM.attributes
                0x00000000000015c6       0x2d /usr/local/Cellar/gcc-arm-none-eabi/20140805/bin/../lib/gcc/arm-none-eabi/4.8.4/../../../../arm-none-eabi/lib/armv7-m/libc.a(lib_a-memset.o)
 .ARM.attributes
                0x00000000000015f3       0x2d /usr/local/Cellar/gcc-arm-none-eabi/20140805/bin/../lib/gcc/arm-none-eabi/4.8.4/../../../../arm-none-eabi/lib/armv7-m/libc.a(lib_a-rand.o)
 .ARM.attributes
                0x0000000000001620       0x2d /usr/local/Cellar/gcc-arm-none-eabi/20140805/bin/../lib/gcc/arm-none-eabi/4.8.4/../../../../arm-none-eabi/lib/armv7-m/libc.a(lib_a-strlen.o)

.debug_frame    0x0000000000000000      0x3b4
 .debug_frame   0x0000000000000000       0x20 /usr/local/Cellar/gcc-arm-none-eabi/20140805/bin/../lib/gcc/arm-none-eabi/4.8.4/../../../../arm-none-eabi/lib/armv7-m/libm.a(lib_a-w_exp2.o)
 .debug_frame   0x0000000000000020       0x38 /usr/local/Cellar/gcc-arm-none-eabi/20140805/bin/../lib/gcc/arm-none-eabi/4.8.4/../../../../arm-none-eabi/lib/armv7-m/libm.a(lib_a-w_pow.o)
 .debug_frame   0x0000000000000058       0x38 /usr/local/Cellar/gcc-arm-none-eabi/20140805/bin/../lib/gcc/arm-none-eabi/4.8.4/../../../../arm-none-eabi/lib/armv7-m/libm.a(lib_a-e_pow.o)
 .debug_frame   0x0000000000000090       0x34 /usr/local/Cellar/gcc-arm-none-eabi/20140805/bin/../lib/gcc/arm-none-eabi/4.8.4/../../../../arm-none-eabi/lib/armv7-m/libm.a(lib_a-e_sqrt.o)
 .debug_frame   0x00000000000000c4       0x20 /usr/local/Cellar/gcc-arm-none-eabi/20140805/bin/../lib/gcc/arm-none-eabi/4.8.4/../../../../arm-none-eabi/lib/armv7-m/libm.a(lib_a-s_fabs.o)
 .debug_frame   0x00000000000000e4       0x20 /usr/local/Cellar/gcc-arm-none-eabi/20140805/bin/../lib/gcc/arm-none-eabi/4.8.4/../../../../arm-none-eabi/lib/armv7-m/libm.a(lib_a-s_finite.o)
 .debug_frame   0x0000000000000104       0x28 /usr/local/Cellar/gcc-arm-none-eabi/20140805/bin/../lib/gcc/arm-none-eabi/4.8.4/../../../../arm-none-eabi/lib/armv7-m/libm.a(lib_a-s_fpclassify.o)
 .debug_frame   0x000000000000012c       0x20 /usr/local/Cellar/gcc-arm-none-eabi/20140805/bin/../lib/gcc/arm-none-eabi/4.8.4/../../../../arm-none-eabi/lib/armv7-m/libm.a(lib_a-s_matherr.o)
 .debug_frame   0x000000000000014c       0x20 /usr/local/Cellar/gcc-arm-none-eabi/20140805/bin/../lib/gcc/arm-none-eabi/4.8.4/../../../../arm-none-eabi/lib/armv7-m/libm.a(lib_a-s_nan.o)
 .debug_frame   0x000000000000016c       0x34 /usr/local/Cellar/gcc-arm-none-eabi/20140805/bin/../lib/gcc/arm-none-eabi/4.8.4/../../../../arm-none-eabi/lib/armv7-m/libm.a(lib_a-s_rint.o)
 .debug_frame   0x00000000000001a0       0x30 /usr/local/Cellar/gcc-arm-none-eabi/20140805/bin/../lib/gcc/arm-none-eabi/4.8.4/../../../../arm-none-eabi/lib/armv7-m/libm.a(lib_a-s_scalbn.o)
 .debug_frame   0x00000000000001d0       0x28 /usr/local/Cellar/gcc-arm-none-eabi/20140805/bin/../lib/gcc/arm-none-eabi/4.8.4/../../../../arm-none-eabi/lib/armv7-m/libm.a(lib_a-s_copysign.o)
 .debug_frame   0x00000000000001f8       0x58 /usr/local/Cellar/gcc-arm-none-eabi/20140805/bin/../lib/gcc/arm-none-eabi/4.8.4/armv7-m/libgcc.a(bpabi.o)
 .debug_frame   0x0000000000000250       0x34 /usr/local/Cellar/gcc-arm-none-eabi/20140805/bin/../lib/gcc/arm-none-eabi/4.8.4/armv7-m/libgcc.a(_divdi3.o)
 .debug_frame   0x0000000000000284       0x34 /usr/local/Cellar/gcc-arm-none-eabi/20140805/bin/../lib/gcc/arm-none-eabi/4.8.4/armv7-m/libgcc.a(_udivdi3.o)
 .debug_frame   0x00000000000002b8       0x20 /usr/local/Cellar/gcc-arm-none-eabi/20140805/bin/../lib/gcc/arm-none-eabi/4.8.4/../../../../arm-none-eabi/lib/armv7-m/libc.a(lib_a-errno.o)
 .debug_frame   0x00000000000002d8       0x2c /usr/local/Cellar/gcc-arm-none-eabi/20140805/bin/../lib/gcc/arm-none-eabi/4.8.4/../../../../arm-none-eabi/lib/armv7-m/libc.a(lib_a-memcmp.o)
 .debug_frame   0x0000000000000304       0x2c /usr/local/Cellar/gcc-arm-none-eabi/20140805/bin/../lib/gcc/arm-none-eabi/4.8.4/../../../../arm-none-eabi/lib/armv7-m/libc.a(lib_a-memmove.o)
 .debug_frame   0x0000000000000330       0x2c /usr/local/Cellar/gcc-arm-none-eabi/20140805/bin/../lib/gcc/arm-none-eabi/4.8.4/../../../../arm-none-eabi/lib/armv7-m/libc.a(lib_a-memset.o)
 .debug_frame   0x000000000000035c       0x38 /usr/local/Cellar/gcc-arm-none-eabi/20140805/bin/../lib/gcc/arm-none-eabi/4.8.4/../../../../arm-none-eabi/lib/armv7-m/libc.a(lib_a-rand.o)
 .debug_frame   0x0000000000000394       0x20 /usr/local/Cellar/gcc-arm-none-eabi/20140805/bin/../lib/gcc/arm-none-eabi/4.8.4/../../../../arm-none-eabi/lib/armv7-m/libc.a(lib_a-strlen.o)

Cross Reference Table

Symbol                                            File
AONBatMonTemperatureGetDegC                       contiki-srf06-cc26xx.a(aon_batmon.o)
                                                  contiki-srf06-cc26xx.a(sys_ctrl.o)
                                                  contiki-srf06-cc26xx.a(osc.o)
AONIntHandler                                     obj_srf06-cc26xx/startup_gcc.o
AONProgIntHandler                                 obj_srf06-cc26xx/startup_gcc.o
AONRTCIntHandler                                  contiki-srf06-cc26xx.a(soc-rtc.o)
                                                  obj_srf06-cc26xx/startup_gcc.o
AUXADCIntHandler                                  obj_srf06-cc26xx/startup_gcc.o
AUXCombEventIntHandler                            obj_srf06-cc26xx/startup_gcc.o
AUXCompAIntHandler                                obj_srf06-cc26xx/startup_gcc.o
AUXSWEvent0IntHandler                             obj_srf06-cc26xx/startup_gcc.o
AUXSWEvent1IntHandler                             obj_srf06-cc26xx/startup_gcc.o
BusFaultIntHandler                                obj_srf06-cc26xx/startup_gcc.o
ChipInfo_GetChipFamily                            contiki-srf06-cc26xx.a(chipinfo.o)
                                                  contiki-srf06-cc26xx.a(rf-core.o)
ChipInfo_GetHwRevision                            contiki-srf06-cc26xx.a(chipinfo.o)
ChipInfo_GetPackageType                           contiki-srf06-cc26xx.a(chipinfo.o)
ChipInfo_GetSupportedProtocol_BV                  contiki-srf06-cc26xx.a(chipinfo.o)
                                                  contiki-srf06-cc26xx.a(rf-core.o)
CryptoIntHandler                                  obj_srf06-cc26xx/startup_gcc.o
DebugMonIntHandler                                obj_srf06-cc26xx/startup_gcc.o
DynProgIntHandler                                 obj_srf06-cc26xx/startup_gcc.o
FaultISR                                          obj_srf06-cc26xx/fault-handlers.o
FlashIntHandler                                   obj_srf06-cc26xx/startup_gcc.o
GPIOIntHandler                                    contiki-srf06-cc26xx.a(gpio-interrupt.)
                                                  obj_srf06-cc26xx/startup_gcc.o
I2CIntHandler                                     obj_srf06-cc26xx/startup_gcc.o
I2SIntHandler                                     obj_srf06-cc26xx/startup_gcc.o
MPUFaultIntHandler                                obj_srf06-cc26xx/startup_gcc.o
NOROM_AONRTCCurrent64BitValueGet                  contiki-srf06-cc26xx.a(aon_rtc.o)
NOROM_AONRTCCurrentCompareValueGet                contiki-srf06-cc26xx.a(aon_rtc.o)
                                                  contiki-srf06-cc26xx.a(osc.o)
                                                  contiki-srf06-cc26xx.a(soc-rtc.o)
                                                  contiki-srf06-cc26xx.a(rtimer-arch.o)
NOROM_CPUbasepriGet                               contiki-srf06-cc26xx.a(cpu.o)
NOROM_CPUcpsid                                    contiki-srf06-cc26xx.a(cpu.o)
                                                  contiki-srf06-cc26xx.a(rf-ble.o)
                                                  contiki-srf06-cc26xx.a(rf-core.o)
                                                  contiki-srf06-cc26xx.a(setup.o)
                                                  contiki-srf06-cc26xx.a(ddi.o)
                                                  contiki-srf06-cc26xx.a(gpio-interrupt.)
                                                  contiki-srf06-cc26xx.a(lpm.o)
                                                  contiki-srf06-cc26xx.a(cc26xx-uart.o)
                                                  contiki-srf06-cc26xx.a(contiki-watchdo)
                                                  contiki-srf06-cc26xx.a(soc-rtc.o)
                                                  contiki-srf06-cc26xx.a(clock.o)
                                                  contiki-srf06-cc26xx.a(board.o)
                                                  contiki-srf06-cc26xx.a(contiki-main.o)
NOROM_CPUcpsie                                    contiki-srf06-cc26xx.a(cpu.o)
                                                  contiki-srf06-cc26xx.a(rf-ble.o)
                                                  contiki-srf06-cc26xx.a(rf-core.o)
                                                  contiki-srf06-cc26xx.a(setup.o)
                                                  contiki-srf06-cc26xx.a(ddi.o)
                                                  contiki-srf06-cc26xx.a(gpio-interrupt.)
                                                  contiki-srf06-cc26xx.a(lpm.o)
                                                  contiki-srf06-cc26xx.a(cc26xx-uart.o)
                                                  contiki-srf06-cc26xx.a(contiki-watchdo)
                                                  contiki-srf06-cc26xx.a(soc-rtc.o)
                                                  contiki-srf06-cc26xx.a(clock.o)
                                                  contiki-srf06-cc26xx.a(board.o)
                                                  contiki-srf06-cc26xx.a(contiki-main.o)
NOROM_CPUdelay                                    contiki-srf06-cc26xx.a(cpu.o)
                                                  contiki-srf06-cc26xx.a(board-i2c.o)
                                                  contiki-srf06-cc26xx.a(mpu-9250-sensor)
NOROM_CPUprimask                                  contiki-srf06-cc26xx.a(cpu.o)
NOROM_DDI16BitRead                                contiki-srf06-cc26xx.a(ddi.o)
NOROM_DDI16BitWrite                               contiki-srf06-cc26xx.a(ddi.o)
NOROM_DDI16BitfieldRead                           contiki-srf06-cc26xx.a(ddi.o)
                                                  contiki-srf06-cc26xx.a(osc.o)
NOROM_DDI16BitfieldWrite                          contiki-srf06-cc26xx.a(ddi.o)
                                                  contiki-srf06-cc26xx.a(setup.o)
                                                  contiki-srf06-cc26xx.a(osc.o)
                                                  contiki-srf06-cc26xx.a(oscillators.o)
NOROM_OSCClockSourceGet                           contiki-srf06-cc26xx.a(osc.o)
                                                  contiki-srf06-cc26xx.a(sys_ctrl.o)
                                                  contiki-srf06-cc26xx.a(setup.o)
                                                  contiki-srf06-cc26xx.a(oscillators.o)
NOROM_OSCClockSourceSet                           contiki-srf06-cc26xx.a(osc.o)
                                                  contiki-srf06-cc26xx.a(sys_ctrl.o)
                                                  contiki-srf06-cc26xx.a(setup.o)
                                                  contiki-srf06-cc26xx.a(oscillators.o)
NOROM_OSCInterfaceEnable                          contiki-srf06-cc26xx.a(osc.o)
                                                  contiki-srf06-cc26xx.a(sys_ctrl.o)
                                                  contiki-srf06-cc26xx.a(oscillators.o)
NOROM_PowerCtrlSourceSet                          contiki-srf06-cc26xx.a(pwr_ctrl.o)
                                                  contiki-srf06-cc26xx.a(lpm.o)
NOROM_PowerCtrlStateSet                           contiki-srf06-cc26xx.a(pwr_ctrl.o)
                                                  contiki-srf06-cc26xx.a(sys_ctrl.o)
NOROM_SysCtrlPowerEverything                      contiki-srf06-cc26xx.a(sys_ctrl.o)
NOROM_SysCtrlPowerdown                            contiki-srf06-cc26xx.a(sys_ctrl.o)
NOROM_SysCtrlResetSourceGet                       contiki-srf06-cc26xx.a(sys_ctrl.o)
NOROM_SysCtrlShutdown                             contiki-srf06-cc26xx.a(sys_ctrl.o)
NOROM_SysCtrlStandby                              contiki-srf06-cc26xx.a(sys_ctrl.o)
NmiSR                                             obj_srf06-cc26xx/startup_gcc.o
OSCHF_AttemptToSwitchToXosc                       contiki-srf06-cc26xx.a(osc.o)
OSCHF_GetStartupTime                              contiki-srf06-cc26xx.a(osc.o)
OSCHF_SwitchToRcOscTurnOffXosc                    contiki-srf06-cc26xx.a(osc.o)
OSCHF_TurnOnXosc                                  contiki-srf06-cc26xx.a(osc.o)
PendSVIntHandler                                  obj_srf06-cc26xx/startup_gcc.o
RFCCPE0IntHandler                                 contiki-srf06-cc26xx.a(rf-core.o)
                                                  obj_srf06-cc26xx/startup_gcc.o
RFCCPE1IntHandler                                 contiki-srf06-cc26xx.a(rf-core.o)
                                                  obj_srf06-cc26xx/startup_gcc.o
RFCCmdAckIntHandler                               obj_srf06-cc26xx/startup_gcc.o
RFCHardwareIntHandler                             obj_srf06-cc26xx/startup_gcc.o
ResetISR                                          obj_srf06-cc26xx/startup_gcc.o
SSI0IntHandler                                    obj_srf06-cc26xx/startup_gcc.o
SSI1IntHandler                                    obj_srf06-cc26xx/startup_gcc.o
SVCallIntHandler                                  obj_srf06-cc26xx/startup_gcc.o
SWEvent0IntHandler                                obj_srf06-cc26xx/startup_gcc.o
SysCtrlAdjustRechargeAfterPowerDown               contiki-srf06-cc26xx.a(sys_ctrl.o)
                                                  contiki-srf06-cc26xx.a(lpm.o)
SysCtrlSetRechargeBeforePowerDown                 contiki-srf06-cc26xx.a(sys_ctrl.o)
                                                  contiki-srf06-cc26xx.a(lpm.o)
SysCtrl_DCDC_VoltageConditionalControl            contiki-srf06-cc26xx.a(sys_ctrl.o)
                                                  contiki-srf06-cc26xx.a(lpm.o)
SysTickIntHandler                                 obj_srf06-cc26xx/startup_gcc.o
TRNGIntHandler                                    obj_srf06-cc26xx/startup_gcc.o
ThisCodeIsBuiltForCC26xxHwRev22AndLater_HaltIfViolated contiki-srf06-cc26xx.a(chipinfo.o)
                                                  contiki-srf06-cc26xx.a(setup.o)
Timer0AIntHandler                                 obj_srf06-cc26xx/startup_gcc.o
Timer0BIntHandler                                 obj_srf06-cc26xx/startup_gcc.o
Timer1AIntHandler                                 obj_srf06-cc26xx/startup_gcc.o
Timer1BIntHandler                                 obj_srf06-cc26xx/startup_gcc.o
Timer2AIntHandler                                 obj_srf06-cc26xx/startup_gcc.o
Timer2BIntHandler                                 obj_srf06-cc26xx/startup_gcc.o
Timer3AIntHandler                                 obj_srf06-cc26xx/startup_gcc.o
Timer3BIntHandler                                 obj_srf06-cc26xx/startup_gcc.o
UART0IntHandler                                   contiki-srf06-cc26xx.a(cc26xx-uart.o)
                                                  obj_srf06-cc26xx/startup_gcc.o
UsageFaultIntHandler                              obj_srf06-cc26xx/startup_gcc.o
WatchdogIntHandler                                obj_srf06-cc26xx/startup_gcc.o
__adddf3                                          /usr/local/Cellar/gcc-arm-none-eabi/20140805/bin/../lib/gcc/arm-none-eabi/4.8.4/armv7-m/libgcc.a(_arm_addsubdf3.o)
__addsf3                                          /usr/local/Cellar/gcc-arm-none-eabi/20140805/bin/../lib/gcc/arm-none-eabi/4.8.4/armv7-m/libgcc.a(_arm_addsubsf3.o)
__aeabi_cdcmpeq                                   /usr/local/Cellar/gcc-arm-none-eabi/20140805/bin/../lib/gcc/arm-none-eabi/4.8.4/armv7-m/libgcc.a(_arm_cmpdf2.o)
__aeabi_cdcmple                                   /usr/local/Cellar/gcc-arm-none-eabi/20140805/bin/../lib/gcc/arm-none-eabi/4.8.4/armv7-m/libgcc.a(_arm_cmpdf2.o)
__aeabi_cdrcmple                                  /usr/local/Cellar/gcc-arm-none-eabi/20140805/bin/../lib/gcc/arm-none-eabi/4.8.4/armv7-m/libgcc.a(_arm_cmpdf2.o)
__aeabi_d2f                                       /usr/local/Cellar/gcc-arm-none-eabi/20140805/bin/../lib/gcc/arm-none-eabi/4.8.4/armv7-m/libgcc.a(_arm_truncdfsf2.o)
                                                  contiki-srf06-cc26xx.a(mpu-9250-sensor)
                                                  contiki-srf06-cc26xx.a(hdc-1000-sensor)
                                                  contiki-srf06-cc26xx.a(opt-3001-sensor)
__aeabi_dadd                                      /usr/local/Cellar/gcc-arm-none-eabi/20140805/bin/../lib/gcc/arm-none-eabi/4.8.4/armv7-m/libgcc.a(_arm_addsubdf3.o)
                                                  /usr/local/Cellar/gcc-arm-none-eabi/20140805/bin/../lib/gcc/arm-none-eabi/4.8.4/../../../../arm-none-eabi/lib/armv7-m/libm.a(lib_a-s_scalbn.o)
                                                  /usr/local/Cellar/gcc-arm-none-eabi/20140805/bin/../lib/gcc/arm-none-eabi/4.8.4/../../../../arm-none-eabi/lib/armv7-m/libm.a(lib_a-s_rint.o)
                                                  /usr/local/Cellar/gcc-arm-none-eabi/20140805/bin/../lib/gcc/arm-none-eabi/4.8.4/../../../../arm-none-eabi/lib/armv7-m/libm.a(lib_a-e_sqrt.o)
                                                  /usr/local/Cellar/gcc-arm-none-eabi/20140805/bin/../lib/gcc/arm-none-eabi/4.8.4/../../../../arm-none-eabi/lib/armv7-m/libm.a(lib_a-e_pow.o)
__aeabi_dcmpeq                                    /usr/local/Cellar/gcc-arm-none-eabi/20140805/bin/../lib/gcc/arm-none-eabi/4.8.4/armv7-m/libgcc.a(_arm_cmpdf2.o)
                                                  /usr/local/Cellar/gcc-arm-none-eabi/20140805/bin/../lib/gcc/arm-none-eabi/4.8.4/../../../../arm-none-eabi/lib/armv7-m/libm.a(lib_a-w_pow.o)
__aeabi_dcmpge                                    /usr/local/Cellar/gcc-arm-none-eabi/20140805/bin/../lib/gcc/arm-none-eabi/4.8.4/armv7-m/libgcc.a(_arm_cmpdf2.o)
__aeabi_dcmpgt                                    /usr/local/Cellar/gcc-arm-none-eabi/20140805/bin/../lib/gcc/arm-none-eabi/4.8.4/armv7-m/libgcc.a(_arm_cmpdf2.o)
                                                  /usr/local/Cellar/gcc-arm-none-eabi/20140805/bin/../lib/gcc/arm-none-eabi/4.8.4/../../../../arm-none-eabi/lib/armv7-m/libm.a(lib_a-e_pow.o)
__aeabi_dcmple                                    /usr/local/Cellar/gcc-arm-none-eabi/20140805/bin/../lib/gcc/arm-none-eabi/4.8.4/armv7-m/libgcc.a(_arm_cmpdf2.o)
                                                  /usr/local/Cellar/gcc-arm-none-eabi/20140805/bin/../lib/gcc/arm-none-eabi/4.8.4/../../../../arm-none-eabi/lib/armv7-m/libm.a(lib_a-e_pow.o)
__aeabi_dcmplt                                    /usr/local/Cellar/gcc-arm-none-eabi/20140805/bin/../lib/gcc/arm-none-eabi/4.8.4/armv7-m/libgcc.a(_arm_cmpdf2.o)
                                                  /usr/local/Cellar/gcc-arm-none-eabi/20140805/bin/../lib/gcc/arm-none-eabi/4.8.4/../../../../arm-none-eabi/lib/armv7-m/libm.a(lib_a-w_pow.o)
__aeabi_ddiv                                      /usr/local/Cellar/gcc-arm-none-eabi/20140805/bin/../lib/gcc/arm-none-eabi/4.8.4/armv7-m/libgcc.a(_arm_muldivdf3.o)
                                                  /usr/local/Cellar/gcc-arm-none-eabi/20140805/bin/../lib/gcc/arm-none-eabi/4.8.4/../../../../arm-none-eabi/lib/armv7-m/libm.a(lib_a-e_sqrt.o)
                                                  /usr/local/Cellar/gcc-arm-none-eabi/20140805/bin/../lib/gcc/arm-none-eabi/4.8.4/../../../../arm-none-eabi/lib/armv7-m/libm.a(lib_a-e_pow.o)
                                                  /usr/local/Cellar/gcc-arm-none-eabi/20140805/bin/../lib/gcc/arm-none-eabi/4.8.4/../../../../arm-none-eabi/lib/armv7-m/libm.a(lib_a-w_pow.o)
                                                  contiki-srf06-cc26xx.a(mpu-9250-sensor)
__aeabi_dmul                                      /usr/local/Cellar/gcc-arm-none-eabi/20140805/bin/../lib/gcc/arm-none-eabi/4.8.4/armv7-m/libgcc.a(_arm_muldivdf3.o)
                                                  /usr/local/Cellar/gcc-arm-none-eabi/20140805/bin/../lib/gcc/arm-none-eabi/4.8.4/../../../../arm-none-eabi/lib/armv7-m/libm.a(lib_a-s_scalbn.o)
                                                  /usr/local/Cellar/gcc-arm-none-eabi/20140805/bin/../lib/gcc/arm-none-eabi/4.8.4/../../../../arm-none-eabi/lib/armv7-m/libm.a(lib_a-e_sqrt.o)
                                                  /usr/local/Cellar/gcc-arm-none-eabi/20140805/bin/../lib/gcc/arm-none-eabi/4.8.4/../../../../arm-none-eabi/lib/armv7-m/libm.a(lib_a-e_pow.o)
                                                  /usr/local/Cellar/gcc-arm-none-eabi/20140805/bin/../lib/gcc/arm-none-eabi/4.8.4/../../../../arm-none-eabi/lib/armv7-m/libm.a(lib_a-w_pow.o)
                                                  contiki-srf06-cc26xx.a(mpu-9250-sensor)
                                                  contiki-srf06-cc26xx.a(hdc-1000-sensor)
                                                  contiki-srf06-cc26xx.a(opt-3001-sensor)
__aeabi_drsub                                     /usr/local/Cellar/gcc-arm-none-eabi/20140805/bin/../lib/gcc/arm-none-eabi/4.8.4/armv7-m/libgcc.a(_arm_addsubdf3.o)
__aeabi_dsub                                      /usr/local/Cellar/gcc-arm-none-eabi/20140805/bin/../lib/gcc/arm-none-eabi/4.8.4/armv7-m/libgcc.a(_arm_addsubdf3.o)
                                                  /usr/local/Cellar/gcc-arm-none-eabi/20140805/bin/../lib/gcc/arm-none-eabi/4.8.4/../../../../arm-none-eabi/lib/armv7-m/libm.a(lib_a-s_rint.o)
                                                  /usr/local/Cellar/gcc-arm-none-eabi/20140805/bin/../lib/gcc/arm-none-eabi/4.8.4/../../../../arm-none-eabi/lib/armv7-m/libm.a(lib_a-e_sqrt.o)
                                                  /usr/local/Cellar/gcc-arm-none-eabi/20140805/bin/../lib/gcc/arm-none-eabi/4.8.4/../../../../arm-none-eabi/lib/armv7-m/libm.a(lib_a-e_pow.o)
                                                  contiki-srf06-cc26xx.a(hdc-1000-sensor)
__aeabi_f2d                                       /usr/local/Cellar/gcc-arm-none-eabi/20140805/bin/../lib/gcc/arm-none-eabi/4.8.4/armv7-m/libgcc.a(_arm_addsubdf3.o)
__aeabi_f2iz                                      /usr/local/Cellar/gcc-arm-none-eabi/20140805/bin/../lib/gcc/arm-none-eabi/4.8.4/armv7-m/libgcc.a(_arm_fixsfsi.o)
                                                  contiki-srf06-cc26xx.a(mpu-9250-sensor)
                                                  contiki-srf06-cc26xx.a(hdc-1000-sensor)
                                                  contiki-srf06-cc26xx.a(opt-3001-sensor)
                                                  contiki-srf06-cc26xx.a(tmp-007-sensor.)
__aeabi_fadd                                      /usr/local/Cellar/gcc-arm-none-eabi/20140805/bin/../lib/gcc/arm-none-eabi/4.8.4/armv7-m/libgcc.a(_arm_addsubsf3.o)
__aeabi_fdiv                                      /usr/local/Cellar/gcc-arm-none-eabi/20140805/bin/../lib/gcc/arm-none-eabi/4.8.4/armv7-m/libgcc.a(_arm_muldivsf3.o)
__aeabi_fmul                                      /usr/local/Cellar/gcc-arm-none-eabi/20140805/bin/../lib/gcc/arm-none-eabi/4.8.4/armv7-m/libgcc.a(_arm_muldivsf3.o)
                                                  contiki-srf06-cc26xx.a(mpu-9250-sensor)
                                                  contiki-srf06-cc26xx.a(hdc-1000-sensor)
                                                  contiki-srf06-cc26xx.a(opt-3001-sensor)
                                                  contiki-srf06-cc26xx.a(tmp-007-sensor.)
__aeabi_frsub                                     /usr/local/Cellar/gcc-arm-none-eabi/20140805/bin/../lib/gcc/arm-none-eabi/4.8.4/armv7-m/libgcc.a(_arm_addsubsf3.o)
__aeabi_fsub                                      /usr/local/Cellar/gcc-arm-none-eabi/20140805/bin/../lib/gcc/arm-none-eabi/4.8.4/armv7-m/libgcc.a(_arm_addsubsf3.o)
__aeabi_i2d                                       /usr/local/Cellar/gcc-arm-none-eabi/20140805/bin/../lib/gcc/arm-none-eabi/4.8.4/armv7-m/libgcc.a(_arm_addsubdf3.o)
                                                  /usr/local/Cellar/gcc-arm-none-eabi/20140805/bin/../lib/gcc/arm-none-eabi/4.8.4/../../../../arm-none-eabi/lib/armv7-m/libm.a(lib_a-e_pow.o)
                                                  contiki-srf06-cc26xx.a(mpu-9250-sensor)
                                                  contiki-srf06-cc26xx.a(hdc-1000-sensor)
                                                  contiki-srf06-cc26xx.a(opt-3001-sensor)
__aeabi_i2f                                       /usr/local/Cellar/gcc-arm-none-eabi/20140805/bin/../lib/gcc/arm-none-eabi/4.8.4/armv7-m/libgcc.a(_arm_addsubsf3.o)
                                                  contiki-srf06-cc26xx.a(tmp-007-sensor.)
__aeabi_idiv0                                     /usr/local/Cellar/gcc-arm-none-eabi/20140805/bin/../lib/gcc/arm-none-eabi/4.8.4/armv7-m/libgcc.a(_dvmd_tls.o)
__aeabi_l2d                                       /usr/local/Cellar/gcc-arm-none-eabi/20140805/bin/../lib/gcc/arm-none-eabi/4.8.4/armv7-m/libgcc.a(_arm_addsubdf3.o)
__aeabi_l2f                                       /usr/local/Cellar/gcc-arm-none-eabi/20140805/bin/../lib/gcc/arm-none-eabi/4.8.4/armv7-m/libgcc.a(_arm_addsubsf3.o)
__aeabi_ldiv0                                     /usr/local/Cellar/gcc-arm-none-eabi/20140805/bin/../lib/gcc/arm-none-eabi/4.8.4/armv7-m/libgcc.a(_dvmd_tls.o)
                                                  /usr/local/Cellar/gcc-arm-none-eabi/20140805/bin/../lib/gcc/arm-none-eabi/4.8.4/armv7-m/libgcc.a(_aeabi_uldivmod.o)
__aeabi_ui2d                                      /usr/local/Cellar/gcc-arm-none-eabi/20140805/bin/../lib/gcc/arm-none-eabi/4.8.4/armv7-m/libgcc.a(_arm_addsubdf3.o)
                                                  contiki-srf06-cc26xx.a(hdc-1000-sensor)
                                                  contiki-srf06-cc26xx.a(opt-3001-sensor)
__aeabi_ui2f                                      /usr/local/Cellar/gcc-arm-none-eabi/20140805/bin/../lib/gcc/arm-none-eabi/4.8.4/armv7-m/libgcc.a(_arm_addsubsf3.o)
__aeabi_ul2d                                      /usr/local/Cellar/gcc-arm-none-eabi/20140805/bin/../lib/gcc/arm-none-eabi/4.8.4/armv7-m/libgcc.a(_arm_addsubdf3.o)
__aeabi_ul2f                                      /usr/local/Cellar/gcc-arm-none-eabi/20140805/bin/../lib/gcc/arm-none-eabi/4.8.4/armv7-m/libgcc.a(_arm_addsubsf3.o)
__aeabi_uldivmod                                  /usr/local/Cellar/gcc-arm-none-eabi/20140805/bin/../lib/gcc/arm-none-eabi/4.8.4/armv7-m/libgcc.a(_aeabi_uldivmod.o)
                                                  contiki-srf06-cc26xx.a(strformat.o)
__ccfg                                            obj_srf06-cc26xx/ccfg.o
__cmpdf2                                          /usr/local/Cellar/gcc-arm-none-eabi/20140805/bin/../lib/gcc/arm-none-eabi/4.8.4/armv7-m/libgcc.a(_arm_cmpdf2.o)
__divdf3                                          /usr/local/Cellar/gcc-arm-none-eabi/20140805/bin/../lib/gcc/arm-none-eabi/4.8.4/armv7-m/libgcc.a(_arm_muldivdf3.o)
__divdi3                                          /usr/local/Cellar/gcc-arm-none-eabi/20140805/bin/../lib/gcc/arm-none-eabi/4.8.4/armv7-m/libgcc.a(_divdi3.o)
                                                  /usr/local/Cellar/gcc-arm-none-eabi/20140805/bin/../lib/gcc/arm-none-eabi/4.8.4/armv7-m/libgcc.a(bpabi.o)
__divsf3                                          /usr/local/Cellar/gcc-arm-none-eabi/20140805/bin/../lib/gcc/arm-none-eabi/4.8.4/armv7-m/libgcc.a(_arm_muldivsf3.o)
__eqdf2                                           /usr/local/Cellar/gcc-arm-none-eabi/20140805/bin/../lib/gcc/arm-none-eabi/4.8.4/armv7-m/libgcc.a(_arm_cmpdf2.o)
__errno                                           /usr/local/Cellar/gcc-arm-none-eabi/20140805/bin/../lib/gcc/arm-none-eabi/4.8.4/../../../../arm-none-eabi/lib/armv7-m/libc.a(lib_a-errno.o)
                                                  /usr/local/Cellar/gcc-arm-none-eabi/20140805/bin/../lib/gcc/arm-none-eabi/4.8.4/../../../../arm-none-eabi/lib/armv7-m/libm.a(lib_a-w_pow.o)
__extendsfdf2                                     /usr/local/Cellar/gcc-arm-none-eabi/20140805/bin/../lib/gcc/arm-none-eabi/4.8.4/armv7-m/libgcc.a(_arm_addsubdf3.o)
__fdlib_version                                   /usr/local/Cellar/gcc-arm-none-eabi/20140805/bin/../lib/gcc/arm-none-eabi/4.8.4/../../../../arm-none-eabi/lib/armv7-m/libm.a(lib_a-s_lib_ver.o)
                                                  /usr/local/Cellar/gcc-arm-none-eabi/20140805/bin/../lib/gcc/arm-none-eabi/4.8.4/../../../../arm-none-eabi/lib/armv7-m/libm.a(lib_a-w_pow.o)
__fixsfsi                                         /usr/local/Cellar/gcc-arm-none-eabi/20140805/bin/../lib/gcc/arm-none-eabi/4.8.4/armv7-m/libgcc.a(_arm_fixsfsi.o)
__floatdidf                                       /usr/local/Cellar/gcc-arm-none-eabi/20140805/bin/../lib/gcc/arm-none-eabi/4.8.4/armv7-m/libgcc.a(_arm_addsubdf3.o)
__floatdisf                                       /usr/local/Cellar/gcc-arm-none-eabi/20140805/bin/../lib/gcc/arm-none-eabi/4.8.4/armv7-m/libgcc.a(_arm_addsubsf3.o)
__floatsidf                                       /usr/local/Cellar/gcc-arm-none-eabi/20140805/bin/../lib/gcc/arm-none-eabi/4.8.4/armv7-m/libgcc.a(_arm_addsubdf3.o)
__floatsisf                                       /usr/local/Cellar/gcc-arm-none-eabi/20140805/bin/../lib/gcc/arm-none-eabi/4.8.4/armv7-m/libgcc.a(_arm_addsubsf3.o)
__floatundidf                                     /usr/local/Cellar/gcc-arm-none-eabi/20140805/bin/../lib/gcc/arm-none-eabi/4.8.4/armv7-m/libgcc.a(_arm_addsubdf3.o)
__floatundisf                                     /usr/local/Cellar/gcc-arm-none-eabi/20140805/bin/../lib/gcc/arm-none-eabi/4.8.4/armv7-m/libgcc.a(_arm_addsubsf3.o)
__floatunsidf                                     /usr/local/Cellar/gcc-arm-none-eabi/20140805/bin/../lib/gcc/arm-none-eabi/4.8.4/armv7-m/libgcc.a(_arm_addsubdf3.o)
__floatunsisf                                     /usr/local/Cellar/gcc-arm-none-eabi/20140805/bin/../lib/gcc/arm-none-eabi/4.8.4/armv7-m/libgcc.a(_arm_addsubsf3.o)
__fpclassifyd                                     /usr/local/Cellar/gcc-arm-none-eabi/20140805/bin/../lib/gcc/arm-none-eabi/4.8.4/../../../../arm-none-eabi/lib/armv7-m/libm.a(lib_a-s_fpclassify.o)
                                                  /usr/local/Cellar/gcc-arm-none-eabi/20140805/bin/../lib/gcc/arm-none-eabi/4.8.4/../../../../arm-none-eabi/lib/armv7-m/libm.a(lib_a-w_pow.o)
__gedf2                                           /usr/local/Cellar/gcc-arm-none-eabi/20140805/bin/../lib/gcc/arm-none-eabi/4.8.4/armv7-m/libgcc.a(_arm_cmpdf2.o)
__gnu_ldivmod_helper                              /usr/local/Cellar/gcc-arm-none-eabi/20140805/bin/../lib/gcc/arm-none-eabi/4.8.4/armv7-m/libgcc.a(bpabi.o)
__gnu_uldivmod_helper                             /usr/local/Cellar/gcc-arm-none-eabi/20140805/bin/../lib/gcc/arm-none-eabi/4.8.4/armv7-m/libgcc.a(bpabi.o)
                                                  /usr/local/Cellar/gcc-arm-none-eabi/20140805/bin/../lib/gcc/arm-none-eabi/4.8.4/armv7-m/libgcc.a(_aeabi_uldivmod.o)
__gtdf2                                           /usr/local/Cellar/gcc-arm-none-eabi/20140805/bin/../lib/gcc/arm-none-eabi/4.8.4/armv7-m/libgcc.a(_arm_cmpdf2.o)
__ieee754_pow                                     /usr/local/Cellar/gcc-arm-none-eabi/20140805/bin/../lib/gcc/arm-none-eabi/4.8.4/../../../../arm-none-eabi/lib/armv7-m/libm.a(lib_a-e_pow.o)
